{"abi":[{"inputs":[{"internalType":"uint256","name":"_minimum","type":"uint256"},{"internalType":"string","name":"_campaignName","type":"string"},{"internalType":"string","name":"_campaignDescription","type":"string"},{"internalType":"string","name":"_campaignImage","type":"string"}],"name":"createCampaign","outputs":[],"stateMutability":"nonpayable","type":"function"},{"inputs":[{"internalType":"uint256","name":"","type":"uint256"}],"name":"deployedCampaigns","outputs":[{"internalType":"address","name":"","type":"address"}],"stateMutability":"view","type":"function"},{"inputs":[],"name":"getDeployedCampaigns","outputs":[{"internalType":"address[]","name":"","type":"address[]"}],"stateMutability":"view","type":"function"}],"devdoc":{"kind":"dev","methods":{},"version":1},"evm":{"assembly":"    /* \"Campaign.sol\":25:575  contract CampaignFactory{... */\n  mstore(0x40, 0x80)\n  callvalue\n  dup1\n  iszero\n  tag_1\n  jumpi\n  0x00\n  dup1\n  revert\ntag_1:\n  pop\n  dataSize(sub_0)\n  dup1\n  dataOffset(sub_0)\n  0x00\n  codecopy\n  0x00\n  return\nstop\n\nsub_0: assembly {\n        /* \"Campaign.sol\":25:575  contract CampaignFactory{... */\n      mstore(0x40, 0x80)\n      callvalue\n      dup1\n      iszero\n      tag_1\n      jumpi\n      0x00\n      dup1\n      revert\n    tag_1:\n      pop\n      jumpi(tag_2, lt(calldatasize, 0x04))\n      shr(0xe0, calldataload(0x00))\n      dup1\n      0x339d50a5\n      eq\n      tag_3\n      jumpi\n      dup1\n      0x4acb9d4f\n      eq\n      tag_4\n      jumpi\n      dup1\n      0x8ef03928\n      eq\n      tag_5\n      jumpi\n    tag_2:\n      0x00\n      dup1\n      revert\n        /* \"Campaign.sol\":55:89  address[] public deployedCampaigns */\n    tag_3:\n      tag_6\n      0x04\n      dup1\n      calldatasize\n      sub\n      dup2\n      add\n      swap1\n      tag_7\n      swap2\n      swap1\n      tag_8\n      jump\t// in\n    tag_7:\n      tag_9\n      jump\t// in\n    tag_6:\n      mload(0x40)\n      tag_10\n      swap2\n      swap1\n      tag_11\n      jump\t// in\n    tag_10:\n      mload(0x40)\n      dup1\n      swap2\n      sub\n      swap1\n      return\n        /* \"Campaign.sol\":455:568  function getDeployedCampaigns() public view returns ( address[] memory) {... */\n    tag_4:\n      tag_12\n      tag_13\n      jump\t// in\n    tag_12:\n      mload(0x40)\n      tag_14\n      swap2\n      swap1\n      tag_15\n      jump\t// in\n    tag_14:\n      mload(0x40)\n      dup1\n      swap2\n      sub\n      swap1\n      return\n        /* \"Campaign.sol\":105:445  function createCampaign(uint _minimum, string memory _campaignName, string memory _campaignDescription, string memory _campaignImage) public {... */\n    tag_5:\n      tag_16\n      0x04\n      dup1\n      calldatasize\n      sub\n      dup2\n      add\n      swap1\n      tag_17\n      swap2\n      swap1\n      tag_18\n      jump\t// in\n    tag_17:\n      tag_19\n      jump\t// in\n    tag_16:\n      stop\n        /* \"Campaign.sol\":55:89  address[] public deployedCampaigns */\n    tag_9:\n      0x00\n      dup2\n      dup2\n      sload\n      dup2\n      lt\n      tag_20\n      jumpi\n      0x00\n      dup1\n      revert\n    tag_20:\n      swap1\n      0x00\n      mstore\n      keccak256(0x00, 0x20)\n      add\n      0x00\n      swap2\n      pop\n      sload\n      swap1\n      0x0100\n      exp\n      swap1\n      div\n      0xffffffffffffffffffffffffffffffffffffffff\n      and\n      dup2\n      jump\t// out\n        /* \"Campaign.sol\":455:568  function getDeployedCampaigns() public view returns ( address[] memory) {... */\n    tag_13:\n        /* \"Campaign.sol\":509:525  address[] memory */\n      0x60\n        /* \"Campaign.sol\":544:561  deployedCampaigns */\n      0x00\n        /* \"Campaign.sol\":537:561  return deployedCampaigns */\n      dup1\n      sload\n      dup1\n      0x20\n      mul\n      0x20\n      add\n      mload(0x40)\n      swap1\n      dup2\n      add\n      0x40\n      mstore\n      dup1\n      swap3\n      swap2\n      swap1\n      dup2\n      dup2\n      mstore\n      0x20\n      add\n      dup3\n      dup1\n      sload\n      dup1\n      iszero\n      tag_23\n      jumpi\n      0x20\n      mul\n      dup3\n      add\n      swap2\n      swap1\n      0x00\n      mstore\n      keccak256(0x00, 0x20)\n      swap1\n    tag_24:\n      dup2\n      0x00\n      swap1\n      sload\n      swap1\n      0x0100\n      exp\n      swap1\n      div\n      0xffffffffffffffffffffffffffffffffffffffff\n      and\n      0xffffffffffffffffffffffffffffffffffffffff\n      and\n      dup2\n      mstore\n      0x20\n      add\n      swap1\n      0x01\n      add\n      swap1\n      dup1\n      dup4\n      gt\n      tag_24\n      jumpi\n    tag_23:\n      pop\n      pop\n      pop\n      pop\n      pop\n      swap1\n      pop\n        /* \"Campaign.sol\":455:568  function getDeployedCampaigns() public view returns ( address[] memory) {... */\n      swap1\n      jump\t// out\n        /* \"Campaign.sol\":105:445  function createCampaign(uint _minimum, string memory _campaignName, string memory _campaignDescription, string memory _campaignImage) public {... */\n    tag_19:\n        /* \"Campaign.sol\":264:284  Campaign newCampaign */\n      0x00\n        /* \"Campaign.sol\":300:308  _minimum */\n      dup5\n        /* \"Campaign.sol\":310:320  msg.sender */\n      caller\n        /* \"Campaign.sol\":322:335  _campaignName */\n      dup6\n        /* \"Campaign.sol\":337:357  _campaignDescription */\n      dup6\n        /* \"Campaign.sol\":359:373  _campaignImage */\n      dup6\n        /* \"Campaign.sol\":287:375  new Campaign(_minimum, msg.sender, _campaignName, _campaignDescription, _campaignImage ) */\n      mload(0x40)\n      tag_26\n      swap1\n      tag_27\n      jump\t// in\n    tag_26:\n      tag_28\n      swap6\n      swap5\n      swap4\n      swap3\n      swap2\n      swap1\n      tag_29\n      jump\t// in\n    tag_28:\n      mload(0x40)\n      dup1\n      swap2\n      sub\n      swap1\n      0x00\n      create\n      dup1\n      iszero\n      dup1\n      iszero\n      tag_30\n      jumpi\n      returndatasize\n      0x00\n      dup1\n      returndatacopy\n      revert(0x00, returndatasize)\n    tag_30:\n      pop\n        /* \"Campaign.sol\":264:375  Campaign newCampaign = new Campaign(_minimum, msg.sender, _campaignName, _campaignDescription, _campaignImage ) */\n      swap1\n      pop\n        /* \"Campaign.sol\":384:401  deployedCampaigns */\n      0x00\n        /* \"Campaign.sol\":415:426  newCampaign */\n      dup2\n        /* \"Campaign.sol\":384:428  deployedCampaigns.push(address(newCampaign)) */\n      swap1\n      dup1\n      0x01\n      dup2\n      sload\n      add\n      dup1\n      dup3\n      sstore\n      dup1\n      swap2\n      pop\n      pop\n      0x01\n      swap1\n      sub\n      swap1\n      0x00\n      mstore\n      keccak256(0x00, 0x20)\n      add\n      0x00\n      swap1\n      swap2\n      swap1\n      swap2\n      swap1\n      swap2\n      0x0100\n      exp\n      dup2\n      sload\n      dup2\n      0xffffffffffffffffffffffffffffffffffffffff\n      mul\n      not\n      and\n      swap1\n      dup4\n      0xffffffffffffffffffffffffffffffffffffffff\n      and\n      mul\n      or\n      swap1\n      sstore\n      pop\n        /* \"Campaign.sol\":246:445  {... */\n      pop\n        /* \"Campaign.sol\":105:445  function createCampaign(uint _minimum, string memory _campaignName, string memory _campaignDescription, string memory _campaignImage) public {... */\n      pop\n      pop\n      pop\n      pop\n      jump\t// out\n    tag_27:\n      dataSize(sub_0)\n      dup1\n      dataOffset(sub_0)\n      dup4\n      codecopy\n      add\n      swap1\n      jump\t// out\n        /* \"#utility.yul\":7:419   */\n    tag_33:\n        /* \"#utility.yul\":85:90   */\n      0x00\n        /* \"#utility.yul\":110:176   */\n      tag_35\n        /* \"#utility.yul\":126:175   */\n      tag_36\n        /* \"#utility.yul\":168:174   */\n      dup5\n        /* \"#utility.yul\":126:175   */\n      tag_37\n      jump\t// in\n    tag_36:\n        /* \"#utility.yul\":110:176   */\n      tag_38\n      jump\t// in\n    tag_35:\n        /* \"#utility.yul\":101:176   */\n      swap1\n      pop\n        /* \"#utility.yul\":199:205   */\n      dup3\n        /* \"#utility.yul\":192:197   */\n      dup2\n        /* \"#utility.yul\":185:206   */\n      mstore\n        /* \"#utility.yul\":237:241   */\n      0x20\n        /* \"#utility.yul\":230:235   */\n      dup2\n        /* \"#utility.yul\":226:242   */\n      add\n        /* \"#utility.yul\":275:278   */\n      dup5\n        /* \"#utility.yul\":266:272   */\n      dup5\n        /* \"#utility.yul\":261:264   */\n      dup5\n        /* \"#utility.yul\":257:273   */\n      add\n        /* \"#utility.yul\":254:279   */\n      gt\n        /* \"#utility.yul\":251:363   */\n      iszero\n      tag_39\n      jumpi\n        /* \"#utility.yul\":282:361   */\n      tag_40\n      tag_41\n      jump\t// in\n    tag_40:\n        /* \"#utility.yul\":251:363   */\n    tag_39:\n        /* \"#utility.yul\":372:413   */\n      tag_42\n        /* \"#utility.yul\":406:412   */\n      dup5\n        /* \"#utility.yul\":401:404   */\n      dup3\n        /* \"#utility.yul\":396:399   */\n      dup6\n        /* \"#utility.yul\":372:413   */\n      tag_43\n      jump\t// in\n    tag_42:\n        /* \"#utility.yul\":91:419   */\n      pop\n        /* \"#utility.yul\":7:419   */\n      swap4\n      swap3\n      pop\n      pop\n      pop\n      jump\t// out\n        /* \"#utility.yul\":439:779   */\n    tag_44:\n        /* \"#utility.yul\":495:500   */\n      0x00\n        /* \"#utility.yul\":544:547   */\n      dup3\n        /* \"#utility.yul\":537:541   */\n      0x1f\n        /* \"#utility.yul\":529:535   */\n      dup4\n        /* \"#utility.yul\":525:542   */\n      add\n        /* \"#utility.yul\":521:548   */\n      slt\n        /* \"#utility.yul\":511:633   */\n      tag_46\n      jumpi\n        /* \"#utility.yul\":552:631   */\n      tag_47\n      tag_48\n      jump\t// in\n    tag_47:\n        /* \"#utility.yul\":511:633   */\n    tag_46:\n        /* \"#utility.yul\":669:675   */\n      dup2\n        /* \"#utility.yul\":656:676   */\n      calldataload\n        /* \"#utility.yul\":694:773   */\n      tag_49\n        /* \"#utility.yul\":769:772   */\n      dup5\n        /* \"#utility.yul\":761:767   */\n      dup3\n        /* \"#utility.yul\":754:758   */\n      0x20\n        /* \"#utility.yul\":746:752   */\n      dup7\n        /* \"#utility.yul\":742:759   */\n      add\n        /* \"#utility.yul\":694:773   */\n      tag_33\n      jump\t// in\n    tag_49:\n        /* \"#utility.yul\":685:773   */\n      swap2\n      pop\n        /* \"#utility.yul\":501:779   */\n      pop\n        /* \"#utility.yul\":439:779   */\n      swap3\n      swap2\n      pop\n      pop\n      jump\t// out\n        /* \"#utility.yul\":785:924   */\n    tag_50:\n        /* \"#utility.yul\":831:836   */\n      0x00\n        /* \"#utility.yul\":869:875   */\n      dup2\n        /* \"#utility.yul\":856:876   */\n      calldataload\n        /* \"#utility.yul\":847:876   */\n      swap1\n      pop\n        /* \"#utility.yul\":885:918   */\n      tag_52\n        /* \"#utility.yul\":912:917   */\n      dup2\n        /* \"#utility.yul\":885:918   */\n      tag_53\n      jump\t// in\n    tag_52:\n        /* \"#utility.yul\":785:924   */\n      swap3\n      swap2\n      pop\n      pop\n      jump\t// out\n        /* \"#utility.yul\":930:1259   */\n    tag_8:\n        /* \"#utility.yul\":989:995   */\n      0x00\n        /* \"#utility.yul\":1038:1040   */\n      0x20\n        /* \"#utility.yul\":1026:1035   */\n      dup3\n        /* \"#utility.yul\":1017:1024   */\n      dup5\n        /* \"#utility.yul\":1013:1036   */\n      sub\n        /* \"#utility.yul\":1009:1041   */\n      slt\n        /* \"#utility.yul\":1006:1125   */\n      iszero\n      tag_55\n      jumpi\n        /* \"#utility.yul\":1044:1123   */\n      tag_56\n      tag_57\n      jump\t// in\n    tag_56:\n        /* \"#utility.yul\":1006:1125   */\n    tag_55:\n        /* \"#utility.yul\":1164:1165   */\n      0x00\n        /* \"#utility.yul\":1189:1242   */\n      tag_58\n        /* \"#utility.yul\":1234:1241   */\n      dup5\n        /* \"#utility.yul\":1225:1231   */\n      dup3\n        /* \"#utility.yul\":1214:1223   */\n      dup6\n        /* \"#utility.yul\":1210:1232   */\n      add\n        /* \"#utility.yul\":1189:1242   */\n      tag_50\n      jump\t// in\n    tag_58:\n        /* \"#utility.yul\":1179:1242   */\n      swap2\n      pop\n        /* \"#utility.yul\":1135:1252   */\n      pop\n        /* \"#utility.yul\":930:1259   */\n      swap3\n      swap2\n      pop\n      pop\n      jump\t// out\n        /* \"#utility.yul\":1265:2570   */\n    tag_18:\n        /* \"#utility.yul\":1381:1387   */\n      0x00\n        /* \"#utility.yul\":1389:1395   */\n      dup1\n        /* \"#utility.yul\":1397:1403   */\n      0x00\n        /* \"#utility.yul\":1405:1411   */\n      dup1\n        /* \"#utility.yul\":1454:1457   */\n      0x80\n        /* \"#utility.yul\":1442:1451   */\n      dup6\n        /* \"#utility.yul\":1433:1440   */\n      dup8\n        /* \"#utility.yul\":1429:1452   */\n      sub\n        /* \"#utility.yul\":1425:1458   */\n      slt\n        /* \"#utility.yul\":1422:1542   */\n      iszero\n      tag_60\n      jumpi\n        /* \"#utility.yul\":1461:1540   */\n      tag_61\n      tag_57\n      jump\t// in\n    tag_61:\n        /* \"#utility.yul\":1422:1542   */\n    tag_60:\n        /* \"#utility.yul\":1581:1582   */\n      0x00\n        /* \"#utility.yul\":1606:1659   */\n      tag_62\n        /* \"#utility.yul\":1651:1658   */\n      dup8\n        /* \"#utility.yul\":1642:1648   */\n      dup3\n        /* \"#utility.yul\":1631:1640   */\n      dup9\n        /* \"#utility.yul\":1627:1649   */\n      add\n        /* \"#utility.yul\":1606:1659   */\n      tag_50\n      jump\t// in\n    tag_62:\n        /* \"#utility.yul\":1596:1659   */\n      swap5\n      pop\n        /* \"#utility.yul\":1552:1669   */\n      pop\n        /* \"#utility.yul\":1736:1738   */\n      0x20\n        /* \"#utility.yul\":1725:1734   */\n      dup6\n        /* \"#utility.yul\":1721:1739   */\n      add\n        /* \"#utility.yul\":1708:1740   */\n      calldataload\n        /* \"#utility.yul\":1767:1785   */\n      0xffffffffffffffff\n        /* \"#utility.yul\":1759:1765   */\n      dup2\n        /* \"#utility.yul\":1756:1786   */\n      gt\n        /* \"#utility.yul\":1753:1870   */\n      iszero\n      tag_63\n      jumpi\n        /* \"#utility.yul\":1789:1868   */\n      tag_64\n      tag_65\n      jump\t// in\n    tag_64:\n        /* \"#utility.yul\":1753:1870   */\n    tag_63:\n        /* \"#utility.yul\":1894:1957   */\n      tag_66\n        /* \"#utility.yul\":1949:1956   */\n      dup8\n        /* \"#utility.yul\":1940:1946   */\n      dup3\n        /* \"#utility.yul\":1929:1938   */\n      dup9\n        /* \"#utility.yul\":1925:1947   */\n      add\n        /* \"#utility.yul\":1894:1957   */\n      tag_44\n      jump\t// in\n    tag_66:\n        /* \"#utility.yul\":1884:1957   */\n      swap4\n      pop\n        /* \"#utility.yul\":1679:1967   */\n      pop\n        /* \"#utility.yul\":2034:2036   */\n      0x40\n        /* \"#utility.yul\":2023:2032   */\n      dup6\n        /* \"#utility.yul\":2019:2037   */\n      add\n        /* \"#utility.yul\":2006:2038   */\n      calldataload\n        /* \"#utility.yul\":2065:2083   */\n      0xffffffffffffffff\n        /* \"#utility.yul\":2057:2063   */\n      dup2\n        /* \"#utility.yul\":2054:2084   */\n      gt\n        /* \"#utility.yul\":2051:2168   */\n      iszero\n      tag_67\n      jumpi\n        /* \"#utility.yul\":2087:2166   */\n      tag_68\n      tag_65\n      jump\t// in\n    tag_68:\n        /* \"#utility.yul\":2051:2168   */\n    tag_67:\n        /* \"#utility.yul\":2192:2255   */\n      tag_69\n        /* \"#utility.yul\":2247:2254   */\n      dup8\n        /* \"#utility.yul\":2238:2244   */\n      dup3\n        /* \"#utility.yul\":2227:2236   */\n      dup9\n        /* \"#utility.yul\":2223:2245   */\n      add\n        /* \"#utility.yul\":2192:2255   */\n      tag_44\n      jump\t// in\n    tag_69:\n        /* \"#utility.yul\":2182:2255   */\n      swap3\n      pop\n        /* \"#utility.yul\":1977:2265   */\n      pop\n        /* \"#utility.yul\":2332:2334   */\n      0x60\n        /* \"#utility.yul\":2321:2330   */\n      dup6\n        /* \"#utility.yul\":2317:2335   */\n      add\n        /* \"#utility.yul\":2304:2336   */\n      calldataload\n        /* \"#utility.yul\":2363:2381   */\n      0xffffffffffffffff\n        /* \"#utility.yul\":2355:2361   */\n      dup2\n        /* \"#utility.yul\":2352:2382   */\n      gt\n        /* \"#utility.yul\":2349:2466   */\n      iszero\n      tag_70\n      jumpi\n        /* \"#utility.yul\":2385:2464   */\n      tag_71\n      tag_65\n      jump\t// in\n    tag_71:\n        /* \"#utility.yul\":2349:2466   */\n    tag_70:\n        /* \"#utility.yul\":2490:2553   */\n      tag_72\n        /* \"#utility.yul\":2545:2552   */\n      dup8\n        /* \"#utility.yul\":2536:2542   */\n      dup3\n        /* \"#utility.yul\":2525:2534   */\n      dup9\n        /* \"#utility.yul\":2521:2543   */\n      add\n        /* \"#utility.yul\":2490:2553   */\n      tag_44\n      jump\t// in\n    tag_72:\n        /* \"#utility.yul\":2480:2553   */\n      swap2\n      pop\n        /* \"#utility.yul\":2275:2563   */\n      pop\n        /* \"#utility.yul\":1265:2570   */\n      swap3\n      swap6\n      swap2\n      swap5\n      pop\n      swap3\n      pop\n      jump\t// out\n        /* \"#utility.yul\":2576:2755   */\n    tag_73:\n        /* \"#utility.yul\":2645:2655   */\n      0x00\n        /* \"#utility.yul\":2666:2712   */\n      tag_75\n        /* \"#utility.yul\":2708:2711   */\n      dup4\n        /* \"#utility.yul\":2700:2706   */\n      dup4\n        /* \"#utility.yul\":2666:2712   */\n      tag_76\n      jump\t// in\n    tag_75:\n        /* \"#utility.yul\":2744:2748   */\n      0x20\n        /* \"#utility.yul\":2739:2742   */\n      dup4\n        /* \"#utility.yul\":2735:2749   */\n      add\n        /* \"#utility.yul\":2721:2749   */\n      swap1\n      pop\n        /* \"#utility.yul\":2576:2755   */\n      swap3\n      swap2\n      pop\n      pop\n      jump\t// out\n        /* \"#utility.yul\":2761:2869   */\n    tag_76:\n        /* \"#utility.yul\":2838:2862   */\n      tag_78\n        /* \"#utility.yul\":2856:2861   */\n      dup2\n        /* \"#utility.yul\":2838:2862   */\n      tag_79\n      jump\t// in\n    tag_78:\n        /* \"#utility.yul\":2833:2836   */\n      dup3\n        /* \"#utility.yul\":2826:2863   */\n      mstore\n        /* \"#utility.yul\":2761:2869   */\n      pop\n      pop\n      jump\t// out\n        /* \"#utility.yul\":2875:2993   */\n    tag_80:\n        /* \"#utility.yul\":2962:2986   */\n      tag_82\n        /* \"#utility.yul\":2980:2985   */\n      dup2\n        /* \"#utility.yul\":2962:2986   */\n      tag_79\n      jump\t// in\n    tag_82:\n        /* \"#utility.yul\":2957:2960   */\n      dup3\n        /* \"#utility.yul\":2950:2987   */\n      mstore\n        /* \"#utility.yul\":2875:2993   */\n      pop\n      pop\n      jump\t// out\n        /* \"#utility.yul\":3029:3761   */\n    tag_83:\n        /* \"#utility.yul\":3148:3151   */\n      0x00\n        /* \"#utility.yul\":3177:3231   */\n      tag_85\n        /* \"#utility.yul\":3225:3230   */\n      dup3\n        /* \"#utility.yul\":3177:3231   */\n      tag_86\n      jump\t// in\n    tag_85:\n        /* \"#utility.yul\":3247:3333   */\n      tag_87\n        /* \"#utility.yul\":3326:3332   */\n      dup2\n        /* \"#utility.yul\":3321:3324   */\n      dup6\n        /* \"#utility.yul\":3247:3333   */\n      tag_88\n      jump\t// in\n    tag_87:\n        /* \"#utility.yul\":3240:3333   */\n      swap4\n      pop\n        /* \"#utility.yul\":3357:3413   */\n      tag_89\n        /* \"#utility.yul\":3407:3412   */\n      dup4\n        /* \"#utility.yul\":3357:3413   */\n      tag_90\n      jump\t// in\n    tag_89:\n        /* \"#utility.yul\":3436:3443   */\n      dup1\n        /* \"#utility.yul\":3467:3468   */\n      0x00\n        /* \"#utility.yul\":3452:3736   */\n    tag_91:\n        /* \"#utility.yul\":3477:3483   */\n      dup4\n        /* \"#utility.yul\":3474:3475   */\n      dup2\n        /* \"#utility.yul\":3471:3484   */\n      lt\n        /* \"#utility.yul\":3452:3736   */\n      iszero\n      tag_93\n      jumpi\n        /* \"#utility.yul\":3553:3559   */\n      dup2\n        /* \"#utility.yul\":3547:3560   */\n      mload\n        /* \"#utility.yul\":3580:3643   */\n      tag_94\n        /* \"#utility.yul\":3639:3642   */\n      dup9\n        /* \"#utility.yul\":3624:3637   */\n      dup3\n        /* \"#utility.yul\":3580:3643   */\n      tag_73\n      jump\t// in\n    tag_94:\n        /* \"#utility.yul\":3573:3643   */\n      swap8\n      pop\n        /* \"#utility.yul\":3666:3726   */\n      tag_95\n        /* \"#utility.yul\":3719:3725   */\n      dup4\n        /* \"#utility.yul\":3666:3726   */\n      tag_96\n      jump\t// in\n    tag_95:\n        /* \"#utility.yul\":3656:3726   */\n      swap3\n      pop\n        /* \"#utility.yul\":3512:3736   */\n      pop\n        /* \"#utility.yul\":3499:3500   */\n      0x01\n        /* \"#utility.yul\":3496:3497   */\n      dup2\n        /* \"#utility.yul\":3492:3501   */\n      add\n        /* \"#utility.yul\":3487:3501   */\n      swap1\n      pop\n        /* \"#utility.yul\":3452:3736   */\n      jump(tag_91)\n    tag_93:\n        /* \"#utility.yul\":3456:3470   */\n      pop\n        /* \"#utility.yul\":3752:3755   */\n      dup6\n        /* \"#utility.yul\":3745:3755   */\n      swap4\n      pop\n        /* \"#utility.yul\":3153:3761   */\n      pop\n      pop\n      pop\n        /* \"#utility.yul\":3029:3761   */\n      swap3\n      swap2\n      pop\n      pop\n      jump\t// out\n        /* \"#utility.yul\":3767:4131   */\n    tag_97:\n        /* \"#utility.yul\":3855:3858   */\n      0x00\n        /* \"#utility.yul\":3883:3922   */\n      tag_99\n        /* \"#utility.yul\":3916:3921   */\n      dup3\n        /* \"#utility.yul\":3883:3922   */\n      tag_100\n      jump\t// in\n    tag_99:\n        /* \"#utility.yul\":3938:4009   */\n      tag_101\n        /* \"#utility.yul\":4002:4008   */\n      dup2\n        /* \"#utility.yul\":3997:4000   */\n      dup6\n        /* \"#utility.yul\":3938:4009   */\n      tag_102\n      jump\t// in\n    tag_101:\n        /* \"#utility.yul\":3931:4009   */\n      swap4\n      pop\n        /* \"#utility.yul\":4018:4070   */\n      tag_103\n        /* \"#utility.yul\":4063:4069   */\n      dup2\n        /* \"#utility.yul\":4058:4061   */\n      dup6\n        /* \"#utility.yul\":4051:4055   */\n      0x20\n        /* \"#utility.yul\":4044:4049   */\n      dup7\n        /* \"#utility.yul\":4040:4056   */\n      add\n        /* \"#utility.yul\":4018:4070   */\n      tag_104\n      jump\t// in\n    tag_103:\n        /* \"#utility.yul\":4095:4124   */\n      tag_105\n        /* \"#utility.yul\":4117:4123   */\n      dup2\n        /* \"#utility.yul\":4095:4124   */\n      tag_106\n      jump\t// in\n    tag_105:\n        /* \"#utility.yul\":4090:4093   */\n      dup5\n        /* \"#utility.yul\":4086:4125   */\n      add\n        /* \"#utility.yul\":4079:4125   */\n      swap2\n      pop\n        /* \"#utility.yul\":3859:4131   */\n      pop\n        /* \"#utility.yul\":3767:4131   */\n      swap3\n      swap2\n      pop\n      pop\n      jump\t// out\n        /* \"#utility.yul\":4137:4255   */\n    tag_107:\n        /* \"#utility.yul\":4224:4248   */\n      tag_109\n        /* \"#utility.yul\":4242:4247   */\n      dup2\n        /* \"#utility.yul\":4224:4248   */\n      tag_110\n      jump\t// in\n    tag_109:\n        /* \"#utility.yul\":4219:4222   */\n      dup3\n        /* \"#utility.yul\":4212:4249   */\n      mstore\n        /* \"#utility.yul\":4137:4255   */\n      pop\n      pop\n      jump\t// out\n        /* \"#utility.yul\":4261:4483   */\n    tag_11:\n        /* \"#utility.yul\":4354:4358   */\n      0x00\n        /* \"#utility.yul\":4392:4394   */\n      0x20\n        /* \"#utility.yul\":4381:4390   */\n      dup3\n        /* \"#utility.yul\":4377:4395   */\n      add\n        /* \"#utility.yul\":4369:4395   */\n      swap1\n      pop\n        /* \"#utility.yul\":4405:4476   */\n      tag_112\n        /* \"#utility.yul\":4473:4474   */\n      0x00\n        /* \"#utility.yul\":4462:4471   */\n      dup4\n        /* \"#utility.yul\":4458:4475   */\n      add\n        /* \"#utility.yul\":4449:4455   */\n      dup5\n        /* \"#utility.yul\":4405:4476   */\n      tag_80\n      jump\t// in\n    tag_112:\n        /* \"#utility.yul\":4261:4483   */\n      swap3\n      swap2\n      pop\n      pop\n      jump\t// out\n        /* \"#utility.yul\":4489:4862   */\n    tag_15:\n        /* \"#utility.yul\":4632:4636   */\n      0x00\n        /* \"#utility.yul\":4670:4672   */\n      0x20\n        /* \"#utility.yul\":4659:4668   */\n      dup3\n        /* \"#utility.yul\":4655:4673   */\n      add\n        /* \"#utility.yul\":4647:4673   */\n      swap1\n      pop\n        /* \"#utility.yul\":4719:4728   */\n      dup2\n        /* \"#utility.yul\":4713:4717   */\n      dup2\n        /* \"#utility.yul\":4709:4729   */\n      sub\n        /* \"#utility.yul\":4705:4706   */\n      0x00\n        /* \"#utility.yul\":4694:4703   */\n      dup4\n        /* \"#utility.yul\":4690:4707   */\n      add\n        /* \"#utility.yul\":4683:4730   */\n      mstore\n        /* \"#utility.yul\":4747:4855   */\n      tag_114\n        /* \"#utility.yul\":4850:4854   */\n      dup2\n        /* \"#utility.yul\":4841:4847   */\n      dup5\n        /* \"#utility.yul\":4747:4855   */\n      tag_83\n      jump\t// in\n    tag_114:\n        /* \"#utility.yul\":4739:4855   */\n      swap1\n      pop\n        /* \"#utility.yul\":4489:4862   */\n      swap3\n      swap2\n      pop\n      pop\n      jump\t// out\n        /* \"#utility.yul\":4868:5805   */\n    tag_29:\n        /* \"#utility.yul\":5133:5137   */\n      0x00\n        /* \"#utility.yul\":5171:5174   */\n      0xa0\n        /* \"#utility.yul\":5160:5169   */\n      dup3\n        /* \"#utility.yul\":5156:5175   */\n      add\n        /* \"#utility.yul\":5148:5175   */\n      swap1\n      pop\n        /* \"#utility.yul\":5185:5256   */\n      tag_116\n        /* \"#utility.yul\":5253:5254   */\n      0x00\n        /* \"#utility.yul\":5242:5251   */\n      dup4\n        /* \"#utility.yul\":5238:5255   */\n      add\n        /* \"#utility.yul\":5229:5235   */\n      dup9\n        /* \"#utility.yul\":5185:5256   */\n      tag_107\n      jump\t// in\n    tag_116:\n        /* \"#utility.yul\":5266:5338   */\n      tag_117\n        /* \"#utility.yul\":5334:5336   */\n      0x20\n        /* \"#utility.yul\":5323:5332   */\n      dup4\n        /* \"#utility.yul\":5319:5337   */\n      add\n        /* \"#utility.yul\":5310:5316   */\n      dup8\n        /* \"#utility.yul\":5266:5338   */\n      tag_80\n      jump\t// in\n    tag_117:\n        /* \"#utility.yul\":5385:5394   */\n      dup2\n        /* \"#utility.yul\":5379:5383   */\n      dup2\n        /* \"#utility.yul\":5375:5395   */\n      sub\n        /* \"#utility.yul\":5370:5372   */\n      0x40\n        /* \"#utility.yul\":5359:5368   */\n      dup4\n        /* \"#utility.yul\":5355:5373   */\n      add\n        /* \"#utility.yul\":5348:5396   */\n      mstore\n        /* \"#utility.yul\":5413:5491   */\n      tag_118\n        /* \"#utility.yul\":5486:5490   */\n      dup2\n        /* \"#utility.yul\":5477:5483   */\n      dup7\n        /* \"#utility.yul\":5413:5491   */\n      tag_97\n      jump\t// in\n    tag_118:\n        /* \"#utility.yul\":5405:5491   */\n      swap1\n      pop\n        /* \"#utility.yul\":5538:5547   */\n      dup2\n        /* \"#utility.yul\":5532:5536   */\n      dup2\n        /* \"#utility.yul\":5528:5548   */\n      sub\n        /* \"#utility.yul\":5523:5525   */\n      0x60\n        /* \"#utility.yul\":5512:5521   */\n      dup4\n        /* \"#utility.yul\":5508:5526   */\n      add\n        /* \"#utility.yul\":5501:5549   */\n      mstore\n        /* \"#utility.yul\":5566:5644   */\n      tag_119\n        /* \"#utility.yul\":5639:5643   */\n      dup2\n        /* \"#utility.yul\":5630:5636   */\n      dup6\n        /* \"#utility.yul\":5566:5644   */\n      tag_97\n      jump\t// in\n    tag_119:\n        /* \"#utility.yul\":5558:5644   */\n      swap1\n      pop\n        /* \"#utility.yul\":5692:5701   */\n      dup2\n        /* \"#utility.yul\":5686:5690   */\n      dup2\n        /* \"#utility.yul\":5682:5702   */\n      sub\n        /* \"#utility.yul\":5676:5679   */\n      0x80\n        /* \"#utility.yul\":5665:5674   */\n      dup4\n        /* \"#utility.yul\":5661:5680   */\n      add\n        /* \"#utility.yul\":5654:5703   */\n      mstore\n        /* \"#utility.yul\":5720:5798   */\n      tag_120\n        /* \"#utility.yul\":5793:5797   */\n      dup2\n        /* \"#utility.yul\":5784:5790   */\n      dup5\n        /* \"#utility.yul\":5720:5798   */\n      tag_97\n      jump\t// in\n    tag_120:\n        /* \"#utility.yul\":5712:5798   */\n      swap1\n      pop\n        /* \"#utility.yul\":4868:5805   */\n      swap7\n      swap6\n      pop\n      pop\n      pop\n      pop\n      pop\n      pop\n      jump\t// out\n        /* \"#utility.yul\":5811:5940   */\n    tag_38:\n        /* \"#utility.yul\":5845:5851   */\n      0x00\n        /* \"#utility.yul\":5872:5892   */\n      tag_122\n      tag_123\n      jump\t// in\n    tag_122:\n        /* \"#utility.yul\":5862:5892   */\n      swap1\n      pop\n        /* \"#utility.yul\":5901:5934   */\n      tag_124\n        /* \"#utility.yul\":5929:5933   */\n      dup3\n        /* \"#utility.yul\":5921:5927   */\n      dup3\n        /* \"#utility.yul\":5901:5934   */\n      tag_125\n      jump\t// in\n    tag_124:\n        /* \"#utility.yul\":5811:5940   */\n      swap2\n      swap1\n      pop\n      jump\t// out\n        /* \"#utility.yul\":5946:6021   */\n    tag_123:\n        /* \"#utility.yul\":5979:5985   */\n      0x00\n        /* \"#utility.yul\":6012:6014   */\n      0x40\n        /* \"#utility.yul\":6006:6015   */\n      mload\n        /* \"#utility.yul\":5996:6015   */\n      swap1\n      pop\n        /* \"#utility.yul\":5946:6021   */\n      swap1\n      jump\t// out\n        /* \"#utility.yul\":6027:6335   */\n    tag_37:\n        /* \"#utility.yul\":6089:6093   */\n      0x00\n        /* \"#utility.yul\":6179:6197   */\n      0xffffffffffffffff\n        /* \"#utility.yul\":6171:6177   */\n      dup3\n        /* \"#utility.yul\":6168:6198   */\n      gt\n        /* \"#utility.yul\":6165:6221   */\n      iszero\n      tag_128\n      jumpi\n        /* \"#utility.yul\":6201:6219   */\n      tag_129\n      tag_130\n      jump\t// in\n    tag_129:\n        /* \"#utility.yul\":6165:6221   */\n    tag_128:\n        /* \"#utility.yul\":6239:6268   */\n      tag_131\n        /* \"#utility.yul\":6261:6267   */\n      dup3\n        /* \"#utility.yul\":6239:6268   */\n      tag_106\n      jump\t// in\n    tag_131:\n        /* \"#utility.yul\":6231:6268   */\n      swap1\n      pop\n        /* \"#utility.yul\":6323:6327   */\n      0x20\n        /* \"#utility.yul\":6317:6321   */\n      dup2\n        /* \"#utility.yul\":6313:6328   */\n      add\n        /* \"#utility.yul\":6305:6328   */\n      swap1\n      pop\n        /* \"#utility.yul\":6027:6335   */\n      swap2\n      swap1\n      pop\n      jump\t// out\n        /* \"#utility.yul\":6341:6473   */\n    tag_90:\n        /* \"#utility.yul\":6408:6412   */\n      0x00\n        /* \"#utility.yul\":6431:6434   */\n      dup2\n        /* \"#utility.yul\":6423:6434   */\n      swap1\n      pop\n        /* \"#utility.yul\":6461:6465   */\n      0x20\n        /* \"#utility.yul\":6456:6459   */\n      dup3\n        /* \"#utility.yul\":6452:6466   */\n      add\n        /* \"#utility.yul\":6444:6466   */\n      swap1\n      pop\n        /* \"#utility.yul\":6341:6473   */\n      swap2\n      swap1\n      pop\n      jump\t// out\n        /* \"#utility.yul\":6479:6593   */\n    tag_86:\n        /* \"#utility.yul\":6546:6552   */\n      0x00\n        /* \"#utility.yul\":6580:6585   */\n      dup2\n        /* \"#utility.yul\":6574:6586   */\n      mload\n        /* \"#utility.yul\":6564:6586   */\n      swap1\n      pop\n        /* \"#utility.yul\":6479:6593   */\n      swap2\n      swap1\n      pop\n      jump\t// out\n        /* \"#utility.yul\":6599:6698   */\n    tag_100:\n        /* \"#utility.yul\":6651:6657   */\n      0x00\n        /* \"#utility.yul\":6685:6690   */\n      dup2\n        /* \"#utility.yul\":6679:6691   */\n      mload\n        /* \"#utility.yul\":6669:6691   */\n      swap1\n      pop\n        /* \"#utility.yul\":6599:6698   */\n      swap2\n      swap1\n      pop\n      jump\t// out\n        /* \"#utility.yul\":6704:6817   */\n    tag_96:\n        /* \"#utility.yul\":6774:6778   */\n      0x00\n        /* \"#utility.yul\":6806:6810   */\n      0x20\n        /* \"#utility.yul\":6801:6804   */\n      dup3\n        /* \"#utility.yul\":6797:6811   */\n      add\n        /* \"#utility.yul\":6789:6811   */\n      swap1\n      pop\n        /* \"#utility.yul\":6704:6817   */\n      swap2\n      swap1\n      pop\n      jump\t// out\n        /* \"#utility.yul\":6823:7007   */\n    tag_88:\n        /* \"#utility.yul\":6922:6933   */\n      0x00\n        /* \"#utility.yul\":6956:6962   */\n      dup3\n        /* \"#utility.yul\":6951:6954   */\n      dup3\n        /* \"#utility.yul\":6944:6963   */\n      mstore\n        /* \"#utility.yul\":6996:7000   */\n      0x20\n        /* \"#utility.yul\":6991:6994   */\n      dup3\n        /* \"#utility.yul\":6987:7001   */\n      add\n        /* \"#utility.yul\":6972:7001   */\n      swap1\n      pop\n        /* \"#utility.yul\":6823:7007   */\n      swap3\n      swap2\n      pop\n      pop\n      jump\t// out\n        /* \"#utility.yul\":7013:7182   */\n    tag_102:\n        /* \"#utility.yul\":7097:7108   */\n      0x00\n        /* \"#utility.yul\":7131:7137   */\n      dup3\n        /* \"#utility.yul\":7126:7129   */\n      dup3\n        /* \"#utility.yul\":7119:7138   */\n      mstore\n        /* \"#utility.yul\":7171:7175   */\n      0x20\n        /* \"#utility.yul\":7166:7169   */\n      dup3\n        /* \"#utility.yul\":7162:7176   */\n      add\n        /* \"#utility.yul\":7147:7176   */\n      swap1\n      pop\n        /* \"#utility.yul\":7013:7182   */\n      swap3\n      swap2\n      pop\n      pop\n      jump\t// out\n        /* \"#utility.yul\":7188:7284   */\n    tag_79:\n        /* \"#utility.yul\":7225:7232   */\n      0x00\n        /* \"#utility.yul\":7254:7278   */\n      tag_139\n        /* \"#utility.yul\":7272:7277   */\n      dup3\n        /* \"#utility.yul\":7254:7278   */\n      tag_140\n      jump\t// in\n    tag_139:\n        /* \"#utility.yul\":7243:7278   */\n      swap1\n      pop\n        /* \"#utility.yul\":7188:7284   */\n      swap2\n      swap1\n      pop\n      jump\t// out\n        /* \"#utility.yul\":7290:7416   */\n    tag_140:\n        /* \"#utility.yul\":7327:7334   */\n      0x00\n        /* \"#utility.yul\":7367:7409   */\n      0xffffffffffffffffffffffffffffffffffffffff\n        /* \"#utility.yul\":7360:7365   */\n      dup3\n        /* \"#utility.yul\":7356:7410   */\n      and\n        /* \"#utility.yul\":7345:7410   */\n      swap1\n      pop\n        /* \"#utility.yul\":7290:7416   */\n      swap2\n      swap1\n      pop\n      jump\t// out\n        /* \"#utility.yul\":7422:7499   */\n    tag_110:\n        /* \"#utility.yul\":7459:7466   */\n      0x00\n        /* \"#utility.yul\":7488:7493   */\n      dup2\n        /* \"#utility.yul\":7477:7493   */\n      swap1\n      pop\n        /* \"#utility.yul\":7422:7499   */\n      swap2\n      swap1\n      pop\n      jump\t// out\n        /* \"#utility.yul\":7505:7659   */\n    tag_43:\n        /* \"#utility.yul\":7589:7595   */\n      dup3\n        /* \"#utility.yul\":7584:7587   */\n      dup2\n        /* \"#utility.yul\":7579:7582   */\n      dup4\n        /* \"#utility.yul\":7566:7596   */\n      calldatacopy\n        /* \"#utility.yul\":7651:7652   */\n      0x00\n        /* \"#utility.yul\":7642:7648   */\n      dup4\n        /* \"#utility.yul\":7637:7640   */\n      dup4\n        /* \"#utility.yul\":7633:7649   */\n      add\n        /* \"#utility.yul\":7626:7653   */\n      mstore\n        /* \"#utility.yul\":7505:7659   */\n      pop\n      pop\n      pop\n      jump\t// out\n        /* \"#utility.yul\":7665:7972   */\n    tag_104:\n        /* \"#utility.yul\":7733:7734   */\n      0x00\n        /* \"#utility.yul\":7743:7856   */\n    tag_145:\n        /* \"#utility.yul\":7757:7763   */\n      dup4\n        /* \"#utility.yul\":7754:7755   */\n      dup2\n        /* \"#utility.yul\":7751:7764   */\n      lt\n        /* \"#utility.yul\":7743:7856   */\n      iszero\n      tag_147\n      jumpi\n        /* \"#utility.yul\":7842:7843   */\n      dup1\n        /* \"#utility.yul\":7837:7840   */\n      dup3\n        /* \"#utility.yul\":7833:7844   */\n      add\n        /* \"#utility.yul\":7827:7845   */\n      mload\n        /* \"#utility.yul\":7823:7824   */\n      dup2\n        /* \"#utility.yul\":7818:7821   */\n      dup5\n        /* \"#utility.yul\":7814:7825   */\n      add\n        /* \"#utility.yul\":7807:7846   */\n      mstore\n        /* \"#utility.yul\":7779:7781   */\n      0x20\n        /* \"#utility.yul\":7776:7777   */\n      dup2\n        /* \"#utility.yul\":7772:7782   */\n      add\n        /* \"#utility.yul\":7767:7782   */\n      swap1\n      pop\n        /* \"#utility.yul\":7743:7856   */\n      jump(tag_145)\n    tag_147:\n        /* \"#utility.yul\":7874:7880   */\n      dup4\n        /* \"#utility.yul\":7871:7872   */\n      dup2\n        /* \"#utility.yul\":7868:7881   */\n      gt\n        /* \"#utility.yul\":7865:7966   */\n      iszero\n      tag_148\n      jumpi\n        /* \"#utility.yul\":7954:7955   */\n      0x00\n        /* \"#utility.yul\":7945:7951   */\n      dup5\n        /* \"#utility.yul\":7940:7943   */\n      dup5\n        /* \"#utility.yul\":7936:7952   */\n      add\n        /* \"#utility.yul\":7929:7956   */\n      mstore\n        /* \"#utility.yul\":7865:7966   */\n    tag_148:\n        /* \"#utility.yul\":7714:7972   */\n      pop\n        /* \"#utility.yul\":7665:7972   */\n      pop\n      pop\n      pop\n      jump\t// out\n        /* \"#utility.yul\":7978:8259   */\n    tag_125:\n        /* \"#utility.yul\":8061:8088   */\n      tag_150\n        /* \"#utility.yul\":8083:8087   */\n      dup3\n        /* \"#utility.yul\":8061:8088   */\n      tag_106\n      jump\t// in\n    tag_150:\n        /* \"#utility.yul\":8053:8059   */\n      dup2\n        /* \"#utility.yul\":8049:8089   */\n      add\n        /* \"#utility.yul\":8191:8197   */\n      dup2\n        /* \"#utility.yul\":8179:8189   */\n      dup2\n        /* \"#utility.yul\":8176:8198   */\n      lt\n        /* \"#utility.yul\":8155:8173   */\n      0xffffffffffffffff\n        /* \"#utility.yul\":8143:8153   */\n      dup3\n        /* \"#utility.yul\":8140:8174   */\n      gt\n        /* \"#utility.yul\":8137:8199   */\n      or\n        /* \"#utility.yul\":8134:8222   */\n      iszero\n      tag_151\n      jumpi\n        /* \"#utility.yul\":8202:8220   */\n      tag_152\n      tag_130\n      jump\t// in\n    tag_152:\n        /* \"#utility.yul\":8134:8222   */\n    tag_151:\n        /* \"#utility.yul\":8242:8252   */\n      dup1\n        /* \"#utility.yul\":8238:8240   */\n      0x40\n        /* \"#utility.yul\":8231:8253   */\n      mstore\n        /* \"#utility.yul\":8021:8259   */\n      pop\n        /* \"#utility.yul\":7978:8259   */\n      pop\n      pop\n      jump\t// out\n        /* \"#utility.yul\":8265:8445   */\n    tag_130:\n        /* \"#utility.yul\":8313:8390   */\n      0x4e487b7100000000000000000000000000000000000000000000000000000000\n        /* \"#utility.yul\":8310:8311   */\n      0x00\n        /* \"#utility.yul\":8303:8391   */\n      mstore\n        /* \"#utility.yul\":8410:8414   */\n      0x41\n        /* \"#utility.yul\":8407:8408   */\n      0x04\n        /* \"#utility.yul\":8400:8415   */\n      mstore\n        /* \"#utility.yul\":8434:8438   */\n      0x24\n        /* \"#utility.yul\":8431:8432   */\n      0x00\n        /* \"#utility.yul\":8424:8439   */\n      revert\n        /* \"#utility.yul\":8451:8568   */\n    tag_48:\n        /* \"#utility.yul\":8560:8561   */\n      0x00\n        /* \"#utility.yul\":8557:8558   */\n      dup1\n        /* \"#utility.yul\":8550:8562   */\n      revert\n        /* \"#utility.yul\":8574:8691   */\n    tag_41:\n        /* \"#utility.yul\":8683:8684   */\n      0x00\n        /* \"#utility.yul\":8680:8681   */\n      dup1\n        /* \"#utility.yul\":8673:8685   */\n      revert\n        /* \"#utility.yul\":8697:8814   */\n    tag_65:\n        /* \"#utility.yul\":8806:8807   */\n      0x00\n        /* \"#utility.yul\":8803:8804   */\n      dup1\n        /* \"#utility.yul\":8796:8808   */\n      revert\n        /* \"#utility.yul\":8820:8937   */\n    tag_57:\n        /* \"#utility.yul\":8929:8930   */\n      0x00\n        /* \"#utility.yul\":8926:8927   */\n      dup1\n        /* \"#utility.yul\":8919:8931   */\n      revert\n        /* \"#utility.yul\":8943:9045   */\n    tag_106:\n        /* \"#utility.yul\":8984:8990   */\n      0x00\n        /* \"#utility.yul\":9035:9037   */\n      0x1f\n        /* \"#utility.yul\":9031:9038   */\n      not\n        /* \"#utility.yul\":9026:9028   */\n      0x1f\n        /* \"#utility.yul\":9019:9024   */\n      dup4\n        /* \"#utility.yul\":9015:9029   */\n      add\n        /* \"#utility.yul\":9011:9039   */\n      and\n        /* \"#utility.yul\":9001:9039   */\n      swap1\n      pop\n        /* \"#utility.yul\":8943:9045   */\n      swap2\n      swap1\n      pop\n      jump\t// out\n        /* \"#utility.yul\":9051:9173   */\n    tag_53:\n        /* \"#utility.yul\":9124:9148   */\n      tag_160\n        /* \"#utility.yul\":9142:9147   */\n      dup2\n        /* \"#utility.yul\":9124:9148   */\n      tag_110\n      jump\t// in\n    tag_160:\n        /* \"#utility.yul\":9117:9122   */\n      dup2\n        /* \"#utility.yul\":9114:9149   */\n      eq\n        /* \"#utility.yul\":9104:9167   */\n      tag_161\n      jumpi\n        /* \"#utility.yul\":9163:9164   */\n      0x00\n        /* \"#utility.yul\":9160:9161   */\n      dup1\n        /* \"#utility.yul\":9153:9165   */\n      revert\n        /* \"#utility.yul\":9104:9167   */\n    tag_161:\n        /* \"#utility.yul\":9051:9173   */\n      pop\n      jump\t// out\n    stop\n\n    sub_0: assembly {\n            /* \"Campaign.sol\":578:3518  contract Campaign {... */\n          mstore(0x40, 0x80)\n            /* \"Campaign.sol\":1284:1630  constructor(uint _minimum, address _creator,string memory _campaignName, string memory _campaignDescription, string memory _campaignImage )  {... */\n          callvalue\n          dup1\n          iszero\n          tag_1\n          jumpi\n          0x00\n          dup1\n          revert\n        tag_1:\n          pop\n          mload(0x40)\n          sub(codesize, bytecodeSize)\n          dup1\n          bytecodeSize\n          dup4\n          codecopy\n          dup2\n          dup2\n          add\n          0x40\n          mstore\n          dup2\n          add\n          swap1\n          tag_2\n          swap2\n          swap1\n          tag_3\n          jump\t// in\n        tag_2:\n            /* \"Campaign.sol\":1445:1453  _creator */\n          dup4\n            /* \"Campaign.sol\":1435:1442  manager */\n          0x00\n          dup1\n            /* \"Campaign.sol\":1435:1453  manager = _creator */\n          0x0100\n          exp\n          dup2\n          sload\n          dup2\n          0xffffffffffffffffffffffffffffffffffffffff\n          mul\n          not\n          and\n          swap1\n          dup4\n          0xffffffffffffffffffffffffffffffffffffffff\n          and\n          mul\n          or\n          swap1\n          sstore\n          pop\n            /* \"Campaign.sol\":1485:1493  _minimum */\n          dup5\n            /* \"Campaign.sol\":1463:1482  minimumContribution */\n          0x01\n            /* \"Campaign.sol\":1463:1493  minimumContribution = _minimum */\n          dup2\n          swap1\n          sstore\n          pop\n            /* \"Campaign.sol\":1518:1531  _campaignName */\n          dup3\n            /* \"Campaign.sol\":1503:1515  campaignName */\n          0x02\n            /* \"Campaign.sol\":1503:1531  campaignName = _campaignName */\n          swap1\n          dup1\n          mload\n          swap1\n          0x20\n          add\n          swap1\n          tag_6\n          swap3\n          swap2\n          swap1\n          tag_7\n          jump\t// in\n        tag_6:\n          pop\n            /* \"Campaign.sol\":1563:1583  _campaignDescription */\n          dup2\n            /* \"Campaign.sol\":1541:1560  campaignDescription */\n          0x03\n            /* \"Campaign.sol\":1541:1583  campaignDescription = _campaignDescription */\n          swap1\n          dup1\n          mload\n          swap1\n          0x20\n          add\n          swap1\n          tag_8\n          swap3\n          swap2\n          swap1\n          tag_7\n          jump\t// in\n        tag_8:\n          pop\n            /* \"Campaign.sol\":1609:1623  _campaignImage */\n          dup1\n            /* \"Campaign.sol\":1593:1606  campaignImage */\n          0x04\n            /* \"Campaign.sol\":1593:1623  campaignImage = _campaignImage */\n          swap1\n          dup1\n          mload\n          swap1\n          0x20\n          add\n          swap1\n          tag_9\n          swap3\n          swap2\n          swap1\n          tag_7\n          jump\t// in\n        tag_9:\n          pop\n            /* \"Campaign.sol\":1284:1630  constructor(uint _minimum, address _creator,string memory _campaignName, string memory _campaignDescription, string memory _campaignImage )  {... */\n          pop\n          pop\n          pop\n          pop\n          pop\n            /* \"Campaign.sol\":578:3518  contract Campaign {... */\n          jump(tag_10)\n        tag_7:\n          dup3\n          dup1\n          sload\n          tag_11\n          swap1\n          tag_12\n          jump\t// in\n        tag_11:\n          swap1\n          0x00\n          mstore\n          keccak256(0x00, 0x20)\n          swap1\n          0x1f\n          add\n          0x20\n          swap1\n          div\n          dup2\n          add\n          swap3\n          dup3\n          tag_14\n          jumpi\n          0x00\n          dup6\n          sstore\n          jump(tag_13)\n        tag_14:\n          dup3\n          0x1f\n          lt\n          tag_15\n          jumpi\n          dup1\n          mload\n          not(0xff)\n          and\n          dup4\n          dup1\n          add\n          or\n          dup6\n          sstore\n          jump(tag_13)\n        tag_15:\n          dup3\n          dup1\n          add\n          0x01\n          add\n          dup6\n          sstore\n          dup3\n          iszero\n          tag_13\n          jumpi\n          swap2\n          dup3\n          add\n        tag_16:\n          dup3\n          dup2\n          gt\n          iszero\n          tag_17\n          jumpi\n          dup3\n          mload\n          dup3\n          sstore\n          swap2\n          0x20\n          add\n          swap2\n          swap1\n          0x01\n          add\n          swap1\n          jump(tag_16)\n        tag_17:\n        tag_13:\n          pop\n          swap1\n          pop\n          tag_18\n          swap2\n          swap1\n          tag_19\n          jump\t// in\n        tag_18:\n          pop\n          swap1\n          jump\t// out\n        tag_19:\n        tag_20:\n          dup1\n          dup3\n          gt\n          iszero\n          tag_21\n          jumpi\n          0x00\n          dup2\n          0x00\n          swap1\n          sstore\n          pop\n          0x01\n          add\n          jump(tag_20)\n        tag_21:\n          pop\n          swap1\n          jump\t// out\n            /* \"#utility.yul\":7:428   */\n        tag_23:\n            /* \"#utility.yul\":96:101   */\n          0x00\n            /* \"#utility.yul\":121:187   */\n          tag_25\n            /* \"#utility.yul\":137:186   */\n          tag_26\n            /* \"#utility.yul\":179:185   */\n          dup5\n            /* \"#utility.yul\":137:186   */\n          tag_27\n          jump\t// in\n        tag_26:\n            /* \"#utility.yul\":121:187   */\n          tag_28\n          jump\t// in\n        tag_25:\n            /* \"#utility.yul\":112:187   */\n          swap1\n          pop\n            /* \"#utility.yul\":210:216   */\n          dup3\n            /* \"#utility.yul\":203:208   */\n          dup2\n            /* \"#utility.yul\":196:217   */\n          mstore\n            /* \"#utility.yul\":248:252   */\n          0x20\n            /* \"#utility.yul\":241:246   */\n          dup2\n            /* \"#utility.yul\":237:253   */\n          add\n            /* \"#utility.yul\":286:289   */\n          dup5\n            /* \"#utility.yul\":277:283   */\n          dup5\n            /* \"#utility.yul\":272:275   */\n          dup5\n            /* \"#utility.yul\":268:284   */\n          add\n            /* \"#utility.yul\":265:290   */\n          gt\n            /* \"#utility.yul\":262:374   */\n          iszero\n          tag_29\n          jumpi\n            /* \"#utility.yul\":293:372   */\n          tag_30\n          tag_31\n          jump\t// in\n        tag_30:\n            /* \"#utility.yul\":262:374   */\n        tag_29:\n            /* \"#utility.yul\":383:422   */\n          tag_32\n            /* \"#utility.yul\":415:421   */\n          dup5\n            /* \"#utility.yul\":410:413   */\n          dup3\n            /* \"#utility.yul\":405:408   */\n          dup6\n            /* \"#utility.yul\":383:422   */\n          tag_33\n          jump\t// in\n        tag_32:\n            /* \"#utility.yul\":102:428   */\n          pop\n            /* \"#utility.yul\":7:428   */\n          swap4\n          swap3\n          pop\n          pop\n          pop\n          jump\t// out\n            /* \"#utility.yul\":434:577   */\n        tag_34:\n            /* \"#utility.yul\":491:496   */\n          0x00\n            /* \"#utility.yul\":522:528   */\n          dup2\n            /* \"#utility.yul\":516:529   */\n          mload\n            /* \"#utility.yul\":507:529   */\n          swap1\n          pop\n            /* \"#utility.yul\":538:571   */\n          tag_36\n            /* \"#utility.yul\":565:570   */\n          dup2\n            /* \"#utility.yul\":538:571   */\n          tag_37\n          jump\t// in\n        tag_36:\n            /* \"#utility.yul\":434:577   */\n          swap3\n          swap2\n          pop\n          pop\n          jump\t// out\n            /* \"#utility.yul\":597:952   */\n        tag_38:\n            /* \"#utility.yul\":664:669   */\n          0x00\n            /* \"#utility.yul\":713:716   */\n          dup3\n            /* \"#utility.yul\":706:710   */\n          0x1f\n            /* \"#utility.yul\":698:704   */\n          dup4\n            /* \"#utility.yul\":694:711   */\n          add\n            /* \"#utility.yul\":690:717   */\n          slt\n            /* \"#utility.yul\":680:802   */\n          tag_40\n          jumpi\n            /* \"#utility.yul\":721:800   */\n          tag_41\n          tag_42\n          jump\t// in\n        tag_41:\n            /* \"#utility.yul\":680:802   */\n        tag_40:\n            /* \"#utility.yul\":831:837   */\n          dup2\n            /* \"#utility.yul\":825:838   */\n          mload\n            /* \"#utility.yul\":856:946   */\n          tag_43\n            /* \"#utility.yul\":942:945   */\n          dup5\n            /* \"#utility.yul\":934:940   */\n          dup3\n            /* \"#utility.yul\":927:931   */\n          0x20\n            /* \"#utility.yul\":919:925   */\n          dup7\n            /* \"#utility.yul\":915:932   */\n          add\n            /* \"#utility.yul\":856:946   */\n          tag_23\n          jump\t// in\n        tag_43:\n            /* \"#utility.yul\":847:946   */\n          swap2\n          pop\n            /* \"#utility.yul\":670:952   */\n          pop\n            /* \"#utility.yul\":597:952   */\n          swap3\n          swap2\n          pop\n          pop\n          jump\t// out\n            /* \"#utility.yul\":958:1101   */\n        tag_44:\n            /* \"#utility.yul\":1015:1020   */\n          0x00\n            /* \"#utility.yul\":1046:1052   */\n          dup2\n            /* \"#utility.yul\":1040:1053   */\n          mload\n            /* \"#utility.yul\":1031:1053   */\n          swap1\n          pop\n            /* \"#utility.yul\":1062:1095   */\n          tag_46\n            /* \"#utility.yul\":1089:1094   */\n          dup2\n            /* \"#utility.yul\":1062:1095   */\n          tag_47\n          jump\t// in\n        tag_46:\n            /* \"#utility.yul\":958:1101   */\n          swap3\n          swap2\n          pop\n          pop\n          jump\t// out\n            /* \"#utility.yul\":1107:2603   */\n        tag_3:\n            /* \"#utility.yul\":1243:1249   */\n          0x00\n            /* \"#utility.yul\":1251:1257   */\n          dup1\n            /* \"#utility.yul\":1259:1265   */\n          0x00\n            /* \"#utility.yul\":1267:1273   */\n          dup1\n            /* \"#utility.yul\":1275:1281   */\n          0x00\n            /* \"#utility.yul\":1324:1327   */\n          0xa0\n            /* \"#utility.yul\":1312:1321   */\n          dup7\n            /* \"#utility.yul\":1303:1310   */\n          dup9\n            /* \"#utility.yul\":1299:1322   */\n          sub\n            /* \"#utility.yul\":1295:1328   */\n          slt\n            /* \"#utility.yul\":1292:1412   */\n          iszero\n          tag_49\n          jumpi\n            /* \"#utility.yul\":1331:1410   */\n          tag_50\n          tag_51\n          jump\t// in\n        tag_50:\n            /* \"#utility.yul\":1292:1412   */\n        tag_49:\n            /* \"#utility.yul\":1451:1452   */\n          0x00\n            /* \"#utility.yul\":1476:1540   */\n          tag_52\n            /* \"#utility.yul\":1532:1539   */\n          dup9\n            /* \"#utility.yul\":1523:1529   */\n          dup3\n            /* \"#utility.yul\":1512:1521   */\n          dup10\n            /* \"#utility.yul\":1508:1530   */\n          add\n            /* \"#utility.yul\":1476:1540   */\n          tag_44\n          jump\t// in\n        tag_52:\n            /* \"#utility.yul\":1466:1540   */\n          swap6\n          pop\n            /* \"#utility.yul\":1422:1550   */\n          pop\n            /* \"#utility.yul\":1589:1591   */\n          0x20\n            /* \"#utility.yul\":1615:1679   */\n          tag_53\n            /* \"#utility.yul\":1671:1678   */\n          dup9\n            /* \"#utility.yul\":1662:1668   */\n          dup3\n            /* \"#utility.yul\":1651:1660   */\n          dup10\n            /* \"#utility.yul\":1647:1669   */\n          add\n            /* \"#utility.yul\":1615:1679   */\n          tag_34\n          jump\t// in\n        tag_53:\n            /* \"#utility.yul\":1605:1679   */\n          swap5\n          pop\n            /* \"#utility.yul\":1560:1689   */\n          pop\n            /* \"#utility.yul\":1749:1751   */\n          0x40\n            /* \"#utility.yul\":1738:1747   */\n          dup7\n            /* \"#utility.yul\":1734:1752   */\n          add\n            /* \"#utility.yul\":1728:1753   */\n          mload\n            /* \"#utility.yul\":1780:1798   */\n          0xffffffffffffffff\n            /* \"#utility.yul\":1772:1778   */\n          dup2\n            /* \"#utility.yul\":1769:1799   */\n          gt\n            /* \"#utility.yul\":1766:1883   */\n          iszero\n          tag_54\n          jumpi\n            /* \"#utility.yul\":1802:1881   */\n          tag_55\n          tag_56\n          jump\t// in\n        tag_55:\n            /* \"#utility.yul\":1766:1883   */\n        tag_54:\n            /* \"#utility.yul\":1907:1981   */\n          tag_57\n            /* \"#utility.yul\":1973:1980   */\n          dup9\n            /* \"#utility.yul\":1964:1970   */\n          dup3\n            /* \"#utility.yul\":1953:1962   */\n          dup10\n            /* \"#utility.yul\":1949:1971   */\n          add\n            /* \"#utility.yul\":1907:1981   */\n          tag_38\n          jump\t// in\n        tag_57:\n            /* \"#utility.yul\":1897:1981   */\n          swap4\n          pop\n            /* \"#utility.yul\":1699:1991   */\n          pop\n            /* \"#utility.yul\":2051:2053   */\n          0x60\n            /* \"#utility.yul\":2040:2049   */\n          dup7\n            /* \"#utility.yul\":2036:2054   */\n          add\n            /* \"#utility.yul\":2030:2055   */\n          mload\n            /* \"#utility.yul\":2082:2100   */\n          0xffffffffffffffff\n            /* \"#utility.yul\":2074:2080   */\n          dup2\n            /* \"#utility.yul\":2071:2101   */\n          gt\n            /* \"#utility.yul\":2068:2185   */\n          iszero\n          tag_58\n          jumpi\n            /* \"#utility.yul\":2104:2183   */\n          tag_59\n          tag_56\n          jump\t// in\n        tag_59:\n            /* \"#utility.yul\":2068:2185   */\n        tag_58:\n            /* \"#utility.yul\":2209:2283   */\n          tag_60\n            /* \"#utility.yul\":2275:2282   */\n          dup9\n            /* \"#utility.yul\":2266:2272   */\n          dup3\n            /* \"#utility.yul\":2255:2264   */\n          dup10\n            /* \"#utility.yul\":2251:2273   */\n          add\n            /* \"#utility.yul\":2209:2283   */\n          tag_38\n          jump\t// in\n        tag_60:\n            /* \"#utility.yul\":2199:2283   */\n          swap3\n          pop\n            /* \"#utility.yul\":2001:2293   */\n          pop\n            /* \"#utility.yul\":2353:2356   */\n          0x80\n            /* \"#utility.yul\":2342:2351   */\n          dup7\n            /* \"#utility.yul\":2338:2357   */\n          add\n            /* \"#utility.yul\":2332:2358   */\n          mload\n            /* \"#utility.yul\":2385:2403   */\n          0xffffffffffffffff\n            /* \"#utility.yul\":2377:2383   */\n          dup2\n            /* \"#utility.yul\":2374:2404   */\n          gt\n            /* \"#utility.yul\":2371:2488   */\n          iszero\n          tag_61\n          jumpi\n            /* \"#utility.yul\":2407:2486   */\n          tag_62\n          tag_56\n          jump\t// in\n        tag_62:\n            /* \"#utility.yul\":2371:2488   */\n        tag_61:\n            /* \"#utility.yul\":2512:2586   */\n          tag_63\n            /* \"#utility.yul\":2578:2585   */\n          dup9\n            /* \"#utility.yul\":2569:2575   */\n          dup3\n            /* \"#utility.yul\":2558:2567   */\n          dup10\n            /* \"#utility.yul\":2554:2576   */\n          add\n            /* \"#utility.yul\":2512:2586   */\n          tag_38\n          jump\t// in\n        tag_63:\n            /* \"#utility.yul\":2502:2586   */\n          swap2\n          pop\n            /* \"#utility.yul\":2303:2596   */\n          pop\n            /* \"#utility.yul\":1107:2603   */\n          swap3\n          swap6\n          pop\n          swap3\n          swap6\n          swap1\n          swap4\n          pop\n          jump\t// out\n            /* \"#utility.yul\":2609:2738   */\n        tag_28:\n            /* \"#utility.yul\":2643:2649   */\n          0x00\n            /* \"#utility.yul\":2670:2690   */\n          tag_65\n          tag_66\n          jump\t// in\n        tag_65:\n            /* \"#utility.yul\":2660:2690   */\n          swap1\n          pop\n            /* \"#utility.yul\":2699:2732   */\n          tag_67\n            /* \"#utility.yul\":2727:2731   */\n          dup3\n            /* \"#utility.yul\":2719:2725   */\n          dup3\n            /* \"#utility.yul\":2699:2732   */\n          tag_68\n          jump\t// in\n        tag_67:\n            /* \"#utility.yul\":2609:2738   */\n          swap2\n          swap1\n          pop\n          jump\t// out\n            /* \"#utility.yul\":2744:2819   */\n        tag_66:\n            /* \"#utility.yul\":2777:2783   */\n          0x00\n            /* \"#utility.yul\":2810:2812   */\n          0x40\n            /* \"#utility.yul\":2804:2813   */\n          mload\n            /* \"#utility.yul\":2794:2813   */\n          swap1\n          pop\n            /* \"#utility.yul\":2744:2819   */\n          swap1\n          jump\t// out\n            /* \"#utility.yul\":2825:3133   */\n        tag_27:\n            /* \"#utility.yul\":2887:2891   */\n          0x00\n            /* \"#utility.yul\":2977:2995   */\n          0xffffffffffffffff\n            /* \"#utility.yul\":2969:2975   */\n          dup3\n            /* \"#utility.yul\":2966:2996   */\n          gt\n            /* \"#utility.yul\":2963:3019   */\n          iszero\n          tag_71\n          jumpi\n            /* \"#utility.yul\":2999:3017   */\n          tag_72\n          tag_73\n          jump\t// in\n        tag_72:\n            /* \"#utility.yul\":2963:3019   */\n        tag_71:\n            /* \"#utility.yul\":3037:3066   */\n          tag_74\n            /* \"#utility.yul\":3059:3065   */\n          dup3\n            /* \"#utility.yul\":3037:3066   */\n          tag_75\n          jump\t// in\n        tag_74:\n            /* \"#utility.yul\":3029:3066   */\n          swap1\n          pop\n            /* \"#utility.yul\":3121:3125   */\n          0x20\n            /* \"#utility.yul\":3115:3119   */\n          dup2\n            /* \"#utility.yul\":3111:3126   */\n          add\n            /* \"#utility.yul\":3103:3126   */\n          swap1\n          pop\n            /* \"#utility.yul\":2825:3133   */\n          swap2\n          swap1\n          pop\n          jump\t// out\n            /* \"#utility.yul\":3139:3235   */\n        tag_76:\n            /* \"#utility.yul\":3176:3183   */\n          0x00\n            /* \"#utility.yul\":3205:3229   */\n          tag_78\n            /* \"#utility.yul\":3223:3228   */\n          dup3\n            /* \"#utility.yul\":3205:3229   */\n          tag_79\n          jump\t// in\n        tag_78:\n            /* \"#utility.yul\":3194:3229   */\n          swap1\n          pop\n            /* \"#utility.yul\":3139:3235   */\n          swap2\n          swap1\n          pop\n          jump\t// out\n            /* \"#utility.yul\":3241:3367   */\n        tag_79:\n            /* \"#utility.yul\":3278:3285   */\n          0x00\n            /* \"#utility.yul\":3318:3360   */\n          0xffffffffffffffffffffffffffffffffffffffff\n            /* \"#utility.yul\":3311:3316   */\n          dup3\n            /* \"#utility.yul\":3307:3361   */\n          and\n            /* \"#utility.yul\":3296:3361   */\n          swap1\n          pop\n            /* \"#utility.yul\":3241:3367   */\n          swap2\n          swap1\n          pop\n          jump\t// out\n            /* \"#utility.yul\":3373:3450   */\n        tag_81:\n            /* \"#utility.yul\":3410:3417   */\n          0x00\n            /* \"#utility.yul\":3439:3444   */\n          dup2\n            /* \"#utility.yul\":3428:3444   */\n          swap1\n          pop\n            /* \"#utility.yul\":3373:3450   */\n          swap2\n          swap1\n          pop\n          jump\t// out\n            /* \"#utility.yul\":3456:3763   */\n        tag_33:\n            /* \"#utility.yul\":3524:3525   */\n          0x00\n            /* \"#utility.yul\":3534:3647   */\n        tag_84:\n            /* \"#utility.yul\":3548:3554   */\n          dup4\n            /* \"#utility.yul\":3545:3546   */\n          dup2\n            /* \"#utility.yul\":3542:3555   */\n          lt\n            /* \"#utility.yul\":3534:3647   */\n          iszero\n          tag_86\n          jumpi\n            /* \"#utility.yul\":3633:3634   */\n          dup1\n            /* \"#utility.yul\":3628:3631   */\n          dup3\n            /* \"#utility.yul\":3624:3635   */\n          add\n            /* \"#utility.yul\":3618:3636   */\n          mload\n            /* \"#utility.yul\":3614:3615   */\n          dup2\n            /* \"#utility.yul\":3609:3612   */\n          dup5\n            /* \"#utility.yul\":3605:3616   */\n          add\n            /* \"#utility.yul\":3598:3637   */\n          mstore\n            /* \"#utility.yul\":3570:3572   */\n          0x20\n            /* \"#utility.yul\":3567:3568   */\n          dup2\n            /* \"#utility.yul\":3563:3573   */\n          add\n            /* \"#utility.yul\":3558:3573   */\n          swap1\n          pop\n            /* \"#utility.yul\":3534:3647   */\n          jump(tag_84)\n        tag_86:\n            /* \"#utility.yul\":3665:3671   */\n          dup4\n            /* \"#utility.yul\":3662:3663   */\n          dup2\n            /* \"#utility.yul\":3659:3672   */\n          gt\n            /* \"#utility.yul\":3656:3757   */\n          iszero\n          tag_87\n          jumpi\n            /* \"#utility.yul\":3745:3746   */\n          0x00\n            /* \"#utility.yul\":3736:3742   */\n          dup5\n            /* \"#utility.yul\":3731:3734   */\n          dup5\n            /* \"#utility.yul\":3727:3743   */\n          add\n            /* \"#utility.yul\":3720:3747   */\n          mstore\n            /* \"#utility.yul\":3656:3757   */\n        tag_87:\n            /* \"#utility.yul\":3505:3763   */\n          pop\n            /* \"#utility.yul\":3456:3763   */\n          pop\n          pop\n          pop\n          jump\t// out\n            /* \"#utility.yul\":3769:4089   */\n        tag_12:\n            /* \"#utility.yul\":3813:3819   */\n          0x00\n            /* \"#utility.yul\":3850:3851   */\n          0x02\n            /* \"#utility.yul\":3844:3848   */\n          dup3\n            /* \"#utility.yul\":3840:3852   */\n          div\n            /* \"#utility.yul\":3830:3852   */\n          swap1\n          pop\n            /* \"#utility.yul\":3897:3898   */\n          0x01\n            /* \"#utility.yul\":3891:3895   */\n          dup3\n            /* \"#utility.yul\":3887:3899   */\n          and\n            /* \"#utility.yul\":3918:3936   */\n          dup1\n            /* \"#utility.yul\":3908:3989   */\n          tag_89\n          jumpi\n            /* \"#utility.yul\":3974:3978   */\n          0x7f\n            /* \"#utility.yul\":3966:3972   */\n          dup3\n            /* \"#utility.yul\":3962:3979   */\n          and\n            /* \"#utility.yul\":3952:3979   */\n          swap2\n          pop\n            /* \"#utility.yul\":3908:3989   */\n        tag_89:\n            /* \"#utility.yul\":4036:4038   */\n          0x20\n            /* \"#utility.yul\":4028:4034   */\n          dup3\n            /* \"#utility.yul\":4025:4039   */\n          lt\n            /* \"#utility.yul\":4005:4023   */\n          dup2\n            /* \"#utility.yul\":4002:4040   */\n          eq\n            /* \"#utility.yul\":3999:4083   */\n          iszero\n          tag_90\n          jumpi\n            /* \"#utility.yul\":4055:4073   */\n          tag_91\n          tag_92\n          jump\t// in\n        tag_91:\n            /* \"#utility.yul\":3999:4083   */\n        tag_90:\n            /* \"#utility.yul\":3820:4089   */\n          pop\n            /* \"#utility.yul\":3769:4089   */\n          swap2\n          swap1\n          pop\n          jump\t// out\n            /* \"#utility.yul\":4095:4376   */\n        tag_68:\n            /* \"#utility.yul\":4178:4205   */\n          tag_94\n            /* \"#utility.yul\":4200:4204   */\n          dup3\n            /* \"#utility.yul\":4178:4205   */\n          tag_75\n          jump\t// in\n        tag_94:\n            /* \"#utility.yul\":4170:4176   */\n          dup2\n            /* \"#utility.yul\":4166:4206   */\n          add\n            /* \"#utility.yul\":4308:4314   */\n          dup2\n            /* \"#utility.yul\":4296:4306   */\n          dup2\n            /* \"#utility.yul\":4293:4315   */\n          lt\n            /* \"#utility.yul\":4272:4290   */\n          0xffffffffffffffff\n            /* \"#utility.yul\":4260:4270   */\n          dup3\n            /* \"#utility.yul\":4257:4291   */\n          gt\n            /* \"#utility.yul\":4254:4316   */\n          or\n            /* \"#utility.yul\":4251:4339   */\n          iszero\n          tag_95\n          jumpi\n            /* \"#utility.yul\":4319:4337   */\n          tag_96\n          tag_73\n          jump\t// in\n        tag_96:\n            /* \"#utility.yul\":4251:4339   */\n        tag_95:\n            /* \"#utility.yul\":4359:4369   */\n          dup1\n            /* \"#utility.yul\":4355:4357   */\n          0x40\n            /* \"#utility.yul\":4348:4370   */\n          mstore\n            /* \"#utility.yul\":4138:4376   */\n          pop\n            /* \"#utility.yul\":4095:4376   */\n          pop\n          pop\n          jump\t// out\n            /* \"#utility.yul\":4382:4562   */\n        tag_92:\n            /* \"#utility.yul\":4430:4507   */\n          0x4e487b7100000000000000000000000000000000000000000000000000000000\n            /* \"#utility.yul\":4427:4428   */\n          0x00\n            /* \"#utility.yul\":4420:4508   */\n          mstore\n            /* \"#utility.yul\":4527:4531   */\n          0x22\n            /* \"#utility.yul\":4524:4525   */\n          0x04\n            /* \"#utility.yul\":4517:4532   */\n          mstore\n            /* \"#utility.yul\":4551:4555   */\n          0x24\n            /* \"#utility.yul\":4548:4549   */\n          0x00\n            /* \"#utility.yul\":4541:4556   */\n          revert\n            /* \"#utility.yul\":4568:4748   */\n        tag_73:\n            /* \"#utility.yul\":4616:4693   */\n          0x4e487b7100000000000000000000000000000000000000000000000000000000\n            /* \"#utility.yul\":4613:4614   */\n          0x00\n            /* \"#utility.yul\":4606:4694   */\n          mstore\n            /* \"#utility.yul\":4713:4717   */\n          0x41\n            /* \"#utility.yul\":4710:4711   */\n          0x04\n            /* \"#utility.yul\":4703:4718   */\n          mstore\n            /* \"#utility.yul\":4737:4741   */\n          0x24\n            /* \"#utility.yul\":4734:4735   */\n          0x00\n            /* \"#utility.yul\":4727:4742   */\n          revert\n            /* \"#utility.yul\":4754:4871   */\n        tag_42:\n            /* \"#utility.yul\":4863:4864   */\n          0x00\n            /* \"#utility.yul\":4860:4861   */\n          dup1\n            /* \"#utility.yul\":4853:4865   */\n          revert\n            /* \"#utility.yul\":4877:4994   */\n        tag_31:\n            /* \"#utility.yul\":4986:4987   */\n          0x00\n            /* \"#utility.yul\":4983:4984   */\n          dup1\n            /* \"#utility.yul\":4976:4988   */\n          revert\n            /* \"#utility.yul\":5000:5117   */\n        tag_56:\n            /* \"#utility.yul\":5109:5110   */\n          0x00\n            /* \"#utility.yul\":5106:5107   */\n          dup1\n            /* \"#utility.yul\":5099:5111   */\n          revert\n            /* \"#utility.yul\":5123:5240   */\n        tag_51:\n            /* \"#utility.yul\":5232:5233   */\n          0x00\n            /* \"#utility.yul\":5229:5230   */\n          dup1\n            /* \"#utility.yul\":5222:5234   */\n          revert\n            /* \"#utility.yul\":5246:5348   */\n        tag_75:\n            /* \"#utility.yul\":5287:5293   */\n          0x00\n            /* \"#utility.yul\":5338:5340   */\n          0x1f\n            /* \"#utility.yul\":5334:5341   */\n          not\n            /* \"#utility.yul\":5329:5331   */\n          0x1f\n            /* \"#utility.yul\":5322:5327   */\n          dup4\n            /* \"#utility.yul\":5318:5332   */\n          add\n            /* \"#utility.yul\":5314:5342   */\n          and\n            /* \"#utility.yul\":5304:5342   */\n          swap1\n          pop\n            /* \"#utility.yul\":5246:5348   */\n          swap2\n          swap1\n          pop\n          jump\t// out\n            /* \"#utility.yul\":5354:5476   */\n        tag_37:\n            /* \"#utility.yul\":5427:5451   */\n          tag_105\n            /* \"#utility.yul\":5445:5450   */\n          dup2\n            /* \"#utility.yul\":5427:5451   */\n          tag_76\n          jump\t// in\n        tag_105:\n            /* \"#utility.yul\":5420:5425   */\n          dup2\n            /* \"#utility.yul\":5417:5452   */\n          eq\n            /* \"#utility.yul\":5407:5470   */\n          tag_106\n          jumpi\n            /* \"#utility.yul\":5466:5467   */\n          0x00\n            /* \"#utility.yul\":5463:5464   */\n          dup1\n            /* \"#utility.yul\":5456:5468   */\n          revert\n            /* \"#utility.yul\":5407:5470   */\n        tag_106:\n            /* \"#utility.yul\":5354:5476   */\n          pop\n          jump\t// out\n            /* \"#utility.yul\":5482:5604   */\n        tag_47:\n            /* \"#utility.yul\":5555:5579   */\n          tag_108\n            /* \"#utility.yul\":5573:5578   */\n          dup2\n            /* \"#utility.yul\":5555:5579   */\n          tag_81\n          jump\t// in\n        tag_108:\n            /* \"#utility.yul\":5548:5553   */\n          dup2\n            /* \"#utility.yul\":5545:5580   */\n          eq\n            /* \"#utility.yul\":5535:5598   */\n          tag_109\n          jumpi\n            /* \"#utility.yul\":5594:5595   */\n          0x00\n            /* \"#utility.yul\":5591:5592   */\n          dup1\n            /* \"#utility.yul\":5584:5596   */\n          revert\n            /* \"#utility.yul\":5535:5598   */\n        tag_109:\n            /* \"#utility.yul\":5482:5604   */\n          pop\n          jump\t// out\n            /* \"Campaign.sol\":578:3518  contract Campaign {... */\n        tag_10:\n          dataSize(sub_0)\n          dup1\n          dataOffset(sub_0)\n          0x00\n          codecopy\n          0x00\n          return\n        stop\n\n        sub_0: assembly {\n                /* \"Campaign.sol\":578:3518  contract Campaign {... */\n              mstore(0x40, 0x80)\n              jumpi(tag_1, lt(calldatasize, 0x04))\n              shr(0xe0, calldataload(0x00))\n              dup1\n              0x7e509220\n              gt\n              tag_16\n              jumpi\n              dup1\n              0x8a9cfd55\n              gt\n              tag_17\n              jumpi\n              dup1\n              0x8a9cfd55\n              eq\n              tag_12\n              jumpi\n              dup1\n              0x937e09b1\n              eq\n              tag_13\n              jumpi\n              dup1\n              0xd7bb99ba\n              eq\n              tag_14\n              jumpi\n              dup1\n              0xd7d1bbdb\n              eq\n              tag_15\n              jumpi\n              jump(tag_1)\n            tag_17:\n              dup1\n              0x7e509220\n              eq\n              tag_9\n              jumpi\n              dup1\n              0x81d12c58\n              eq\n              tag_10\n              jumpi\n              dup1\n              0x82fde093\n              eq\n              tag_11\n              jumpi\n              jump(tag_1)\n            tag_16:\n              dup1\n              0x110842cb\n              gt\n              tag_18\n              jumpi\n              dup1\n              0x110842cb\n              eq\n              tag_5\n              jumpi\n              dup1\n              0x3410452a\n              eq\n              tag_6\n              jumpi\n              dup1\n              0x4051ddac\n              eq\n              tag_7\n              jumpi\n              dup1\n              0x481c6a75\n              eq\n              tag_8\n              jumpi\n              jump(tag_1)\n            tag_18:\n              dup1\n              0x03441006\n              eq\n              tag_2\n              jumpi\n              dup1\n              0x0724fda9\n              eq\n              tag_3\n              jumpi\n              dup1\n              0x0a144391\n              eq\n              tag_4\n              jumpi\n            tag_1:\n              0x00\n              dup1\n              revert\n                /* \"Campaign.sol\":2632:3028  function finalizeRequest(uint _index) public restricted {... */\n            tag_2:\n              callvalue\n              dup1\n              iszero\n              tag_19\n              jumpi\n              0x00\n              dup1\n              revert\n            tag_19:\n              pop\n              tag_20\n              0x04\n              dup1\n              calldatasize\n              sub\n              dup2\n              add\n              swap1\n              tag_21\n              swap2\n              swap1\n              tag_22\n              jump\t// in\n            tag_21:\n              tag_23\n              jump\t// in\n            tag_20:\n              stop\n                /* \"Campaign.sol\":1026:1052  string public campaignName */\n            tag_3:\n              callvalue\n              dup1\n              iszero\n              tag_24\n              jumpi\n              0x00\n              dup1\n              revert\n            tag_24:\n              pop\n              tag_25\n              tag_26\n              jump\t// in\n            tag_25:\n              mload(0x40)\n              tag_27\n              swap2\n              swap1\n              tag_28\n              jump\t// in\n            tag_27:\n              mload(0x40)\n              dup1\n              swap2\n              sub\n              swap1\n              return\n                /* \"Campaign.sol\":1130:1171  mapping(address => bool) public approvers */\n            tag_4:\n              callvalue\n              dup1\n              iszero\n              tag_29\n              jumpi\n              0x00\n              dup1\n              revert\n            tag_29:\n              pop\n              tag_30\n              0x04\n              dup1\n              calldatasize\n              sub\n              dup2\n              add\n              swap1\n              tag_31\n              swap2\n              swap1\n              tag_32\n              jump\t// in\n            tag_31:\n              tag_33\n              jump\t// in\n            tag_30:\n              mload(0x40)\n              tag_34\n              swap2\n              swap1\n              tag_35\n              jump\t// in\n            tag_34:\n              mload(0x40)\n              dup1\n              swap2\n              sub\n              swap1\n              return\n                /* \"Campaign.sol\":1058:1091  string public campaignDescription */\n            tag_5:\n              callvalue\n              dup1\n              iszero\n              tag_36\n              jumpi\n              0x00\n              dup1\n              revert\n            tag_36:\n              pop\n              tag_37\n              tag_38\n              jump\t// in\n            tag_37:\n              mload(0x40)\n              tag_39\n              swap2\n              swap1\n              tag_28\n              jump\t// in\n            tag_39:\n              mload(0x40)\n              dup1\n              swap2\n              sub\n              swap1\n              return\n                /* \"Campaign.sol\":3421:3511  function getRequestsCount() public view returns (uint) {... */\n            tag_6:\n              callvalue\n              dup1\n              iszero\n              tag_40\n              jumpi\n              0x00\n              dup1\n              revert\n            tag_40:\n              pop\n              tag_41\n              tag_42\n              jump\t// in\n            tag_41:\n              mload(0x40)\n              tag_43\n              swap2\n              swap1\n              tag_44\n              jump\t// in\n            tag_43:\n              mload(0x40)\n              dup1\n              swap2\n              sub\n              swap1\n              return\n                /* \"Campaign.sol\":3038:3415  function getSummary() public view returns (uint,uint,uint,uint, address,string memory,string memory,string memory) {... */\n            tag_7:\n              callvalue\n              dup1\n              iszero\n              tag_45\n              jumpi\n              0x00\n              dup1\n              revert\n            tag_45:\n              pop\n              tag_46\n              tag_47\n              jump\t// in\n            tag_46:\n              mload(0x40)\n              tag_48\n              swap9\n              swap8\n              swap7\n              swap6\n              swap5\n              swap4\n              swap3\n              swap2\n              swap1\n              tag_49\n              jump\t// in\n            tag_48:\n              mload(0x40)\n              dup1\n              swap2\n              sub\n              swap1\n              return\n                /* \"Campaign.sol\":961:983  address public manager */\n            tag_8:\n              callvalue\n              dup1\n              iszero\n              tag_50\n              jumpi\n              0x00\n              dup1\n              revert\n            tag_50:\n              pop\n              tag_51\n              tag_52\n              jump\t// in\n            tag_51:\n              mload(0x40)\n              tag_53\n              swap2\n              swap1\n              tag_54\n              jump\t// in\n            tag_53:\n              mload(0x40)\n              dup1\n              swap2\n              sub\n              swap1\n              return\n                /* \"Campaign.sol\":1097:1124  string public campaignImage */\n            tag_9:\n              callvalue\n              dup1\n              iszero\n              tag_55\n              jumpi\n              0x00\n              dup1\n              revert\n            tag_55:\n              pop\n              tag_56\n              tag_57\n              jump\t// in\n            tag_56:\n              mload(0x40)\n              tag_58\n              swap2\n              swap1\n              tag_28\n              jump\t// in\n            tag_58:\n              mload(0x40)\n              dup1\n              swap2\n              sub\n              swap1\n              return\n                /* \"Campaign.sol\":1200:1241  mapping (uint => Request) public requests */\n            tag_10:\n              callvalue\n              dup1\n              iszero\n              tag_59\n              jumpi\n              0x00\n              dup1\n              revert\n            tag_59:\n              pop\n              tag_60\n              0x04\n              dup1\n              calldatasize\n              sub\n              dup2\n              add\n              swap1\n              tag_61\n              swap2\n              swap1\n              tag_22\n              jump\t// in\n            tag_61:\n              tag_62\n              jump\t// in\n            tag_60:\n              mload(0x40)\n              tag_63\n              swap6\n              swap5\n              swap4\n              swap3\n              swap2\n              swap1\n              tag_64\n              jump\t// in\n            tag_63:\n              mload(0x40)\n              dup1\n              swap2\n              sub\n              swap1\n              return\n                /* \"Campaign.sol\":1247:1273  uint public approversCount */\n            tag_11:\n              callvalue\n              dup1\n              iszero\n              tag_65\n              jumpi\n              0x00\n              dup1\n              revert\n            tag_65:\n              pop\n              tag_66\n              tag_67\n              jump\t// in\n            tag_66:\n              mload(0x40)\n              tag_68\n              swap2\n              swap1\n              tag_44\n              jump\t// in\n            tag_68:\n              mload(0x40)\n              dup1\n              swap2\n              sub\n              swap1\n              return\n                /* \"Campaign.sol\":1836:2260  function createRequest(string memory  _description, uint  _value, address payable  _recipient)  public  restricted {... */\n            tag_12:\n              callvalue\n              dup1\n              iszero\n              tag_69\n              jumpi\n              0x00\n              dup1\n              revert\n            tag_69:\n              pop\n              tag_70\n              0x04\n              dup1\n              calldatasize\n              sub\n              dup2\n              add\n              swap1\n              tag_71\n              swap2\n              swap1\n              tag_72\n              jump\t// in\n            tag_71:\n              tag_73\n              jump\t// in\n            tag_70:\n              stop\n                /* \"Campaign.sol\":989:1020  uint public minimumContribution */\n            tag_13:\n              callvalue\n              dup1\n              iszero\n              tag_74\n              jumpi\n              0x00\n              dup1\n              revert\n            tag_74:\n              pop\n              tag_75\n              tag_76\n              jump\t// in\n            tag_75:\n              mload(0x40)\n              tag_77\n              swap2\n              swap1\n              tag_44\n              jump\t// in\n            tag_77:\n              mload(0x40)\n              dup1\n              swap2\n              sub\n              swap1\n              return\n                /* \"Campaign.sol\":1640:1826  function contribute() public payable {... */\n            tag_14:\n              tag_78\n              tag_79\n              jump\t// in\n            tag_78:\n              stop\n                /* \"Campaign.sol\":2270:2622  function approveRequest(uint _index) public {... */\n            tag_15:\n              callvalue\n              dup1\n              iszero\n              tag_80\n              jumpi\n              0x00\n              dup1\n              revert\n            tag_80:\n              pop\n              tag_81\n              0x04\n              dup1\n              calldatasize\n              sub\n              dup2\n              add\n              swap1\n              tag_82\n              swap2\n              swap1\n              tag_22\n              jump\t// in\n            tag_82:\n              tag_83\n              jump\t// in\n            tag_81:\n              stop\n                /* \"Campaign.sol\":2632:3028  function finalizeRequest(uint _index) public restricted {... */\n            tag_23:\n                /* \"Campaign.sol\":881:888  manager */\n              0x00\n              dup1\n              sload\n              swap1\n              0x0100\n              exp\n              swap1\n              div\n              0xffffffffffffffffffffffffffffffffffffffff\n              and\n                /* \"Campaign.sol\":867:888  msg.sender == manager */\n              0xffffffffffffffffffffffffffffffffffffffff\n              and\n                /* \"Campaign.sol\":867:877  msg.sender */\n              caller\n                /* \"Campaign.sol\":867:888  msg.sender == manager */\n              0xffffffffffffffffffffffffffffffffffffffff\n              and\n              eq\n                /* \"Campaign.sol\":859:932  require(msg.sender == manager,\"You are not the manager of this contract\") */\n              tag_85\n              jumpi\n              mload(0x40)\n              0x08c379a000000000000000000000000000000000000000000000000000000000\n              dup2\n              mstore\n              0x04\n              add\n              tag_86\n              swap1\n              tag_87\n              jump\t// in\n            tag_86:\n              mload(0x40)\n              dup1\n              swap2\n              sub\n              swap1\n              revert\n            tag_85:\n                /* \"Campaign.sol\":2707:2730  Request storage request */\n              0x00\n                /* \"Campaign.sol\":2733:2741  requests */\n              0x07\n                /* \"Campaign.sol\":2733:2749  requests[_index] */\n              0x00\n                /* \"Campaign.sol\":2742:2748  _index */\n              dup4\n                /* \"Campaign.sol\":2733:2749  requests[_index] */\n              dup2\n              mstore\n              0x20\n              add\n              swap1\n              dup2\n              mstore\n              0x20\n              add\n              0x00\n              keccak256\n                /* \"Campaign.sol\":2707:2749  Request storage request = requests[_index] */\n              swap1\n              pop\n                /* \"Campaign.sol\":2817:2818  2 */\n              0x02\n                /* \"Campaign.sol\":2802:2816  approversCount */\n              sload(0x08)\n                /* \"Campaign.sol\":2802:2818  approversCount/2 */\n              tag_89\n              swap2\n              swap1\n              tag_90\n              jump\t// in\n            tag_89:\n                /* \"Campaign.sol\":2776:2783  request */\n              dup2\n                /* \"Campaign.sol\":2776:2798  request.approvalsCount */\n              0x03\n              add\n              sload\n                /* \"Campaign.sol\":2776:2819  request.approvalsCount > (approversCount/2) */\n              gt\n                /* \"Campaign.sol\":2768:2865  require(request.approvalsCount > (approversCount/2),\"Less than 50% of contributors approve this\") */\n              tag_91\n              jumpi\n              mload(0x40)\n              0x08c379a000000000000000000000000000000000000000000000000000000000\n              dup2\n              mstore\n              0x04\n              add\n              tag_92\n              swap1\n              tag_93\n              jump\t// in\n            tag_92:\n              mload(0x40)\n              dup1\n              swap2\n              sub\n              swap1\n              revert\n            tag_91:\n                /* \"Campaign.sol\":2884:2891  request */\n              dup1\n                /* \"Campaign.sol\":2884:2900  request.complete */\n              0x02\n              add\n              0x14\n              swap1\n              sload\n              swap1\n              0x0100\n              exp\n              swap1\n              div\n              0xff\n              and\n                /* \"Campaign.sol\":2883:2900  !request.complete */\n              iszero\n                /* \"Campaign.sol\":2875:2928  require(!request.complete,\"Request already complete\") */\n              tag_94\n              jumpi\n              mload(0x40)\n              0x08c379a000000000000000000000000000000000000000000000000000000000\n              dup2\n              mstore\n              0x04\n              add\n              tag_95\n              swap1\n              tag_96\n              jump\t// in\n            tag_95:\n              mload(0x40)\n              dup1\n              swap2\n              sub\n              swap1\n              revert\n            tag_94:\n                /* \"Campaign.sol\":2947:2954  request */\n              dup1\n                /* \"Campaign.sol\":2947:2964  request.recipient */\n              0x02\n              add\n              0x00\n              swap1\n              sload\n              swap1\n              0x0100\n              exp\n              swap1\n              div\n              0xffffffffffffffffffffffffffffffffffffffff\n              and\n                /* \"Campaign.sol\":2947:2973  request.recipient.transfer */\n              0xffffffffffffffffffffffffffffffffffffffff\n              and\n                /* \"Campaign.sol\":2947:2988  request.recipient.transfer(request.value) */\n              0x08fc\n                /* \"Campaign.sol\":2974:2981  request */\n              dup3\n                /* \"Campaign.sol\":2974:2987  request.value */\n              0x01\n              add\n              sload\n                /* \"Campaign.sol\":2947:2988  request.recipient.transfer(request.value) */\n              swap1\n              dup2\n              iszero\n              mul\n              swap1\n              mload(0x40)\n              0x00\n              mload(0x40)\n              dup1\n              dup4\n              sub\n              dup2\n              dup6\n              dup9\n              dup9\n              call\n              swap4\n              pop\n              pop\n              pop\n              pop\n              iszero\n              dup1\n              iszero\n              tag_98\n              jumpi\n              returndatasize\n              0x00\n              dup1\n              returndatacopy\n              revert(0x00, returndatasize)\n            tag_98:\n              pop\n                /* \"Campaign.sol\":3017:3021  true */\n              0x01\n                /* \"Campaign.sol\":2998:3005  request */\n              dup2\n                /* \"Campaign.sol\":2998:3014  request.complete */\n              0x02\n              add\n              0x14\n                /* \"Campaign.sol\":2998:3021  request.complete = true */\n              0x0100\n              exp\n              dup2\n              sload\n              dup2\n              0xff\n              mul\n              not\n              and\n              swap1\n              dup4\n              iszero\n              iszero\n              mul\n              or\n              swap1\n              sstore\n              pop\n                /* \"Campaign.sol\":2688:3028  {... */\n              pop\n                /* \"Campaign.sol\":2632:3028  function finalizeRequest(uint _index) public restricted {... */\n              pop\n              jump\t// out\n                /* \"Campaign.sol\":1026:1052  string public campaignName */\n            tag_26:\n              0x02\n              dup1\n              sload\n              tag_99\n              swap1\n              tag_100\n              jump\t// in\n            tag_99:\n              dup1\n              0x1f\n              add\n              0x20\n              dup1\n              swap2\n              div\n              mul\n              0x20\n              add\n              mload(0x40)\n              swap1\n              dup2\n              add\n              0x40\n              mstore\n              dup1\n              swap3\n              swap2\n              swap1\n              dup2\n              dup2\n              mstore\n              0x20\n              add\n              dup3\n              dup1\n              sload\n              tag_101\n              swap1\n              tag_100\n              jump\t// in\n            tag_101:\n              dup1\n              iszero\n              tag_102\n              jumpi\n              dup1\n              0x1f\n              lt\n              tag_103\n              jumpi\n              0x0100\n              dup1\n              dup4\n              sload\n              div\n              mul\n              dup4\n              mstore\n              swap2\n              0x20\n              add\n              swap2\n              jump(tag_102)\n            tag_103:\n              dup3\n              add\n              swap2\n              swap1\n              0x00\n              mstore\n              keccak256(0x00, 0x20)\n              swap1\n            tag_104:\n              dup2\n              sload\n              dup2\n              mstore\n              swap1\n              0x01\n              add\n              swap1\n              0x20\n              add\n              dup1\n              dup4\n              gt\n              tag_104\n              jumpi\n              dup3\n              swap1\n              sub\n              0x1f\n              and\n              dup3\n              add\n              swap2\n            tag_102:\n              pop\n              pop\n              pop\n              pop\n              pop\n              dup2\n              jump\t// out\n                /* \"Campaign.sol\":1130:1171  mapping(address => bool) public approvers */\n            tag_33:\n              mstore(0x20, 0x05)\n              dup1\n              0x00\n              mstore\n              keccak256(0x00, 0x40)\n              0x00\n              swap2\n              pop\n              sload\n              swap1\n              0x0100\n              exp\n              swap1\n              div\n              0xff\n              and\n              dup2\n              jump\t// out\n                /* \"Campaign.sol\":1058:1091  string public campaignDescription */\n            tag_38:\n              0x03\n              dup1\n              sload\n              tag_105\n              swap1\n              tag_100\n              jump\t// in\n            tag_105:\n              dup1\n              0x1f\n              add\n              0x20\n              dup1\n              swap2\n              div\n              mul\n              0x20\n              add\n              mload(0x40)\n              swap1\n              dup2\n              add\n              0x40\n              mstore\n              dup1\n              swap3\n              swap2\n              swap1\n              dup2\n              dup2\n              mstore\n              0x20\n              add\n              dup3\n              dup1\n              sload\n              tag_106\n              swap1\n              tag_100\n              jump\t// in\n            tag_106:\n              dup1\n              iszero\n              tag_107\n              jumpi\n              dup1\n              0x1f\n              lt\n              tag_108\n              jumpi\n              0x0100\n              dup1\n              dup4\n              sload\n              div\n              mul\n              dup4\n              mstore\n              swap2\n              0x20\n              add\n              swap2\n              jump(tag_107)\n            tag_108:\n              dup3\n              add\n              swap2\n              swap1\n              0x00\n              mstore\n              keccak256(0x00, 0x20)\n              swap1\n            tag_109:\n              dup2\n              sload\n              dup2\n              mstore\n              swap1\n              0x01\n              add\n              swap1\n              0x20\n              add\n              dup1\n              dup4\n              gt\n              tag_109\n              jumpi\n              dup3\n              swap1\n              sub\n              0x1f\n              and\n              dup3\n              add\n              swap2\n            tag_107:\n              pop\n              pop\n              pop\n              pop\n              pop\n              dup2\n              jump\t// out\n                /* \"Campaign.sol\":3421:3511  function getRequestsCount() public view returns (uint) {... */\n            tag_42:\n                /* \"Campaign.sol\":3470:3474  uint */\n              0x00\n                /* \"Campaign.sol\":3493:3504  numRequests */\n              sload(0x06)\n                /* \"Campaign.sol\":3486:3504  return numRequests */\n              swap1\n              pop\n                /* \"Campaign.sol\":3421:3511  function getRequestsCount() public view returns (uint) {... */\n              swap1\n              jump\t// out\n                /* \"Campaign.sol\":3038:3415  function getSummary() public view returns (uint,uint,uint,uint, address,string memory,string memory,string memory) {... */\n            tag_47:\n                /* \"Campaign.sol\":3081:3085  uint */\n              0x00\n                /* \"Campaign.sol\":3086:3090  uint */\n              dup1\n                /* \"Campaign.sol\":3091:3095  uint */\n              0x00\n                /* \"Campaign.sol\":3096:3100  uint */\n              dup1\n                /* \"Campaign.sol\":3102:3109  address */\n              0x00\n                /* \"Campaign.sol\":3110:3123  string memory */\n              0x60\n                /* \"Campaign.sol\":3124:3137  string memory */\n              dup1\n                /* \"Campaign.sol\":3138:3151  string memory */\n              0x60\n                /* \"Campaign.sol\":3184:3203  minimumContribution */\n              sload(0x01)\n                /* \"Campaign.sol\":3217:3238  address(this).balance */\n              selfbalance\n                /* \"Campaign.sol\":3252:3263  numRequests */\n              sload(0x06)\n                /* \"Campaign.sol\":3277:3291  approversCount */\n              sload(0x08)\n                /* \"Campaign.sol\":3305:3312  manager */\n              0x00\n              dup1\n              sload\n              swap1\n              0x0100\n              exp\n              swap1\n              div\n              0xffffffffffffffffffffffffffffffffffffffff\n              and\n                /* \"Campaign.sol\":3326:3338  campaignName */\n              0x02\n                /* \"Campaign.sol\":3352:3371  campaignDescription */\n              0x03\n                /* \"Campaign.sol\":3385:3398  campaignImage */\n              0x04\n                /* \"Campaign.sol\":3163:3408  return (... */\n              dup3\n              dup1\n              sload\n              tag_112\n              swap1\n              tag_100\n              jump\t// in\n            tag_112:\n              dup1\n              0x1f\n              add\n              0x20\n              dup1\n              swap2\n              div\n              mul\n              0x20\n              add\n              mload(0x40)\n              swap1\n              dup2\n              add\n              0x40\n              mstore\n              dup1\n              swap3\n              swap2\n              swap1\n              dup2\n              dup2\n              mstore\n              0x20\n              add\n              dup3\n              dup1\n              sload\n              tag_113\n              swap1\n              tag_100\n              jump\t// in\n            tag_113:\n              dup1\n              iszero\n              tag_114\n              jumpi\n              dup1\n              0x1f\n              lt\n              tag_115\n              jumpi\n              0x0100\n              dup1\n              dup4\n              sload\n              div\n              mul\n              dup4\n              mstore\n              swap2\n              0x20\n              add\n              swap2\n              jump(tag_114)\n            tag_115:\n              dup3\n              add\n              swap2\n              swap1\n              0x00\n              mstore\n              keccak256(0x00, 0x20)\n              swap1\n            tag_116:\n              dup2\n              sload\n              dup2\n              mstore\n              swap1\n              0x01\n              add\n              swap1\n              0x20\n              add\n              dup1\n              dup4\n              gt\n              tag_116\n              jumpi\n              dup3\n              swap1\n              sub\n              0x1f\n              and\n              dup3\n              add\n              swap2\n            tag_114:\n              pop\n              pop\n              pop\n              pop\n              pop\n              swap3\n              pop\n              dup2\n              dup1\n              sload\n              tag_117\n              swap1\n              tag_100\n              jump\t// in\n            tag_117:\n              dup1\n              0x1f\n              add\n              0x20\n              dup1\n              swap2\n              div\n              mul\n              0x20\n              add\n              mload(0x40)\n              swap1\n              dup2\n              add\n              0x40\n              mstore\n              dup1\n              swap3\n              swap2\n              swap1\n              dup2\n              dup2\n              mstore\n              0x20\n              add\n              dup3\n              dup1\n              sload\n              tag_118\n              swap1\n              tag_100\n              jump\t// in\n            tag_118:\n              dup1\n              iszero\n              tag_119\n              jumpi\n              dup1\n              0x1f\n              lt\n              tag_120\n              jumpi\n              0x0100\n              dup1\n              dup4\n              sload\n              div\n              mul\n              dup4\n              mstore\n              swap2\n              0x20\n              add\n              swap2\n              jump(tag_119)\n            tag_120:\n              dup3\n              add\n              swap2\n              swap1\n              0x00\n              mstore\n              keccak256(0x00, 0x20)\n              swap1\n            tag_121:\n              dup2\n              sload\n              dup2\n              mstore\n              swap1\n              0x01\n              add\n              swap1\n              0x20\n              add\n              dup1\n              dup4\n              gt\n              tag_121\n              jumpi\n              dup3\n              swap1\n              sub\n              0x1f\n              and\n              dup3\n              add\n              swap2\n            tag_119:\n              pop\n              pop\n              pop\n              pop\n              pop\n              swap2\n              pop\n              dup1\n              dup1\n              sload\n              tag_122\n              swap1\n              tag_100\n              jump\t// in\n            tag_122:\n              dup1\n              0x1f\n              add\n              0x20\n              dup1\n              swap2\n              div\n              mul\n              0x20\n              add\n              mload(0x40)\n              swap1\n              dup2\n              add\n              0x40\n              mstore\n              dup1\n              swap3\n              swap2\n              swap1\n              dup2\n              dup2\n              mstore\n              0x20\n              add\n              dup3\n              dup1\n              sload\n              tag_123\n              swap1\n              tag_100\n              jump\t// in\n            tag_123:\n              dup1\n              iszero\n              tag_124\n              jumpi\n              dup1\n              0x1f\n              lt\n              tag_125\n              jumpi\n              0x0100\n              dup1\n              dup4\n              sload\n              div\n              mul\n              dup4\n              mstore\n              swap2\n              0x20\n              add\n              swap2\n              jump(tag_124)\n            tag_125:\n              dup3\n              add\n              swap2\n              swap1\n              0x00\n              mstore\n              keccak256(0x00, 0x20)\n              swap1\n            tag_126:\n              dup2\n              sload\n              dup2\n              mstore\n              swap1\n              0x01\n              add\n              swap1\n              0x20\n              add\n              dup1\n              dup4\n              gt\n              tag_126\n              jumpi\n              dup3\n              swap1\n              sub\n              0x1f\n              and\n              dup3\n              add\n              swap2\n            tag_124:\n              pop\n              pop\n              pop\n              pop\n              pop\n              swap1\n              pop\n              swap8\n              pop\n              swap8\n              pop\n              swap8\n              pop\n              swap8\n              pop\n              swap8\n              pop\n              swap8\n              pop\n              swap8\n              pop\n              swap8\n              pop\n                /* \"Campaign.sol\":3038:3415  function getSummary() public view returns (uint,uint,uint,uint, address,string memory,string memory,string memory) {... */\n              swap1\n              swap2\n              swap3\n              swap4\n              swap5\n              swap6\n              swap7\n              swap8\n              jump\t// out\n                /* \"Campaign.sol\":961:983  address public manager */\n            tag_52:\n              0x00\n              dup1\n              sload\n              swap1\n              0x0100\n              exp\n              swap1\n              div\n              0xffffffffffffffffffffffffffffffffffffffff\n              and\n              dup2\n              jump\t// out\n                /* \"Campaign.sol\":1097:1124  string public campaignImage */\n            tag_57:\n              0x04\n              dup1\n              sload\n              tag_127\n              swap1\n              tag_100\n              jump\t// in\n            tag_127:\n              dup1\n              0x1f\n              add\n              0x20\n              dup1\n              swap2\n              div\n              mul\n              0x20\n              add\n              mload(0x40)\n              swap1\n              dup2\n              add\n              0x40\n              mstore\n              dup1\n              swap3\n              swap2\n              swap1\n              dup2\n              dup2\n              mstore\n              0x20\n              add\n              dup3\n              dup1\n              sload\n              tag_128\n              swap1\n              tag_100\n              jump\t// in\n            tag_128:\n              dup1\n              iszero\n              tag_129\n              jumpi\n              dup1\n              0x1f\n              lt\n              tag_130\n              jumpi\n              0x0100\n              dup1\n              dup4\n              sload\n              div\n              mul\n              dup4\n              mstore\n              swap2\n              0x20\n              add\n              swap2\n              jump(tag_129)\n            tag_130:\n              dup3\n              add\n              swap2\n              swap1\n              0x00\n              mstore\n              keccak256(0x00, 0x20)\n              swap1\n            tag_131:\n              dup2\n              sload\n              dup2\n              mstore\n              swap1\n              0x01\n              add\n              swap1\n              0x20\n              add\n              dup1\n              dup4\n              gt\n              tag_131\n              jumpi\n              dup3\n              swap1\n              sub\n              0x1f\n              and\n              dup3\n              add\n              swap2\n            tag_129:\n              pop\n              pop\n              pop\n              pop\n              pop\n              dup2\n              jump\t// out\n                /* \"Campaign.sol\":1200:1241  mapping (uint => Request) public requests */\n            tag_62:\n              mstore(0x20, 0x07)\n              dup1\n              0x00\n              mstore\n              keccak256(0x00, 0x40)\n              0x00\n              swap2\n              pop\n              swap1\n              pop\n              dup1\n              0x00\n              add\n              dup1\n              sload\n              tag_132\n              swap1\n              tag_100\n              jump\t// in\n            tag_132:\n              dup1\n              0x1f\n              add\n              0x20\n              dup1\n              swap2\n              div\n              mul\n              0x20\n              add\n              mload(0x40)\n              swap1\n              dup2\n              add\n              0x40\n              mstore\n              dup1\n              swap3\n              swap2\n              swap1\n              dup2\n              dup2\n              mstore\n              0x20\n              add\n              dup3\n              dup1\n              sload\n              tag_133\n              swap1\n              tag_100\n              jump\t// in\n            tag_133:\n              dup1\n              iszero\n              tag_134\n              jumpi\n              dup1\n              0x1f\n              lt\n              tag_135\n              jumpi\n              0x0100\n              dup1\n              dup4\n              sload\n              div\n              mul\n              dup4\n              mstore\n              swap2\n              0x20\n              add\n              swap2\n              jump(tag_134)\n            tag_135:\n              dup3\n              add\n              swap2\n              swap1\n              0x00\n              mstore\n              keccak256(0x00, 0x20)\n              swap1\n            tag_136:\n              dup2\n              sload\n              dup2\n              mstore\n              swap1\n              0x01\n              add\n              swap1\n              0x20\n              add\n              dup1\n              dup4\n              gt\n              tag_136\n              jumpi\n              dup3\n              swap1\n              sub\n              0x1f\n              and\n              dup3\n              add\n              swap2\n            tag_134:\n              pop\n              pop\n              pop\n              pop\n              pop\n              swap1\n              dup1\n              0x01\n              add\n              sload\n              swap1\n              dup1\n              0x02\n              add\n              0x00\n              swap1\n              sload\n              swap1\n              0x0100\n              exp\n              swap1\n              div\n              0xffffffffffffffffffffffffffffffffffffffff\n              and\n              swap1\n              dup1\n              0x02\n              add\n              0x14\n              swap1\n              sload\n              swap1\n              0x0100\n              exp\n              swap1\n              div\n              0xff\n              and\n              swap1\n              dup1\n              0x03\n              add\n              sload\n              swap1\n              pop\n              dup6\n              jump\t// out\n                /* \"Campaign.sol\":1247:1273  uint public approversCount */\n            tag_67:\n              sload(0x08)\n              dup2\n              jump\t// out\n                /* \"Campaign.sol\":1836:2260  function createRequest(string memory  _description, uint  _value, address payable  _recipient)  public  restricted {... */\n            tag_73:\n                /* \"Campaign.sol\":881:888  manager */\n              0x00\n              dup1\n              sload\n              swap1\n              0x0100\n              exp\n              swap1\n              div\n              0xffffffffffffffffffffffffffffffffffffffff\n              and\n                /* \"Campaign.sol\":867:888  msg.sender == manager */\n              0xffffffffffffffffffffffffffffffffffffffff\n              and\n                /* \"Campaign.sol\":867:877  msg.sender */\n              caller\n                /* \"Campaign.sol\":867:888  msg.sender == manager */\n              0xffffffffffffffffffffffffffffffffffffffff\n              and\n              eq\n                /* \"Campaign.sol\":859:932  require(msg.sender == manager,\"You are not the manager of this contract\") */\n              tag_138\n              jumpi\n              mload(0x40)\n              0x08c379a000000000000000000000000000000000000000000000000000000000\n              dup2\n              mstore\n              0x04\n              add\n              tag_139\n              swap1\n              tag_87\n              jump\t// in\n            tag_139:\n              mload(0x40)\n              dup1\n              swap2\n              sub\n              swap1\n              revert\n            tag_138:\n                /* \"Campaign.sol\":1960:1986  Request storage newRequest */\n              0x00\n                /* \"Campaign.sol\":1989:1997  requests */\n              0x07\n                /* \"Campaign.sol\":1989:2012  requests[numRequests++] */\n              0x00\n                /* \"Campaign.sol\":1998:2009  numRequests */\n              0x06\n              0x00\n                /* \"Campaign.sol\":1998:2011  numRequests++ */\n              dup2\n              sload\n              dup1\n              swap3\n              swap2\n              swap1\n              tag_141\n              swap1\n              tag_142\n              jump\t// in\n            tag_141:\n              swap2\n              swap1\n              pop\n              sstore\n                /* \"Campaign.sol\":1989:2012  requests[numRequests++] */\n              dup2\n              mstore\n              0x20\n              add\n              swap1\n              dup2\n              mstore\n              0x20\n              add\n              0x00\n              keccak256\n                /* \"Campaign.sol\":1960:2012  Request storage newRequest = requests[numRequests++] */\n              swap1\n              pop\n                /* \"Campaign.sol\":2055:2067  _description */\n              dup4\n                /* \"Campaign.sol\":2030:2040  newRequest */\n              dup2\n                /* \"Campaign.sol\":2030:2052  newRequest.description */\n              0x00\n              add\n                /* \"Campaign.sol\":2030:2067  newRequest.description = _description */\n              swap1\n              dup1\n              mload\n              swap1\n              0x20\n              add\n              swap1\n              tag_143\n              swap3\n              swap2\n              swap1\n              tag_144\n              jump\t// in\n            tag_143:\n              pop\n                /* \"Campaign.sol\":2104:2110  _value */\n              dup3\n                /* \"Campaign.sol\":2085:2095  newRequest */\n              dup2\n                /* \"Campaign.sol\":2085:2101  newRequest.value */\n              0x01\n              add\n                /* \"Campaign.sol\":2085:2110  newRequest.value = _value */\n              dup2\n              swap1\n              sstore\n              pop\n                /* \"Campaign.sol\":2151:2161  _recipient */\n              dup2\n                /* \"Campaign.sol\":2128:2138  newRequest */\n              dup2\n                /* \"Campaign.sol\":2128:2148  newRequest.recipient */\n              0x02\n              add\n              0x00\n                /* \"Campaign.sol\":2128:2161  newRequest.recipient = _recipient */\n              0x0100\n              exp\n              dup2\n              sload\n              dup2\n              0xffffffffffffffffffffffffffffffffffffffff\n              mul\n              not\n              and\n              swap1\n              dup4\n              0xffffffffffffffffffffffffffffffffffffffff\n              and\n              mul\n              or\n              swap1\n              sstore\n              pop\n                /* \"Campaign.sol\":2201:2206  false */\n              0x00\n                /* \"Campaign.sol\":2179:2189  newRequest */\n              dup2\n                /* \"Campaign.sol\":2179:2198  newRequest.complete */\n              0x02\n              add\n              0x14\n                /* \"Campaign.sol\":2179:2206  newRequest.complete = false */\n              0x0100\n              exp\n              dup2\n              sload\n              dup2\n              0xff\n              mul\n              not\n              and\n              swap1\n              dup4\n              iszero\n              iszero\n              mul\n              or\n              swap1\n              sstore\n              pop\n                /* \"Campaign.sol\":2252:2253  0 */\n              0x00\n                /* \"Campaign.sol\":2224:2234  newRequest */\n              dup2\n                /* \"Campaign.sol\":2224:2249  newRequest.approvalsCount */\n              0x03\n              add\n                /* \"Campaign.sol\":2224:2253  newRequest.approvalsCount = 0 */\n              dup2\n              swap1\n              sstore\n              pop\n                /* \"Campaign.sol\":1951:2260  {... */\n              pop\n                /* \"Campaign.sol\":1836:2260  function createRequest(string memory  _description, uint  _value, address payable  _recipient)  public  restricted {... */\n              pop\n              pop\n              pop\n              jump\t// out\n                /* \"Campaign.sol\":989:1020  uint public minimumContribution */\n            tag_76:\n              sload(0x01)\n              dup2\n              jump\t// out\n                /* \"Campaign.sol\":1640:1826  function contribute() public payable {... */\n            tag_79:\n                /* \"Campaign.sol\":1708:1727  minimumContribution */\n              sload(0x01)\n                /* \"Campaign.sol\":1695:1704  msg.value */\n              callvalue\n                /* \"Campaign.sol\":1695:1727  msg.value >= minimumContribution */\n              lt\n              iszero\n                /* \"Campaign.sol\":1687:1755  require(msg.value >= minimumContribution, \"Contribution is too low\") */\n              tag_146\n              jumpi\n              mload(0x40)\n              0x08c379a000000000000000000000000000000000000000000000000000000000\n              dup2\n              mstore\n              0x04\n              add\n              tag_147\n              swap1\n              tag_148\n              jump\t// in\n            tag_147:\n              mload(0x40)\n              dup1\n              swap2\n              sub\n              swap1\n              revert\n            tag_146:\n                /* \"Campaign.sol\":1789:1793  true */\n              0x01\n                /* \"Campaign.sol\":1765:1774  approvers */\n              0x05\n                /* \"Campaign.sol\":1765:1786  approvers[msg.sender] */\n              0x00\n                /* \"Campaign.sol\":1775:1785  msg.sender */\n              caller\n                /* \"Campaign.sol\":1765:1786  approvers[msg.sender] */\n              0xffffffffffffffffffffffffffffffffffffffff\n              and\n              0xffffffffffffffffffffffffffffffffffffffff\n              and\n              dup2\n              mstore\n              0x20\n              add\n              swap1\n              dup2\n              mstore\n              0x20\n              add\n              0x00\n              keccak256\n              0x00\n                /* \"Campaign.sol\":1765:1793  approvers[msg.sender] = true */\n              0x0100\n              exp\n              dup2\n              sload\n              dup2\n              0xff\n              mul\n              not\n              and\n              swap1\n              dup4\n              iszero\n              iszero\n              mul\n              or\n              swap1\n              sstore\n              pop\n                /* \"Campaign.sol\":1803:1817  approversCount */\n              0x08\n              0x00\n                /* \"Campaign.sol\":1803:1819  approversCount++ */\n              dup2\n              sload\n              dup1\n              swap3\n              swap2\n              swap1\n              tag_149\n              swap1\n              tag_142\n              jump\t// in\n            tag_149:\n              swap2\n              swap1\n              pop\n              sstore\n              pop\n                /* \"Campaign.sol\":1640:1826  function contribute() public payable {... */\n              jump\t// out\n                /* \"Campaign.sol\":2270:2622  function approveRequest(uint _index) public {... */\n            tag_83:\n                /* \"Campaign.sol\":2333:2356  Request storage request */\n              0x00\n                /* \"Campaign.sol\":2359:2367  requests */\n              0x07\n                /* \"Campaign.sol\":2359:2375  requests[_index] */\n              0x00\n                /* \"Campaign.sol\":2368:2374  _index */\n              dup4\n                /* \"Campaign.sol\":2359:2375  requests[_index] */\n              dup2\n              mstore\n              0x20\n              add\n              swap1\n              dup2\n              mstore\n              0x20\n              add\n              0x00\n              keccak256\n                /* \"Campaign.sol\":2333:2375  Request storage request = requests[_index] */\n              swap1\n              pop\n                /* \"Campaign.sol\":2402:2411  approvers */\n              0x05\n                /* \"Campaign.sol\":2402:2423  approvers[msg.sender] */\n              0x00\n                /* \"Campaign.sol\":2412:2422  msg.sender */\n              caller\n                /* \"Campaign.sol\":2402:2423  approvers[msg.sender] */\n              0xffffffffffffffffffffffffffffffffffffffff\n              and\n              0xffffffffffffffffffffffffffffffffffffffff\n              and\n              dup2\n              mstore\n              0x20\n              add\n              swap1\n              dup2\n              mstore\n              0x20\n              add\n              0x00\n              keccak256\n              0x00\n              swap1\n              sload\n              swap1\n              0x0100\n              exp\n              swap1\n              div\n              0xff\n              and\n                /* \"Campaign.sol\":2394:2452  require(approvers[msg.sender],\"You are not the approvers\") */\n              tag_151\n              jumpi\n              mload(0x40)\n              0x08c379a000000000000000000000000000000000000000000000000000000000\n              dup2\n              mstore\n              0x04\n              add\n              tag_152\n              swap1\n              tag_153\n              jump\t// in\n            tag_152:\n              mload(0x40)\n              dup1\n              swap2\n              sub\n              swap1\n              revert\n            tag_151:\n                /* \"Campaign.sol\":2471:2478  request */\n              dup1\n                /* \"Campaign.sol\":2471:2488  request.approvals */\n              0x04\n              add\n                /* \"Campaign.sol\":2471:2500  request.approvals[msg.sender] */\n              0x00\n                /* \"Campaign.sol\":2489:2499  msg.sender */\n              caller\n                /* \"Campaign.sol\":2471:2500  request.approvals[msg.sender] */\n              0xffffffffffffffffffffffffffffffffffffffff\n              and\n              0xffffffffffffffffffffffffffffffffffffffff\n              and\n              dup2\n              mstore\n              0x20\n              add\n              swap1\n              dup2\n              mstore\n              0x20\n              add\n              0x00\n              keccak256\n              0x00\n              swap1\n              sload\n              swap1\n              0x0100\n              exp\n              swap1\n              div\n              0xff\n              and\n                /* \"Campaign.sol\":2470:2500  !request.approvals[msg.sender] */\n              iszero\n                /* \"Campaign.sol\":2462:2526  require(!request.approvals[msg.sender],\"You already approve it\") */\n              tag_154\n              jumpi\n              mload(0x40)\n              0x08c379a000000000000000000000000000000000000000000000000000000000\n              dup2\n              mstore\n              0x04\n              add\n              tag_155\n              swap1\n              tag_156\n              jump\t// in\n            tag_155:\n              mload(0x40)\n              dup1\n              swap2\n              sub\n              swap1\n              revert\n            tag_154:\n                /* \"Campaign.sol\":2577:2581  true */\n              0x01\n                /* \"Campaign.sol\":2545:2552  request */\n              dup2\n                /* \"Campaign.sol\":2545:2562  request.approvals */\n              0x04\n              add\n                /* \"Campaign.sol\":2545:2574  request.approvals[msg.sender] */\n              0x00\n                /* \"Campaign.sol\":2563:2573  msg.sender */\n              caller\n                /* \"Campaign.sol\":2545:2574  request.approvals[msg.sender] */\n              0xffffffffffffffffffffffffffffffffffffffff\n              and\n              0xffffffffffffffffffffffffffffffffffffffff\n              and\n              dup2\n              mstore\n              0x20\n              add\n              swap1\n              dup2\n              mstore\n              0x20\n              add\n              0x00\n              keccak256\n              0x00\n                /* \"Campaign.sol\":2545:2581  request.approvals[msg.sender] = true */\n              0x0100\n              exp\n              dup2\n              sload\n              dup2\n              0xff\n              mul\n              not\n              and\n              swap1\n              dup4\n              iszero\n              iszero\n              mul\n              or\n              swap1\n              sstore\n              pop\n                /* \"Campaign.sol\":2591:2598  request */\n              dup1\n                /* \"Campaign.sol\":2591:2613  request.approvalsCount */\n              0x03\n              add\n              0x00\n                /* \"Campaign.sol\":2591:2615  request.approvalsCount++ */\n              dup2\n              sload\n              dup1\n              swap3\n              swap2\n              swap1\n              tag_157\n              swap1\n              tag_142\n              jump\t// in\n            tag_157:\n              swap2\n              swap1\n              pop\n              sstore\n              pop\n                /* \"Campaign.sol\":2314:2622  {... */\n              pop\n                /* \"Campaign.sol\":2270:2622  function approveRequest(uint _index) public {... */\n              pop\n              jump\t// out\n            tag_144:\n              dup3\n              dup1\n              sload\n              tag_158\n              swap1\n              tag_100\n              jump\t// in\n            tag_158:\n              swap1\n              0x00\n              mstore\n              keccak256(0x00, 0x20)\n              swap1\n              0x1f\n              add\n              0x20\n              swap1\n              div\n              dup2\n              add\n              swap3\n              dup3\n              tag_160\n              jumpi\n              0x00\n              dup6\n              sstore\n              jump(tag_159)\n            tag_160:\n              dup3\n              0x1f\n              lt\n              tag_161\n              jumpi\n              dup1\n              mload\n              not(0xff)\n              and\n              dup4\n              dup1\n              add\n              or\n              dup6\n              sstore\n              jump(tag_159)\n            tag_161:\n              dup3\n              dup1\n              add\n              0x01\n              add\n              dup6\n              sstore\n              dup3\n              iszero\n              tag_159\n              jumpi\n              swap2\n              dup3\n              add\n            tag_162:\n              dup3\n              dup2\n              gt\n              iszero\n              tag_163\n              jumpi\n              dup3\n              mload\n              dup3\n              sstore\n              swap2\n              0x20\n              add\n              swap2\n              swap1\n              0x01\n              add\n              swap1\n              jump(tag_162)\n            tag_163:\n            tag_159:\n              pop\n              swap1\n              pop\n              tag_164\n              swap2\n              swap1\n              tag_165\n              jump\t// in\n            tag_164:\n              pop\n              swap1\n              jump\t// out\n            tag_165:\n            tag_166:\n              dup1\n              dup3\n              gt\n              iszero\n              tag_167\n              jumpi\n              0x00\n              dup2\n              0x00\n              swap1\n              sstore\n              pop\n              0x01\n              add\n              jump(tag_166)\n            tag_167:\n              pop\n              swap1\n              jump\t// out\n                /* \"#utility.yul\":7:419   */\n            tag_169:\n                /* \"#utility.yul\":85:90   */\n              0x00\n                /* \"#utility.yul\":110:176   */\n              tag_171\n                /* \"#utility.yul\":126:175   */\n              tag_172\n                /* \"#utility.yul\":168:174   */\n              dup5\n                /* \"#utility.yul\":126:175   */\n              tag_173\n              jump\t// in\n            tag_172:\n                /* \"#utility.yul\":110:176   */\n              tag_174\n              jump\t// in\n            tag_171:\n                /* \"#utility.yul\":101:176   */\n              swap1\n              pop\n                /* \"#utility.yul\":199:205   */\n              dup3\n                /* \"#utility.yul\":192:197   */\n              dup2\n                /* \"#utility.yul\":185:206   */\n              mstore\n                /* \"#utility.yul\":237:241   */\n              0x20\n                /* \"#utility.yul\":230:235   */\n              dup2\n                /* \"#utility.yul\":226:242   */\n              add\n                /* \"#utility.yul\":275:278   */\n              dup5\n                /* \"#utility.yul\":266:272   */\n              dup5\n                /* \"#utility.yul\":261:264   */\n              dup5\n                /* \"#utility.yul\":257:273   */\n              add\n                /* \"#utility.yul\":254:279   */\n              gt\n                /* \"#utility.yul\":251:363   */\n              iszero\n              tag_175\n              jumpi\n                /* \"#utility.yul\":282:361   */\n              tag_176\n              tag_177\n              jump\t// in\n            tag_176:\n                /* \"#utility.yul\":251:363   */\n            tag_175:\n                /* \"#utility.yul\":372:413   */\n              tag_178\n                /* \"#utility.yul\":406:412   */\n              dup5\n                /* \"#utility.yul\":401:404   */\n              dup3\n                /* \"#utility.yul\":396:399   */\n              dup6\n                /* \"#utility.yul\":372:413   */\n              tag_179\n              jump\t// in\n            tag_178:\n                /* \"#utility.yul\":91:419   */\n              pop\n                /* \"#utility.yul\":7:419   */\n              swap4\n              swap3\n              pop\n              pop\n              pop\n              jump\t// out\n                /* \"#utility.yul\":425:564   */\n            tag_180:\n                /* \"#utility.yul\":471:476   */\n              0x00\n                /* \"#utility.yul\":509:515   */\n              dup2\n                /* \"#utility.yul\":496:516   */\n              calldataload\n                /* \"#utility.yul\":487:516   */\n              swap1\n              pop\n                /* \"#utility.yul\":525:558   */\n              tag_182\n                /* \"#utility.yul\":552:557   */\n              dup2\n                /* \"#utility.yul\":525:558   */\n              tag_183\n              jump\t// in\n            tag_182:\n                /* \"#utility.yul\":425:564   */\n              swap3\n              swap2\n              pop\n              pop\n              jump\t// out\n                /* \"#utility.yul\":570:725   */\n            tag_184:\n                /* \"#utility.yul\":624:629   */\n              0x00\n                /* \"#utility.yul\":662:668   */\n              dup2\n                /* \"#utility.yul\":649:669   */\n              calldataload\n                /* \"#utility.yul\":640:669   */\n              swap1\n              pop\n                /* \"#utility.yul\":678:719   */\n              tag_186\n                /* \"#utility.yul\":713:718   */\n              dup2\n                /* \"#utility.yul\":678:719   */\n              tag_187\n              jump\t// in\n            tag_186:\n                /* \"#utility.yul\":570:725   */\n              swap3\n              swap2\n              pop\n              pop\n              jump\t// out\n                /* \"#utility.yul\":745:1085   */\n            tag_188:\n                /* \"#utility.yul\":801:806   */\n              0x00\n                /* \"#utility.yul\":850:853   */\n              dup3\n                /* \"#utility.yul\":843:847   */\n              0x1f\n                /* \"#utility.yul\":835:841   */\n              dup4\n                /* \"#utility.yul\":831:848   */\n              add\n                /* \"#utility.yul\":827:854   */\n              slt\n                /* \"#utility.yul\":817:939   */\n              tag_190\n              jumpi\n                /* \"#utility.yul\":858:937   */\n              tag_191\n              tag_192\n              jump\t// in\n            tag_191:\n                /* \"#utility.yul\":817:939   */\n            tag_190:\n                /* \"#utility.yul\":975:981   */\n              dup2\n                /* \"#utility.yul\":962:982   */\n              calldataload\n                /* \"#utility.yul\":1000:1079   */\n              tag_193\n                /* \"#utility.yul\":1075:1078   */\n              dup5\n                /* \"#utility.yul\":1067:1073   */\n              dup3\n                /* \"#utility.yul\":1060:1064   */\n              0x20\n                /* \"#utility.yul\":1052:1058   */\n              dup7\n                /* \"#utility.yul\":1048:1065   */\n              add\n                /* \"#utility.yul\":1000:1079   */\n              tag_169\n              jump\t// in\n            tag_193:\n                /* \"#utility.yul\":991:1079   */\n              swap2\n              pop\n                /* \"#utility.yul\":807:1085   */\n              pop\n                /* \"#utility.yul\":745:1085   */\n              swap3\n              swap2\n              pop\n              pop\n              jump\t// out\n                /* \"#utility.yul\":1091:1230   */\n            tag_194:\n                /* \"#utility.yul\":1137:1142   */\n              0x00\n                /* \"#utility.yul\":1175:1181   */\n              dup2\n                /* \"#utility.yul\":1162:1182   */\n              calldataload\n                /* \"#utility.yul\":1153:1182   */\n              swap1\n              pop\n                /* \"#utility.yul\":1191:1224   */\n              tag_196\n                /* \"#utility.yul\":1218:1223   */\n              dup2\n                /* \"#utility.yul\":1191:1224   */\n              tag_197\n              jump\t// in\n            tag_196:\n                /* \"#utility.yul\":1091:1230   */\n              swap3\n              swap2\n              pop\n              pop\n              jump\t// out\n                /* \"#utility.yul\":1236:1565   */\n            tag_32:\n                /* \"#utility.yul\":1295:1301   */\n              0x00\n                /* \"#utility.yul\":1344:1346   */\n              0x20\n                /* \"#utility.yul\":1332:1341   */\n              dup3\n                /* \"#utility.yul\":1323:1330   */\n              dup5\n                /* \"#utility.yul\":1319:1342   */\n              sub\n                /* \"#utility.yul\":1315:1347   */\n              slt\n                /* \"#utility.yul\":1312:1431   */\n              iszero\n              tag_199\n              jumpi\n                /* \"#utility.yul\":1350:1429   */\n              tag_200\n              tag_201\n              jump\t// in\n            tag_200:\n                /* \"#utility.yul\":1312:1431   */\n            tag_199:\n                /* \"#utility.yul\":1470:1471   */\n              0x00\n                /* \"#utility.yul\":1495:1548   */\n              tag_202\n                /* \"#utility.yul\":1540:1547   */\n              dup5\n                /* \"#utility.yul\":1531:1537   */\n              dup3\n                /* \"#utility.yul\":1520:1529   */\n              dup6\n                /* \"#utility.yul\":1516:1538   */\n              add\n                /* \"#utility.yul\":1495:1548   */\n              tag_180\n              jump\t// in\n            tag_202:\n                /* \"#utility.yul\":1485:1548   */\n              swap2\n              pop\n                /* \"#utility.yul\":1441:1558   */\n              pop\n                /* \"#utility.yul\":1236:1565   */\n              swap3\n              swap2\n              pop\n              pop\n              jump\t// out\n                /* \"#utility.yul\":1571:2386   */\n            tag_72:\n                /* \"#utility.yul\":1666:1672   */\n              0x00\n                /* \"#utility.yul\":1674:1680   */\n              dup1\n                /* \"#utility.yul\":1682:1688   */\n              0x00\n                /* \"#utility.yul\":1731:1733   */\n              0x60\n                /* \"#utility.yul\":1719:1728   */\n              dup5\n                /* \"#utility.yul\":1710:1717   */\n              dup7\n                /* \"#utility.yul\":1706:1729   */\n              sub\n                /* \"#utility.yul\":1702:1734   */\n              slt\n                /* \"#utility.yul\":1699:1818   */\n              iszero\n              tag_204\n              jumpi\n                /* \"#utility.yul\":1737:1816   */\n              tag_205\n              tag_201\n              jump\t// in\n            tag_205:\n                /* \"#utility.yul\":1699:1818   */\n            tag_204:\n                /* \"#utility.yul\":1885:1886   */\n              0x00\n                /* \"#utility.yul\":1874:1883   */\n              dup5\n                /* \"#utility.yul\":1870:1887   */\n              add\n                /* \"#utility.yul\":1857:1888   */\n              calldataload\n                /* \"#utility.yul\":1915:1933   */\n              0xffffffffffffffff\n                /* \"#utility.yul\":1907:1913   */\n              dup2\n                /* \"#utility.yul\":1904:1934   */\n              gt\n                /* \"#utility.yul\":1901:2018   */\n              iszero\n              tag_206\n              jumpi\n                /* \"#utility.yul\":1937:2016   */\n              tag_207\n              tag_208\n              jump\t// in\n            tag_207:\n                /* \"#utility.yul\":1901:2018   */\n            tag_206:\n                /* \"#utility.yul\":2042:2105   */\n              tag_209\n                /* \"#utility.yul\":2097:2104   */\n              dup7\n                /* \"#utility.yul\":2088:2094   */\n              dup3\n                /* \"#utility.yul\":2077:2086   */\n              dup8\n                /* \"#utility.yul\":2073:2095   */\n              add\n                /* \"#utility.yul\":2042:2105   */\n              tag_188\n              jump\t// in\n            tag_209:\n                /* \"#utility.yul\":2032:2105   */\n              swap4\n              pop\n                /* \"#utility.yul\":1828:2115   */\n              pop\n                /* \"#utility.yul\":2154:2156   */\n              0x20\n                /* \"#utility.yul\":2180:2233   */\n              tag_210\n                /* \"#utility.yul\":2225:2232   */\n              dup7\n                /* \"#utility.yul\":2216:2222   */\n              dup3\n                /* \"#utility.yul\":2205:2214   */\n              dup8\n                /* \"#utility.yul\":2201:2223   */\n              add\n                /* \"#utility.yul\":2180:2233   */\n              tag_194\n              jump\t// in\n            tag_210:\n                /* \"#utility.yul\":2170:2233   */\n              swap3\n              pop\n                /* \"#utility.yul\":2125:2243   */\n              pop\n                /* \"#utility.yul\":2282:2284   */\n              0x40\n                /* \"#utility.yul\":2308:2369   */\n              tag_211\n                /* \"#utility.yul\":2361:2368   */\n              dup7\n                /* \"#utility.yul\":2352:2358   */\n              dup3\n                /* \"#utility.yul\":2341:2350   */\n              dup8\n                /* \"#utility.yul\":2337:2359   */\n              add\n                /* \"#utility.yul\":2308:2369   */\n              tag_184\n              jump\t// in\n            tag_211:\n                /* \"#utility.yul\":2298:2369   */\n              swap2\n              pop\n                /* \"#utility.yul\":2253:2379   */\n              pop\n                /* \"#utility.yul\":1571:2386   */\n              swap3\n              pop\n              swap3\n              pop\n              swap3\n              jump\t// out\n                /* \"#utility.yul\":2392:2721   */\n            tag_22:\n                /* \"#utility.yul\":2451:2457   */\n              0x00\n                /* \"#utility.yul\":2500:2502   */\n              0x20\n                /* \"#utility.yul\":2488:2497   */\n              dup3\n                /* \"#utility.yul\":2479:2486   */\n              dup5\n                /* \"#utility.yul\":2475:2498   */\n              sub\n                /* \"#utility.yul\":2471:2503   */\n              slt\n                /* \"#utility.yul\":2468:2587   */\n              iszero\n              tag_213\n              jumpi\n                /* \"#utility.yul\":2506:2585   */\n              tag_214\n              tag_201\n              jump\t// in\n            tag_214:\n                /* \"#utility.yul\":2468:2587   */\n            tag_213:\n                /* \"#utility.yul\":2626:2627   */\n              0x00\n                /* \"#utility.yul\":2651:2704   */\n              tag_215\n                /* \"#utility.yul\":2696:2703   */\n              dup5\n                /* \"#utility.yul\":2687:2693   */\n              dup3\n                /* \"#utility.yul\":2676:2685   */\n              dup6\n                /* \"#utility.yul\":2672:2694   */\n              add\n                /* \"#utility.yul\":2651:2704   */\n              tag_194\n              jump\t// in\n            tag_215:\n                /* \"#utility.yul\":2641:2704   */\n              swap2\n              pop\n                /* \"#utility.yul\":2597:2714   */\n              pop\n                /* \"#utility.yul\":2392:2721   */\n              swap3\n              swap2\n              pop\n              pop\n              jump\t// out\n                /* \"#utility.yul\":2727:2869   */\n            tag_216:\n                /* \"#utility.yul\":2830:2862   */\n              tag_218\n                /* \"#utility.yul\":2856:2861   */\n              dup2\n                /* \"#utility.yul\":2830:2862   */\n              tag_219\n              jump\t// in\n            tag_218:\n                /* \"#utility.yul\":2825:2828   */\n              dup3\n                /* \"#utility.yul\":2818:2863   */\n              mstore\n                /* \"#utility.yul\":2727:2869   */\n              pop\n              pop\n              jump\t// out\n                /* \"#utility.yul\":2875:2993   */\n            tag_220:\n                /* \"#utility.yul\":2962:2986   */\n              tag_222\n                /* \"#utility.yul\":2980:2985   */\n              dup2\n                /* \"#utility.yul\":2962:2986   */\n              tag_223\n              jump\t// in\n            tag_222:\n                /* \"#utility.yul\":2957:2960   */\n              dup3\n                /* \"#utility.yul\":2950:2987   */\n              mstore\n                /* \"#utility.yul\":2875:2993   */\n              pop\n              pop\n              jump\t// out\n                /* \"#utility.yul\":2999:3108   */\n            tag_224:\n                /* \"#utility.yul\":3080:3101   */\n              tag_226\n                /* \"#utility.yul\":3095:3100   */\n              dup2\n                /* \"#utility.yul\":3080:3101   */\n              tag_227\n              jump\t// in\n            tag_226:\n                /* \"#utility.yul\":3075:3078   */\n              dup3\n                /* \"#utility.yul\":3068:3102   */\n              mstore\n                /* \"#utility.yul\":2999:3108   */\n              pop\n              pop\n              jump\t// out\n                /* \"#utility.yul\":3114:3478   */\n            tag_228:\n                /* \"#utility.yul\":3202:3205   */\n              0x00\n                /* \"#utility.yul\":3230:3269   */\n              tag_230\n                /* \"#utility.yul\":3263:3268   */\n              dup3\n                /* \"#utility.yul\":3230:3269   */\n              tag_231\n              jump\t// in\n            tag_230:\n                /* \"#utility.yul\":3285:3356   */\n              tag_232\n                /* \"#utility.yul\":3349:3355   */\n              dup2\n                /* \"#utility.yul\":3344:3347   */\n              dup6\n                /* \"#utility.yul\":3285:3356   */\n              tag_233\n              jump\t// in\n            tag_232:\n                /* \"#utility.yul\":3278:3356   */\n              swap4\n              pop\n                /* \"#utility.yul\":3365:3417   */\n              tag_234\n                /* \"#utility.yul\":3410:3416   */\n              dup2\n                /* \"#utility.yul\":3405:3408   */\n              dup6\n                /* \"#utility.yul\":3398:3402   */\n              0x20\n                /* \"#utility.yul\":3391:3396   */\n              dup7\n                /* \"#utility.yul\":3387:3403   */\n              add\n                /* \"#utility.yul\":3365:3417   */\n              tag_235\n              jump\t// in\n            tag_234:\n                /* \"#utility.yul\":3442:3471   */\n              tag_236\n                /* \"#utility.yul\":3464:3470   */\n              dup2\n                /* \"#utility.yul\":3442:3471   */\n              tag_237\n              jump\t// in\n            tag_236:\n                /* \"#utility.yul\":3437:3440   */\n              dup5\n                /* \"#utility.yul\":3433:3472   */\n              add\n                /* \"#utility.yul\":3426:3472   */\n              swap2\n              pop\n                /* \"#utility.yul\":3206:3478   */\n              pop\n                /* \"#utility.yul\":3114:3478   */\n              swap3\n              swap2\n              pop\n              pop\n              jump\t// out\n                /* \"#utility.yul\":3484:3850   */\n            tag_238:\n                /* \"#utility.yul\":3626:3629   */\n              0x00\n                /* \"#utility.yul\":3647:3714   */\n              tag_240\n                /* \"#utility.yul\":3711:3713   */\n              0x18\n                /* \"#utility.yul\":3706:3709   */\n              dup4\n                /* \"#utility.yul\":3647:3714   */\n              tag_233\n              jump\t// in\n            tag_240:\n                /* \"#utility.yul\":3640:3714   */\n              swap2\n              pop\n                /* \"#utility.yul\":3723:3816   */\n              tag_241\n                /* \"#utility.yul\":3812:3815   */\n              dup3\n                /* \"#utility.yul\":3723:3816   */\n              tag_242\n              jump\t// in\n            tag_241:\n                /* \"#utility.yul\":3841:3843   */\n              0x20\n                /* \"#utility.yul\":3836:3839   */\n              dup3\n                /* \"#utility.yul\":3832:3844   */\n              add\n                /* \"#utility.yul\":3825:3844   */\n              swap1\n              pop\n                /* \"#utility.yul\":3484:3850   */\n              swap2\n              swap1\n              pop\n              jump\t// out\n                /* \"#utility.yul\":3856:4222   */\n            tag_243:\n                /* \"#utility.yul\":3998:4001   */\n              0x00\n                /* \"#utility.yul\":4019:4086   */\n              tag_245\n                /* \"#utility.yul\":4083:4085   */\n              0x2a\n                /* \"#utility.yul\":4078:4081   */\n              dup4\n                /* \"#utility.yul\":4019:4086   */\n              tag_233\n              jump\t// in\n            tag_245:\n                /* \"#utility.yul\":4012:4086   */\n              swap2\n              pop\n                /* \"#utility.yul\":4095:4188   */\n              tag_246\n                /* \"#utility.yul\":4184:4187   */\n              dup3\n                /* \"#utility.yul\":4095:4188   */\n              tag_247\n              jump\t// in\n            tag_246:\n                /* \"#utility.yul\":4213:4215   */\n              0x40\n                /* \"#utility.yul\":4208:4211   */\n              dup3\n                /* \"#utility.yul\":4204:4216   */\n              add\n                /* \"#utility.yul\":4197:4216   */\n              swap1\n              pop\n                /* \"#utility.yul\":3856:4222   */\n              swap2\n              swap1\n              pop\n              jump\t// out\n                /* \"#utility.yul\":4228:4594   */\n            tag_248:\n                /* \"#utility.yul\":4370:4373   */\n              0x00\n                /* \"#utility.yul\":4391:4458   */\n              tag_250\n                /* \"#utility.yul\":4455:4457   */\n              0x28\n                /* \"#utility.yul\":4450:4453   */\n              dup4\n                /* \"#utility.yul\":4391:4458   */\n              tag_233\n              jump\t// in\n            tag_250:\n                /* \"#utility.yul\":4384:4458   */\n              swap2\n              pop\n                /* \"#utility.yul\":4467:4560   */\n              tag_251\n                /* \"#utility.yul\":4556:4559   */\n              dup3\n                /* \"#utility.yul\":4467:4560   */\n              tag_252\n              jump\t// in\n            tag_251:\n                /* \"#utility.yul\":4585:4587   */\n              0x40\n                /* \"#utility.yul\":4580:4583   */\n              dup3\n                /* \"#utility.yul\":4576:4588   */\n              add\n                /* \"#utility.yul\":4569:4588   */\n              swap1\n              pop\n                /* \"#utility.yul\":4228:4594   */\n              swap2\n              swap1\n              pop\n              jump\t// out\n                /* \"#utility.yul\":4600:4966   */\n            tag_253:\n                /* \"#utility.yul\":4742:4745   */\n              0x00\n                /* \"#utility.yul\":4763:4830   */\n              tag_255\n                /* \"#utility.yul\":4827:4829   */\n              0x16\n                /* \"#utility.yul\":4822:4825   */\n              dup4\n                /* \"#utility.yul\":4763:4830   */\n              tag_233\n              jump\t// in\n            tag_255:\n                /* \"#utility.yul\":4756:4830   */\n              swap2\n              pop\n                /* \"#utility.yul\":4839:4932   */\n              tag_256\n                /* \"#utility.yul\":4928:4931   */\n              dup3\n                /* \"#utility.yul\":4839:4932   */\n              tag_257\n              jump\t// in\n            tag_256:\n                /* \"#utility.yul\":4957:4959   */\n              0x20\n                /* \"#utility.yul\":4952:4955   */\n              dup3\n                /* \"#utility.yul\":4948:4960   */\n              add\n                /* \"#utility.yul\":4941:4960   */\n              swap1\n              pop\n                /* \"#utility.yul\":4600:4966   */\n              swap2\n              swap1\n              pop\n              jump\t// out\n                /* \"#utility.yul\":4972:5338   */\n            tag_258:\n                /* \"#utility.yul\":5114:5117   */\n              0x00\n                /* \"#utility.yul\":5135:5202   */\n              tag_260\n                /* \"#utility.yul\":5199:5201   */\n              0x19\n                /* \"#utility.yul\":5194:5197   */\n              dup4\n                /* \"#utility.yul\":5135:5202   */\n              tag_233\n              jump\t// in\n            tag_260:\n                /* \"#utility.yul\":5128:5202   */\n              swap2\n              pop\n                /* \"#utility.yul\":5211:5304   */\n              tag_261\n                /* \"#utility.yul\":5300:5303   */\n              dup3\n                /* \"#utility.yul\":5211:5304   */\n              tag_262\n              jump\t// in\n            tag_261:\n                /* \"#utility.yul\":5329:5331   */\n              0x20\n                /* \"#utility.yul\":5324:5327   */\n              dup3\n                /* \"#utility.yul\":5320:5332   */\n              add\n                /* \"#utility.yul\":5313:5332   */\n              swap1\n              pop\n                /* \"#utility.yul\":4972:5338   */\n              swap2\n              swap1\n              pop\n              jump\t// out\n                /* \"#utility.yul\":5344:5710   */\n            tag_263:\n                /* \"#utility.yul\":5486:5489   */\n              0x00\n                /* \"#utility.yul\":5507:5574   */\n              tag_265\n                /* \"#utility.yul\":5571:5573   */\n              0x17\n                /* \"#utility.yul\":5566:5569   */\n              dup4\n                /* \"#utility.yul\":5507:5574   */\n              tag_233\n              jump\t// in\n            tag_265:\n                /* \"#utility.yul\":5500:5574   */\n              swap2\n              pop\n                /* \"#utility.yul\":5583:5676   */\n              tag_266\n                /* \"#utility.yul\":5672:5675   */\n              dup3\n                /* \"#utility.yul\":5583:5676   */\n              tag_267\n              jump\t// in\n            tag_266:\n                /* \"#utility.yul\":5701:5703   */\n              0x20\n                /* \"#utility.yul\":5696:5699   */\n              dup3\n                /* \"#utility.yul\":5692:5704   */\n              add\n                /* \"#utility.yul\":5685:5704   */\n              swap1\n              pop\n                /* \"#utility.yul\":5344:5710   */\n              swap2\n              swap1\n              pop\n              jump\t// out\n                /* \"#utility.yul\":5716:5834   */\n            tag_268:\n                /* \"#utility.yul\":5803:5827   */\n              tag_270\n                /* \"#utility.yul\":5821:5826   */\n              dup2\n                /* \"#utility.yul\":5803:5827   */\n              tag_271\n              jump\t// in\n            tag_270:\n                /* \"#utility.yul\":5798:5801   */\n              dup3\n                /* \"#utility.yul\":5791:5828   */\n              mstore\n                /* \"#utility.yul\":5716:5834   */\n              pop\n              pop\n              jump\t// out\n                /* \"#utility.yul\":5840:6062   */\n            tag_54:\n                /* \"#utility.yul\":5933:5937   */\n              0x00\n                /* \"#utility.yul\":5971:5973   */\n              0x20\n                /* \"#utility.yul\":5960:5969   */\n              dup3\n                /* \"#utility.yul\":5956:5974   */\n              add\n                /* \"#utility.yul\":5948:5974   */\n              swap1\n              pop\n                /* \"#utility.yul\":5984:6055   */\n              tag_273\n                /* \"#utility.yul\":6052:6053   */\n              0x00\n                /* \"#utility.yul\":6041:6050   */\n              dup4\n                /* \"#utility.yul\":6037:6054   */\n              add\n                /* \"#utility.yul\":6028:6034   */\n              dup5\n                /* \"#utility.yul\":5984:6055   */\n              tag_220\n              jump\t// in\n            tag_273:\n                /* \"#utility.yul\":5840:6062   */\n              swap3\n              swap2\n              pop\n              pop\n              jump\t// out\n                /* \"#utility.yul\":6068:6278   */\n            tag_35:\n                /* \"#utility.yul\":6155:6159   */\n              0x00\n                /* \"#utility.yul\":6193:6195   */\n              0x20\n                /* \"#utility.yul\":6182:6191   */\n              dup3\n                /* \"#utility.yul\":6178:6196   */\n              add\n                /* \"#utility.yul\":6170:6196   */\n              swap1\n              pop\n                /* \"#utility.yul\":6206:6271   */\n              tag_275\n                /* \"#utility.yul\":6268:6269   */\n              0x00\n                /* \"#utility.yul\":6257:6266   */\n              dup4\n                /* \"#utility.yul\":6253:6270   */\n              add\n                /* \"#utility.yul\":6244:6250   */\n              dup5\n                /* \"#utility.yul\":6206:6271   */\n              tag_224\n              jump\t// in\n            tag_275:\n                /* \"#utility.yul\":6068:6278   */\n              swap3\n              swap2\n              pop\n              pop\n              jump\t// out\n                /* \"#utility.yul\":6284:6597   */\n            tag_28:\n                /* \"#utility.yul\":6397:6401   */\n              0x00\n                /* \"#utility.yul\":6435:6437   */\n              0x20\n                /* \"#utility.yul\":6424:6433   */\n              dup3\n                /* \"#utility.yul\":6420:6438   */\n              add\n                /* \"#utility.yul\":6412:6438   */\n              swap1\n              pop\n                /* \"#utility.yul\":6484:6493   */\n              dup2\n                /* \"#utility.yul\":6478:6482   */\n              dup2\n                /* \"#utility.yul\":6474:6494   */\n              sub\n                /* \"#utility.yul\":6470:6471   */\n              0x00\n                /* \"#utility.yul\":6459:6468   */\n              dup4\n                /* \"#utility.yul\":6455:6472   */\n              add\n                /* \"#utility.yul\":6448:6495   */\n              mstore\n                /* \"#utility.yul\":6512:6590   */\n              tag_277\n                /* \"#utility.yul\":6585:6589   */\n              dup2\n                /* \"#utility.yul\":6576:6582   */\n              dup5\n                /* \"#utility.yul\":6512:6590   */\n              tag_228\n              jump\t// in\n            tag_277:\n                /* \"#utility.yul\":6504:6590   */\n              swap1\n              pop\n                /* \"#utility.yul\":6284:6597   */\n              swap3\n              swap2\n              pop\n              pop\n              jump\t// out\n                /* \"#utility.yul\":6603:7378   */\n            tag_64:\n                /* \"#utility.yul\":6838:6842   */\n              0x00\n                /* \"#utility.yul\":6876:6879   */\n              0xa0\n                /* \"#utility.yul\":6865:6874   */\n              dup3\n                /* \"#utility.yul\":6861:6880   */\n              add\n                /* \"#utility.yul\":6853:6880   */\n              swap1\n              pop\n                /* \"#utility.yul\":6926:6935   */\n              dup2\n                /* \"#utility.yul\":6920:6924   */\n              dup2\n                /* \"#utility.yul\":6916:6936   */\n              sub\n                /* \"#utility.yul\":6912:6913   */\n              0x00\n                /* \"#utility.yul\":6901:6910   */\n              dup4\n                /* \"#utility.yul\":6897:6914   */\n              add\n                /* \"#utility.yul\":6890:6937   */\n              mstore\n                /* \"#utility.yul\":6954:7032   */\n              tag_279\n                /* \"#utility.yul\":7027:7031   */\n              dup2\n                /* \"#utility.yul\":7018:7024   */\n              dup9\n                /* \"#utility.yul\":6954:7032   */\n              tag_228\n              jump\t// in\n            tag_279:\n                /* \"#utility.yul\":6946:7032   */\n              swap1\n              pop\n                /* \"#utility.yul\":7042:7114   */\n              tag_280\n                /* \"#utility.yul\":7110:7112   */\n              0x20\n                /* \"#utility.yul\":7099:7108   */\n              dup4\n                /* \"#utility.yul\":7095:7113   */\n              add\n                /* \"#utility.yul\":7086:7092   */\n              dup8\n                /* \"#utility.yul\":7042:7114   */\n              tag_268\n              jump\t// in\n            tag_280:\n                /* \"#utility.yul\":7124:7212   */\n              tag_281\n                /* \"#utility.yul\":7208:7210   */\n              0x40\n                /* \"#utility.yul\":7197:7206   */\n              dup4\n                /* \"#utility.yul\":7193:7211   */\n              add\n                /* \"#utility.yul\":7184:7190   */\n              dup7\n                /* \"#utility.yul\":7124:7212   */\n              tag_216\n              jump\t// in\n            tag_281:\n                /* \"#utility.yul\":7222:7288   */\n              tag_282\n                /* \"#utility.yul\":7284:7286   */\n              0x60\n                /* \"#utility.yul\":7273:7282   */\n              dup4\n                /* \"#utility.yul\":7269:7287   */\n              add\n                /* \"#utility.yul\":7260:7266   */\n              dup6\n                /* \"#utility.yul\":7222:7288   */\n              tag_224\n              jump\t// in\n            tag_282:\n                /* \"#utility.yul\":7298:7371   */\n              tag_283\n                /* \"#utility.yul\":7366:7369   */\n              0x80\n                /* \"#utility.yul\":7355:7364   */\n              dup4\n                /* \"#utility.yul\":7351:7370   */\n              add\n                /* \"#utility.yul\":7342:7348   */\n              dup5\n                /* \"#utility.yul\":7298:7371   */\n              tag_268\n              jump\t// in\n            tag_283:\n                /* \"#utility.yul\":6603:7378   */\n              swap7\n              swap6\n              pop\n              pop\n              pop\n              pop\n              pop\n              pop\n              jump\t// out\n                /* \"#utility.yul\":7384:7803   */\n            tag_96:\n                /* \"#utility.yul\":7550:7554   */\n              0x00\n                /* \"#utility.yul\":7588:7590   */\n              0x20\n                /* \"#utility.yul\":7577:7586   */\n              dup3\n                /* \"#utility.yul\":7573:7591   */\n              add\n                /* \"#utility.yul\":7565:7591   */\n              swap1\n              pop\n                /* \"#utility.yul\":7637:7646   */\n              dup2\n                /* \"#utility.yul\":7631:7635   */\n              dup2\n                /* \"#utility.yul\":7627:7647   */\n              sub\n                /* \"#utility.yul\":7623:7624   */\n              0x00\n                /* \"#utility.yul\":7612:7621   */\n              dup4\n                /* \"#utility.yul\":7608:7625   */\n              add\n                /* \"#utility.yul\":7601:7648   */\n              mstore\n                /* \"#utility.yul\":7665:7796   */\n              tag_285\n                /* \"#utility.yul\":7791:7795   */\n              dup2\n                /* \"#utility.yul\":7665:7796   */\n              tag_238\n              jump\t// in\n            tag_285:\n                /* \"#utility.yul\":7657:7796   */\n              swap1\n              pop\n                /* \"#utility.yul\":7384:7803   */\n              swap2\n              swap1\n              pop\n              jump\t// out\n                /* \"#utility.yul\":7809:8228   */\n            tag_93:\n                /* \"#utility.yul\":7975:7979   */\n              0x00\n                /* \"#utility.yul\":8013:8015   */\n              0x20\n                /* \"#utility.yul\":8002:8011   */\n              dup3\n                /* \"#utility.yul\":7998:8016   */\n              add\n                /* \"#utility.yul\":7990:8016   */\n              swap1\n              pop\n                /* \"#utility.yul\":8062:8071   */\n              dup2\n                /* \"#utility.yul\":8056:8060   */\n              dup2\n                /* \"#utility.yul\":8052:8072   */\n              sub\n                /* \"#utility.yul\":8048:8049   */\n              0x00\n                /* \"#utility.yul\":8037:8046   */\n              dup4\n                /* \"#utility.yul\":8033:8050   */\n              add\n                /* \"#utility.yul\":8026:8073   */\n              mstore\n                /* \"#utility.yul\":8090:8221   */\n              tag_287\n                /* \"#utility.yul\":8216:8220   */\n              dup2\n                /* \"#utility.yul\":8090:8221   */\n              tag_243\n              jump\t// in\n            tag_287:\n                /* \"#utility.yul\":8082:8221   */\n              swap1\n              pop\n                /* \"#utility.yul\":7809:8228   */\n              swap2\n              swap1\n              pop\n              jump\t// out\n                /* \"#utility.yul\":8234:8653   */\n            tag_87:\n                /* \"#utility.yul\":8400:8404   */\n              0x00\n                /* \"#utility.yul\":8438:8440   */\n              0x20\n                /* \"#utility.yul\":8427:8436   */\n              dup3\n                /* \"#utility.yul\":8423:8441   */\n              add\n                /* \"#utility.yul\":8415:8441   */\n              swap1\n              pop\n                /* \"#utility.yul\":8487:8496   */\n              dup2\n                /* \"#utility.yul\":8481:8485   */\n              dup2\n                /* \"#utility.yul\":8477:8497   */\n              sub\n                /* \"#utility.yul\":8473:8474   */\n              0x00\n                /* \"#utility.yul\":8462:8471   */\n              dup4\n                /* \"#utility.yul\":8458:8475   */\n              add\n                /* \"#utility.yul\":8451:8498   */\n              mstore\n                /* \"#utility.yul\":8515:8646   */\n              tag_289\n                /* \"#utility.yul\":8641:8645   */\n              dup2\n                /* \"#utility.yul\":8515:8646   */\n              tag_248\n              jump\t// in\n            tag_289:\n                /* \"#utility.yul\":8507:8646   */\n              swap1\n              pop\n                /* \"#utility.yul\":8234:8653   */\n              swap2\n              swap1\n              pop\n              jump\t// out\n                /* \"#utility.yul\":8659:9078   */\n            tag_156:\n                /* \"#utility.yul\":8825:8829   */\n              0x00\n                /* \"#utility.yul\":8863:8865   */\n              0x20\n                /* \"#utility.yul\":8852:8861   */\n              dup3\n                /* \"#utility.yul\":8848:8866   */\n              add\n                /* \"#utility.yul\":8840:8866   */\n              swap1\n              pop\n                /* \"#utility.yul\":8912:8921   */\n              dup2\n                /* \"#utility.yul\":8906:8910   */\n              dup2\n                /* \"#utility.yul\":8902:8922   */\n              sub\n                /* \"#utility.yul\":8898:8899   */\n              0x00\n                /* \"#utility.yul\":8887:8896   */\n              dup4\n                /* \"#utility.yul\":8883:8900   */\n              add\n                /* \"#utility.yul\":8876:8923   */\n              mstore\n                /* \"#utility.yul\":8940:9071   */\n              tag_291\n                /* \"#utility.yul\":9066:9070   */\n              dup2\n                /* \"#utility.yul\":8940:9071   */\n              tag_253\n              jump\t// in\n            tag_291:\n                /* \"#utility.yul\":8932:9071   */\n              swap1\n              pop\n                /* \"#utility.yul\":8659:9078   */\n              swap2\n              swap1\n              pop\n              jump\t// out\n                /* \"#utility.yul\":9084:9503   */\n            tag_153:\n                /* \"#utility.yul\":9250:9254   */\n              0x00\n                /* \"#utility.yul\":9288:9290   */\n              0x20\n                /* \"#utility.yul\":9277:9286   */\n              dup3\n                /* \"#utility.yul\":9273:9291   */\n              add\n                /* \"#utility.yul\":9265:9291   */\n              swap1\n              pop\n                /* \"#utility.yul\":9337:9346   */\n              dup2\n                /* \"#utility.yul\":9331:9335   */\n              dup2\n                /* \"#utility.yul\":9327:9347   */\n              sub\n                /* \"#utility.yul\":9323:9324   */\n              0x00\n                /* \"#utility.yul\":9312:9321   */\n              dup4\n                /* \"#utility.yul\":9308:9325   */\n              add\n                /* \"#utility.yul\":9301:9348   */\n              mstore\n                /* \"#utility.yul\":9365:9496   */\n              tag_293\n                /* \"#utility.yul\":9491:9495   */\n              dup2\n                /* \"#utility.yul\":9365:9496   */\n              tag_258\n              jump\t// in\n            tag_293:\n                /* \"#utility.yul\":9357:9496   */\n              swap1\n              pop\n                /* \"#utility.yul\":9084:9503   */\n              swap2\n              swap1\n              pop\n              jump\t// out\n                /* \"#utility.yul\":9509:9928   */\n            tag_148:\n                /* \"#utility.yul\":9675:9679   */\n              0x00\n                /* \"#utility.yul\":9713:9715   */\n              0x20\n                /* \"#utility.yul\":9702:9711   */\n              dup3\n                /* \"#utility.yul\":9698:9716   */\n              add\n                /* \"#utility.yul\":9690:9716   */\n              swap1\n              pop\n                /* \"#utility.yul\":9762:9771   */\n              dup2\n                /* \"#utility.yul\":9756:9760   */\n              dup2\n                /* \"#utility.yul\":9752:9772   */\n              sub\n                /* \"#utility.yul\":9748:9749   */\n              0x00\n                /* \"#utility.yul\":9737:9746   */\n              dup4\n                /* \"#utility.yul\":9733:9750   */\n              add\n                /* \"#utility.yul\":9726:9773   */\n              mstore\n                /* \"#utility.yul\":9790:9921   */\n              tag_295\n                /* \"#utility.yul\":9916:9920   */\n              dup2\n                /* \"#utility.yul\":9790:9921   */\n              tag_263\n              jump\t// in\n            tag_295:\n                /* \"#utility.yul\":9782:9921   */\n              swap1\n              pop\n                /* \"#utility.yul\":9509:9928   */\n              swap2\n              swap1\n              pop\n              jump\t// out\n                /* \"#utility.yul\":9934:10156   */\n            tag_44:\n                /* \"#utility.yul\":10027:10031   */\n              0x00\n                /* \"#utility.yul\":10065:10067   */\n              0x20\n                /* \"#utility.yul\":10054:10063   */\n              dup3\n                /* \"#utility.yul\":10050:10068   */\n              add\n                /* \"#utility.yul\":10042:10068   */\n              swap1\n              pop\n                /* \"#utility.yul\":10078:10149   */\n              tag_297\n                /* \"#utility.yul\":10146:10147   */\n              0x00\n                /* \"#utility.yul\":10135:10144   */\n              dup4\n                /* \"#utility.yul\":10131:10148   */\n              add\n                /* \"#utility.yul\":10122:10128   */\n              dup5\n                /* \"#utility.yul\":10078:10149   */\n              tag_268\n              jump\t// in\n            tag_297:\n                /* \"#utility.yul\":9934:10156   */\n              swap3\n              swap2\n              pop\n              pop\n              jump\t// out\n                /* \"#utility.yul\":10162:11432   */\n            tag_49:\n                /* \"#utility.yul\":10511:10515   */\n              0x00\n                /* \"#utility.yul\":10549:10552   */\n              0x0100\n                /* \"#utility.yul\":10538:10547   */\n              dup3\n                /* \"#utility.yul\":10534:10553   */\n              add\n                /* \"#utility.yul\":10526:10553   */\n              swap1\n              pop\n                /* \"#utility.yul\":10563:10634   */\n              tag_299\n                /* \"#utility.yul\":10631:10632   */\n              0x00\n                /* \"#utility.yul\":10620:10629   */\n              dup4\n                /* \"#utility.yul\":10616:10633   */\n              add\n                /* \"#utility.yul\":10607:10613   */\n              dup12\n                /* \"#utility.yul\":10563:10634   */\n              tag_268\n              jump\t// in\n            tag_299:\n                /* \"#utility.yul\":10644:10716   */\n              tag_300\n                /* \"#utility.yul\":10712:10714   */\n              0x20\n                /* \"#utility.yul\":10701:10710   */\n              dup4\n                /* \"#utility.yul\":10697:10715   */\n              add\n                /* \"#utility.yul\":10688:10694   */\n              dup11\n                /* \"#utility.yul\":10644:10716   */\n              tag_268\n              jump\t// in\n            tag_300:\n                /* \"#utility.yul\":10726:10798   */\n              tag_301\n                /* \"#utility.yul\":10794:10796   */\n              0x40\n                /* \"#utility.yul\":10783:10792   */\n              dup4\n                /* \"#utility.yul\":10779:10797   */\n              add\n                /* \"#utility.yul\":10770:10776   */\n              dup10\n                /* \"#utility.yul\":10726:10798   */\n              tag_268\n              jump\t// in\n            tag_301:\n                /* \"#utility.yul\":10808:10880   */\n              tag_302\n                /* \"#utility.yul\":10876:10878   */\n              0x60\n                /* \"#utility.yul\":10865:10874   */\n              dup4\n                /* \"#utility.yul\":10861:10879   */\n              add\n                /* \"#utility.yul\":10852:10858   */\n              dup9\n                /* \"#utility.yul\":10808:10880   */\n              tag_268\n              jump\t// in\n            tag_302:\n                /* \"#utility.yul\":10890:10963   */\n              tag_303\n                /* \"#utility.yul\":10958:10961   */\n              0x80\n                /* \"#utility.yul\":10947:10956   */\n              dup4\n                /* \"#utility.yul\":10943:10962   */\n              add\n                /* \"#utility.yul\":10934:10940   */\n              dup8\n                /* \"#utility.yul\":10890:10963   */\n              tag_220\n              jump\t// in\n            tag_303:\n                /* \"#utility.yul\":11011:11020   */\n              dup2\n                /* \"#utility.yul\":11005:11009   */\n              dup2\n                /* \"#utility.yul\":11001:11021   */\n              sub\n                /* \"#utility.yul\":10995:10998   */\n              0xa0\n                /* \"#utility.yul\":10984:10993   */\n              dup4\n                /* \"#utility.yul\":10980:10999   */\n              add\n                /* \"#utility.yul\":10973:11022   */\n              mstore\n                /* \"#utility.yul\":11039:11117   */\n              tag_304\n                /* \"#utility.yul\":11112:11116   */\n              dup2\n                /* \"#utility.yul\":11103:11109   */\n              dup7\n                /* \"#utility.yul\":11039:11117   */\n              tag_228\n              jump\t// in\n            tag_304:\n                /* \"#utility.yul\":11031:11117   */\n              swap1\n              pop\n                /* \"#utility.yul\":11165:11174   */\n              dup2\n                /* \"#utility.yul\":11159:11163   */\n              dup2\n                /* \"#utility.yul\":11155:11175   */\n              sub\n                /* \"#utility.yul\":11149:11152   */\n              0xc0\n                /* \"#utility.yul\":11138:11147   */\n              dup4\n                /* \"#utility.yul\":11134:11153   */\n              add\n                /* \"#utility.yul\":11127:11176   */\n              mstore\n                /* \"#utility.yul\":11193:11271   */\n              tag_305\n                /* \"#utility.yul\":11266:11270   */\n              dup2\n                /* \"#utility.yul\":11257:11263   */\n              dup6\n                /* \"#utility.yul\":11193:11271   */\n              tag_228\n              jump\t// in\n            tag_305:\n                /* \"#utility.yul\":11185:11271   */\n              swap1\n              pop\n                /* \"#utility.yul\":11319:11328   */\n              dup2\n                /* \"#utility.yul\":11313:11317   */\n              dup2\n                /* \"#utility.yul\":11309:11329   */\n              sub\n                /* \"#utility.yul\":11303:11306   */\n              0xe0\n                /* \"#utility.yul\":11292:11301   */\n              dup4\n                /* \"#utility.yul\":11288:11307   */\n              add\n                /* \"#utility.yul\":11281:11330   */\n              mstore\n                /* \"#utility.yul\":11347:11425   */\n              tag_306\n                /* \"#utility.yul\":11420:11424   */\n              dup2\n                /* \"#utility.yul\":11411:11417   */\n              dup5\n                /* \"#utility.yul\":11347:11425   */\n              tag_228\n              jump\t// in\n            tag_306:\n                /* \"#utility.yul\":11339:11425   */\n              swap1\n              pop\n                /* \"#utility.yul\":10162:11432   */\n              swap10\n              swap9\n              pop\n              pop\n              pop\n              pop\n              pop\n              pop\n              pop\n              pop\n              pop\n              jump\t// out\n                /* \"#utility.yul\":11438:11567   */\n            tag_174:\n                /* \"#utility.yul\":11472:11478   */\n              0x00\n                /* \"#utility.yul\":11499:11519   */\n              tag_308\n              tag_309\n              jump\t// in\n            tag_308:\n                /* \"#utility.yul\":11489:11519   */\n              swap1\n              pop\n                /* \"#utility.yul\":11528:11561   */\n              tag_310\n                /* \"#utility.yul\":11556:11560   */\n              dup3\n                /* \"#utility.yul\":11548:11554   */\n              dup3\n                /* \"#utility.yul\":11528:11561   */\n              tag_311\n              jump\t// in\n            tag_310:\n                /* \"#utility.yul\":11438:11567   */\n              swap2\n              swap1\n              pop\n              jump\t// out\n                /* \"#utility.yul\":11573:11648   */\n            tag_309:\n                /* \"#utility.yul\":11606:11612   */\n              0x00\n                /* \"#utility.yul\":11639:11641   */\n              0x40\n                /* \"#utility.yul\":11633:11642   */\n              mload\n                /* \"#utility.yul\":11623:11642   */\n              swap1\n              pop\n                /* \"#utility.yul\":11573:11648   */\n              swap1\n              jump\t// out\n                /* \"#utility.yul\":11654:11962   */\n            tag_173:\n                /* \"#utility.yul\":11716:11720   */\n              0x00\n                /* \"#utility.yul\":11806:11824   */\n              0xffffffffffffffff\n                /* \"#utility.yul\":11798:11804   */\n              dup3\n                /* \"#utility.yul\":11795:11825   */\n              gt\n                /* \"#utility.yul\":11792:11848   */\n              iszero\n              tag_314\n              jumpi\n                /* \"#utility.yul\":11828:11846   */\n              tag_315\n              tag_316\n              jump\t// in\n            tag_315:\n                /* \"#utility.yul\":11792:11848   */\n            tag_314:\n                /* \"#utility.yul\":11866:11895   */\n              tag_317\n                /* \"#utility.yul\":11888:11894   */\n              dup3\n                /* \"#utility.yul\":11866:11895   */\n              tag_237\n              jump\t// in\n            tag_317:\n                /* \"#utility.yul\":11858:11895   */\n              swap1\n              pop\n                /* \"#utility.yul\":11950:11954   */\n              0x20\n                /* \"#utility.yul\":11944:11948   */\n              dup2\n                /* \"#utility.yul\":11940:11955   */\n              add\n                /* \"#utility.yul\":11932:11955   */\n              swap1\n              pop\n                /* \"#utility.yul\":11654:11962   */\n              swap2\n              swap1\n              pop\n              jump\t// out\n                /* \"#utility.yul\":11968:12067   */\n            tag_231:\n                /* \"#utility.yul\":12020:12026   */\n              0x00\n                /* \"#utility.yul\":12054:12059   */\n              dup2\n                /* \"#utility.yul\":12048:12060   */\n              mload\n                /* \"#utility.yul\":12038:12060   */\n              swap1\n              pop\n                /* \"#utility.yul\":11968:12067   */\n              swap2\n              swap1\n              pop\n              jump\t// out\n                /* \"#utility.yul\":12073:12242   */\n            tag_233:\n                /* \"#utility.yul\":12157:12168   */\n              0x00\n                /* \"#utility.yul\":12191:12197   */\n              dup3\n                /* \"#utility.yul\":12186:12189   */\n              dup3\n                /* \"#utility.yul\":12179:12198   */\n              mstore\n                /* \"#utility.yul\":12231:12235   */\n              0x20\n                /* \"#utility.yul\":12226:12229   */\n              dup3\n                /* \"#utility.yul\":12222:12236   */\n              add\n                /* \"#utility.yul\":12207:12236   */\n              swap1\n              pop\n                /* \"#utility.yul\":12073:12242   */\n              swap3\n              swap2\n              pop\n              pop\n              jump\t// out\n                /* \"#utility.yul\":12248:12433   */\n            tag_90:\n                /* \"#utility.yul\":12288:12289   */\n              0x00\n                /* \"#utility.yul\":12305:12325   */\n              tag_321\n                /* \"#utility.yul\":12323:12324   */\n              dup3\n                /* \"#utility.yul\":12305:12325   */\n              tag_271\n              jump\t// in\n            tag_321:\n                /* \"#utility.yul\":12300:12325   */\n              swap2\n              pop\n                /* \"#utility.yul\":12339:12359   */\n              tag_322\n                /* \"#utility.yul\":12357:12358   */\n              dup4\n                /* \"#utility.yul\":12339:12359   */\n              tag_271\n              jump\t// in\n            tag_322:\n                /* \"#utility.yul\":12334:12359   */\n              swap3\n              pop\n                /* \"#utility.yul\":12378:12379   */\n              dup3\n                /* \"#utility.yul\":12368:12403   */\n              tag_323\n              jumpi\n                /* \"#utility.yul\":12383:12401   */\n              tag_324\n              tag_325\n              jump\t// in\n            tag_324:\n                /* \"#utility.yul\":12368:12403   */\n            tag_323:\n                /* \"#utility.yul\":12425:12426   */\n              dup3\n                /* \"#utility.yul\":12422:12423   */\n              dup3\n                /* \"#utility.yul\":12418:12427   */\n              div\n                /* \"#utility.yul\":12413:12427   */\n              swap1\n              pop\n                /* \"#utility.yul\":12248:12433   */\n              swap3\n              swap2\n              pop\n              pop\n              jump\t// out\n                /* \"#utility.yul\":12439:12535   */\n            tag_223:\n                /* \"#utility.yul\":12476:12483   */\n              0x00\n                /* \"#utility.yul\":12505:12529   */\n              tag_327\n                /* \"#utility.yul\":12523:12528   */\n              dup3\n                /* \"#utility.yul\":12505:12529   */\n              tag_328\n              jump\t// in\n            tag_327:\n                /* \"#utility.yul\":12494:12529   */\n              swap1\n              pop\n                /* \"#utility.yul\":12439:12535   */\n              swap2\n              swap1\n              pop\n              jump\t// out\n                /* \"#utility.yul\":12541:12645   */\n            tag_219:\n                /* \"#utility.yul\":12586:12593   */\n              0x00\n                /* \"#utility.yul\":12615:12639   */\n              tag_330\n                /* \"#utility.yul\":12633:12638   */\n              dup3\n                /* \"#utility.yul\":12615:12639   */\n              tag_328\n              jump\t// in\n            tag_330:\n                /* \"#utility.yul\":12604:12639   */\n              swap1\n              pop\n                /* \"#utility.yul\":12541:12645   */\n              swap2\n              swap1\n              pop\n              jump\t// out\n                /* \"#utility.yul\":12651:12741   */\n            tag_227:\n                /* \"#utility.yul\":12685:12692   */\n              0x00\n                /* \"#utility.yul\":12728:12733   */\n              dup2\n                /* \"#utility.yul\":12721:12734   */\n              iszero\n                /* \"#utility.yul\":12714:12735   */\n              iszero\n                /* \"#utility.yul\":12703:12735   */\n              swap1\n              pop\n                /* \"#utility.yul\":12651:12741   */\n              swap2\n              swap1\n              pop\n              jump\t// out\n                /* \"#utility.yul\":12747:12873   */\n            tag_328:\n                /* \"#utility.yul\":12784:12791   */\n              0x00\n                /* \"#utility.yul\":12824:12866   */\n              0xffffffffffffffffffffffffffffffffffffffff\n                /* \"#utility.yul\":12817:12822   */\n              dup3\n                /* \"#utility.yul\":12813:12867   */\n              and\n                /* \"#utility.yul\":12802:12867   */\n              swap1\n              pop\n                /* \"#utility.yul\":12747:12873   */\n              swap2\n              swap1\n              pop\n              jump\t// out\n                /* \"#utility.yul\":12879:12956   */\n            tag_271:\n                /* \"#utility.yul\":12916:12923   */\n              0x00\n                /* \"#utility.yul\":12945:12950   */\n              dup2\n                /* \"#utility.yul\":12934:12950   */\n              swap1\n              pop\n                /* \"#utility.yul\":12879:12956   */\n              swap2\n              swap1\n              pop\n              jump\t// out\n                /* \"#utility.yul\":12962:13116   */\n            tag_179:\n                /* \"#utility.yul\":13046:13052   */\n              dup3\n                /* \"#utility.yul\":13041:13044   */\n              dup2\n                /* \"#utility.yul\":13036:13039   */\n              dup4\n                /* \"#utility.yul\":13023:13053   */\n              calldatacopy\n                /* \"#utility.yul\":13108:13109   */\n              0x00\n                /* \"#utility.yul\":13099:13105   */\n              dup4\n                /* \"#utility.yul\":13094:13097   */\n              dup4\n                /* \"#utility.yul\":13090:13106   */\n              add\n                /* \"#utility.yul\":13083:13110   */\n              mstore\n                /* \"#utility.yul\":12962:13116   */\n              pop\n              pop\n              pop\n              jump\t// out\n                /* \"#utility.yul\":13122:13429   */\n            tag_235:\n                /* \"#utility.yul\":13190:13191   */\n              0x00\n                /* \"#utility.yul\":13200:13313   */\n            tag_336:\n                /* \"#utility.yul\":13214:13220   */\n              dup4\n                /* \"#utility.yul\":13211:13212   */\n              dup2\n                /* \"#utility.yul\":13208:13221   */\n              lt\n                /* \"#utility.yul\":13200:13313   */\n              iszero\n              tag_338\n              jumpi\n                /* \"#utility.yul\":13299:13300   */\n              dup1\n                /* \"#utility.yul\":13294:13297   */\n              dup3\n                /* \"#utility.yul\":13290:13301   */\n              add\n                /* \"#utility.yul\":13284:13302   */\n              mload\n                /* \"#utility.yul\":13280:13281   */\n              dup2\n                /* \"#utility.yul\":13275:13278   */\n              dup5\n                /* \"#utility.yul\":13271:13282   */\n              add\n                /* \"#utility.yul\":13264:13303   */\n              mstore\n                /* \"#utility.yul\":13236:13238   */\n              0x20\n                /* \"#utility.yul\":13233:13234   */\n              dup2\n                /* \"#utility.yul\":13229:13239   */\n              add\n                /* \"#utility.yul\":13224:13239   */\n              swap1\n              pop\n                /* \"#utility.yul\":13200:13313   */\n              jump(tag_336)\n            tag_338:\n                /* \"#utility.yul\":13331:13337   */\n              dup4\n                /* \"#utility.yul\":13328:13329   */\n              dup2\n                /* \"#utility.yul\":13325:13338   */\n              gt\n                /* \"#utility.yul\":13322:13423   */\n              iszero\n              tag_339\n              jumpi\n                /* \"#utility.yul\":13411:13412   */\n              0x00\n                /* \"#utility.yul\":13402:13408   */\n              dup5\n                /* \"#utility.yul\":13397:13400   */\n              dup5\n                /* \"#utility.yul\":13393:13409   */\n              add\n                /* \"#utility.yul\":13386:13413   */\n              mstore\n                /* \"#utility.yul\":13322:13423   */\n            tag_339:\n                /* \"#utility.yul\":13171:13429   */\n              pop\n                /* \"#utility.yul\":13122:13429   */\n              pop\n              pop\n              pop\n              jump\t// out\n                /* \"#utility.yul\":13435:13755   */\n            tag_100:\n                /* \"#utility.yul\":13479:13485   */\n              0x00\n                /* \"#utility.yul\":13516:13517   */\n              0x02\n                /* \"#utility.yul\":13510:13514   */\n              dup3\n                /* \"#utility.yul\":13506:13518   */\n              div\n                /* \"#utility.yul\":13496:13518   */\n              swap1\n              pop\n                /* \"#utility.yul\":13563:13564   */\n              0x01\n                /* \"#utility.yul\":13557:13561   */\n              dup3\n                /* \"#utility.yul\":13553:13565   */\n              and\n                /* \"#utility.yul\":13584:13602   */\n              dup1\n                /* \"#utility.yul\":13574:13655   */\n              tag_341\n              jumpi\n                /* \"#utility.yul\":13640:13644   */\n              0x7f\n                /* \"#utility.yul\":13632:13638   */\n              dup3\n                /* \"#utility.yul\":13628:13645   */\n              and\n                /* \"#utility.yul\":13618:13645   */\n              swap2\n              pop\n                /* \"#utility.yul\":13574:13655   */\n            tag_341:\n                /* \"#utility.yul\":13702:13704   */\n              0x20\n                /* \"#utility.yul\":13694:13700   */\n              dup3\n                /* \"#utility.yul\":13691:13705   */\n              lt\n                /* \"#utility.yul\":13671:13689   */\n              dup2\n                /* \"#utility.yul\":13668:13706   */\n              eq\n                /* \"#utility.yul\":13665:13749   */\n              iszero\n              tag_342\n              jumpi\n                /* \"#utility.yul\":13721:13739   */\n              tag_343\n              tag_344\n              jump\t// in\n            tag_343:\n                /* \"#utility.yul\":13665:13749   */\n            tag_342:\n                /* \"#utility.yul\":13486:13755   */\n              pop\n                /* \"#utility.yul\":13435:13755   */\n              swap2\n              swap1\n              pop\n              jump\t// out\n                /* \"#utility.yul\":13761:14042   */\n            tag_311:\n                /* \"#utility.yul\":13844:13871   */\n              tag_346\n                /* \"#utility.yul\":13866:13870   */\n              dup3\n                /* \"#utility.yul\":13844:13871   */\n              tag_237\n              jump\t// in\n            tag_346:\n                /* \"#utility.yul\":13836:13842   */\n              dup2\n                /* \"#utility.yul\":13832:13872   */\n              add\n                /* \"#utility.yul\":13974:13980   */\n              dup2\n                /* \"#utility.yul\":13962:13972   */\n              dup2\n                /* \"#utility.yul\":13959:13981   */\n              lt\n                /* \"#utility.yul\":13938:13956   */\n              0xffffffffffffffff\n                /* \"#utility.yul\":13926:13936   */\n              dup3\n                /* \"#utility.yul\":13923:13957   */\n              gt\n                /* \"#utility.yul\":13920:13982   */\n              or\n                /* \"#utility.yul\":13917:14005   */\n              iszero\n              tag_347\n              jumpi\n                /* \"#utility.yul\":13985:14003   */\n              tag_348\n              tag_316\n              jump\t// in\n            tag_348:\n                /* \"#utility.yul\":13917:14005   */\n            tag_347:\n                /* \"#utility.yul\":14025:14035   */\n              dup1\n                /* \"#utility.yul\":14021:14023   */\n              0x40\n                /* \"#utility.yul\":14014:14036   */\n              mstore\n                /* \"#utility.yul\":13804:14042   */\n              pop\n                /* \"#utility.yul\":13761:14042   */\n              pop\n              pop\n              jump\t// out\n                /* \"#utility.yul\":14048:14281   */\n            tag_142:\n                /* \"#utility.yul\":14087:14090   */\n              0x00\n                /* \"#utility.yul\":14110:14134   */\n              tag_350\n                /* \"#utility.yul\":14128:14133   */\n              dup3\n                /* \"#utility.yul\":14110:14134   */\n              tag_271\n              jump\t// in\n            tag_350:\n                /* \"#utility.yul\":14101:14134   */\n              swap2\n              pop\n                /* \"#utility.yul\":14156:14222   */\n              0xffffffffffffffffffffffffffffffffffffffffffffffffffffffffffffffff\n                /* \"#utility.yul\":14149:14154   */\n              dup3\n                /* \"#utility.yul\":14146:14223   */\n              eq\n                /* \"#utility.yul\":14143:14246   */\n              iszero\n              tag_351\n              jumpi\n                /* \"#utility.yul\":14226:14244   */\n              tag_352\n              tag_353\n              jump\t// in\n            tag_352:\n                /* \"#utility.yul\":14143:14246   */\n            tag_351:\n                /* \"#utility.yul\":14273:14274   */\n              0x01\n                /* \"#utility.yul\":14266:14271   */\n              dup3\n                /* \"#utility.yul\":14262:14275   */\n              add\n                /* \"#utility.yul\":14255:14275   */\n              swap1\n              pop\n                /* \"#utility.yul\":14048:14281   */\n              swap2\n              swap1\n              pop\n              jump\t// out\n                /* \"#utility.yul\":14287:14467   */\n            tag_353:\n                /* \"#utility.yul\":14335:14412   */\n              0x4e487b7100000000000000000000000000000000000000000000000000000000\n                /* \"#utility.yul\":14332:14333   */\n              0x00\n                /* \"#utility.yul\":14325:14413   */\n              mstore\n                /* \"#utility.yul\":14432:14436   */\n              0x11\n                /* \"#utility.yul\":14429:14430   */\n              0x04\n                /* \"#utility.yul\":14422:14437   */\n              mstore\n                /* \"#utility.yul\":14456:14460   */\n              0x24\n                /* \"#utility.yul\":14453:14454   */\n              0x00\n                /* \"#utility.yul\":14446:14461   */\n              revert\n                /* \"#utility.yul\":14473:14653   */\n            tag_325:\n                /* \"#utility.yul\":14521:14598   */\n              0x4e487b7100000000000000000000000000000000000000000000000000000000\n                /* \"#utility.yul\":14518:14519   */\n              0x00\n                /* \"#utility.yul\":14511:14599   */\n              mstore\n                /* \"#utility.yul\":14618:14622   */\n              0x12\n                /* \"#utility.yul\":14615:14616   */\n              0x04\n                /* \"#utility.yul\":14608:14623   */\n              mstore\n                /* \"#utility.yul\":14642:14646   */\n              0x24\n                /* \"#utility.yul\":14639:14640   */\n              0x00\n                /* \"#utility.yul\":14632:14647   */\n              revert\n                /* \"#utility.yul\":14659:14839   */\n            tag_344:\n                /* \"#utility.yul\":14707:14784   */\n              0x4e487b7100000000000000000000000000000000000000000000000000000000\n                /* \"#utility.yul\":14704:14705   */\n              0x00\n                /* \"#utility.yul\":14697:14785   */\n              mstore\n                /* \"#utility.yul\":14804:14808   */\n              0x22\n                /* \"#utility.yul\":14801:14802   */\n              0x04\n                /* \"#utility.yul\":14794:14809   */\n              mstore\n                /* \"#utility.yul\":14828:14832   */\n              0x24\n                /* \"#utility.yul\":14825:14826   */\n              0x00\n                /* \"#utility.yul\":14818:14833   */\n              revert\n                /* \"#utility.yul\":14845:15025   */\n            tag_316:\n                /* \"#utility.yul\":14893:14970   */\n              0x4e487b7100000000000000000000000000000000000000000000000000000000\n                /* \"#utility.yul\":14890:14891   */\n              0x00\n                /* \"#utility.yul\":14883:14971   */\n              mstore\n                /* \"#utility.yul\":14990:14994   */\n              0x41\n                /* \"#utility.yul\":14987:14988   */\n              0x04\n                /* \"#utility.yul\":14980:14995   */\n              mstore\n                /* \"#utility.yul\":15014:15018   */\n              0x24\n                /* \"#utility.yul\":15011:15012   */\n              0x00\n                /* \"#utility.yul\":15004:15019   */\n              revert\n                /* \"#utility.yul\":15031:15148   */\n            tag_192:\n                /* \"#utility.yul\":15140:15141   */\n              0x00\n                /* \"#utility.yul\":15137:15138   */\n              dup1\n                /* \"#utility.yul\":15130:15142   */\n              revert\n                /* \"#utility.yul\":15154:15271   */\n            tag_177:\n                /* \"#utility.yul\":15263:15264   */\n              0x00\n                /* \"#utility.yul\":15260:15261   */\n              dup1\n                /* \"#utility.yul\":15253:15265   */\n              revert\n                /* \"#utility.yul\":15277:15394   */\n            tag_208:\n                /* \"#utility.yul\":15386:15387   */\n              0x00\n                /* \"#utility.yul\":15383:15384   */\n              dup1\n                /* \"#utility.yul\":15376:15388   */\n              revert\n                /* \"#utility.yul\":15400:15517   */\n            tag_201:\n                /* \"#utility.yul\":15509:15510   */\n              0x00\n                /* \"#utility.yul\":15506:15507   */\n              dup1\n                /* \"#utility.yul\":15499:15511   */\n              revert\n                /* \"#utility.yul\":15523:15625   */\n            tag_237:\n                /* \"#utility.yul\":15564:15570   */\n              0x00\n                /* \"#utility.yul\":15615:15617   */\n              0x1f\n                /* \"#utility.yul\":15611:15618   */\n              not\n                /* \"#utility.yul\":15606:15608   */\n              0x1f\n                /* \"#utility.yul\":15599:15604   */\n              dup4\n                /* \"#utility.yul\":15595:15609   */\n              add\n                /* \"#utility.yul\":15591:15619   */\n              and\n                /* \"#utility.yul\":15581:15619   */\n              swap1\n              pop\n                /* \"#utility.yul\":15523:15625   */\n              swap2\n              swap1\n              pop\n              jump\t// out\n                /* \"#utility.yul\":15631:15805   */\n            tag_242:\n                /* \"#utility.yul\":15771:15797   */\n              0x5265717565737420616c726561647920636f6d706c6574650000000000000000\n                /* \"#utility.yul\":15767:15768   */\n              0x00\n                /* \"#utility.yul\":15759:15765   */\n              dup3\n                /* \"#utility.yul\":15755:15769   */\n              add\n                /* \"#utility.yul\":15748:15798   */\n              mstore\n                /* \"#utility.yul\":15631:15805   */\n              pop\n              jump\t// out\n                /* \"#utility.yul\":15811:16040   */\n            tag_247:\n                /* \"#utility.yul\":15951:15985   */\n              0x4c657373207468616e20353025206f6620636f6e7472696275746f7273206170\n                /* \"#utility.yul\":15947:15948   */\n              0x00\n                /* \"#utility.yul\":15939:15945   */\n              dup3\n                /* \"#utility.yul\":15935:15949   */\n              add\n                /* \"#utility.yul\":15928:15986   */\n              mstore\n                /* \"#utility.yul\":16020:16032   */\n              0x70726f7665207468697300000000000000000000000000000000000000000000\n                /* \"#utility.yul\":16015:16017   */\n              0x20\n                /* \"#utility.yul\":16007:16013   */\n              dup3\n                /* \"#utility.yul\":16003:16018   */\n              add\n                /* \"#utility.yul\":15996:16033   */\n              mstore\n                /* \"#utility.yul\":15811:16040   */\n              pop\n              jump\t// out\n                /* \"#utility.yul\":16046:16273   */\n            tag_252:\n                /* \"#utility.yul\":16186:16220   */\n              0x596f7520617265206e6f7420746865206d616e61676572206f66207468697320\n                /* \"#utility.yul\":16182:16183   */\n              0x00\n                /* \"#utility.yul\":16174:16180   */\n              dup3\n                /* \"#utility.yul\":16170:16184   */\n              add\n                /* \"#utility.yul\":16163:16221   */\n              mstore\n                /* \"#utility.yul\":16255:16265   */\n              0x636f6e7472616374000000000000000000000000000000000000000000000000\n                /* \"#utility.yul\":16250:16252   */\n              0x20\n                /* \"#utility.yul\":16242:16248   */\n              dup3\n                /* \"#utility.yul\":16238:16253   */\n              add\n                /* \"#utility.yul\":16231:16266   */\n              mstore\n                /* \"#utility.yul\":16046:16273   */\n              pop\n              jump\t// out\n                /* \"#utility.yul\":16279:16451   */\n            tag_257:\n                /* \"#utility.yul\":16419:16443   */\n              0x596f7520616c726561647920617070726f766520697400000000000000000000\n                /* \"#utility.yul\":16415:16416   */\n              0x00\n                /* \"#utility.yul\":16407:16413   */\n              dup3\n                /* \"#utility.yul\":16403:16417   */\n              add\n                /* \"#utility.yul\":16396:16444   */\n              mstore\n                /* \"#utility.yul\":16279:16451   */\n              pop\n              jump\t// out\n                /* \"#utility.yul\":16457:16632   */\n            tag_262:\n                /* \"#utility.yul\":16597:16624   */\n              0x596f7520617265206e6f742074686520617070726f7665727300000000000000\n                /* \"#utility.yul\":16593:16594   */\n              0x00\n                /* \"#utility.yul\":16585:16591   */\n              dup3\n                /* \"#utility.yul\":16581:16595   */\n              add\n                /* \"#utility.yul\":16574:16625   */\n              mstore\n                /* \"#utility.yul\":16457:16632   */\n              pop\n              jump\t// out\n                /* \"#utility.yul\":16638:16811   */\n            tag_267:\n                /* \"#utility.yul\":16778:16803   */\n              0x436f6e747269627574696f6e20697320746f6f206c6f77000000000000000000\n                /* \"#utility.yul\":16774:16775   */\n              0x00\n                /* \"#utility.yul\":16766:16772   */\n              dup3\n                /* \"#utility.yul\":16762:16776   */\n              add\n                /* \"#utility.yul\":16755:16804   */\n              mstore\n                /* \"#utility.yul\":16638:16811   */\n              pop\n              jump\t// out\n                /* \"#utility.yul\":16817:16939   */\n            tag_183:\n                /* \"#utility.yul\":16890:16914   */\n              tag_370\n                /* \"#utility.yul\":16908:16913   */\n              dup2\n                /* \"#utility.yul\":16890:16914   */\n              tag_223\n              jump\t// in\n            tag_370:\n                /* \"#utility.yul\":16883:16888   */\n              dup2\n                /* \"#utility.yul\":16880:16915   */\n              eq\n                /* \"#utility.yul\":16870:16933   */\n              tag_371\n              jumpi\n                /* \"#utility.yul\":16929:16930   */\n              0x00\n                /* \"#utility.yul\":16926:16927   */\n              dup1\n                /* \"#utility.yul\":16919:16931   */\n              revert\n                /* \"#utility.yul\":16870:16933   */\n            tag_371:\n                /* \"#utility.yul\":16817:16939   */\n              pop\n              jump\t// out\n                /* \"#utility.yul\":16945:17083   */\n            tag_187:\n                /* \"#utility.yul\":17026:17058   */\n              tag_373\n                /* \"#utility.yul\":17052:17057   */\n              dup2\n                /* \"#utility.yul\":17026:17058   */\n              tag_219\n              jump\t// in\n            tag_373:\n                /* \"#utility.yul\":17019:17024   */\n              dup2\n                /* \"#utility.yul\":17016:17059   */\n              eq\n                /* \"#utility.yul\":17006:17077   */\n              tag_374\n              jumpi\n                /* \"#utility.yul\":17073:17074   */\n              0x00\n                /* \"#utility.yul\":17070:17071   */\n              dup1\n                /* \"#utility.yul\":17063:17075   */\n              revert\n                /* \"#utility.yul\":17006:17077   */\n            tag_374:\n                /* \"#utility.yul\":16945:17083   */\n              pop\n              jump\t// out\n                /* \"#utility.yul\":17089:17211   */\n            tag_197:\n                /* \"#utility.yul\":17162:17186   */\n              tag_376\n                /* \"#utility.yul\":17180:17185   */\n              dup2\n                /* \"#utility.yul\":17162:17186   */\n              tag_271\n              jump\t// in\n            tag_376:\n                /* \"#utility.yul\":17155:17160   */\n              dup2\n                /* \"#utility.yul\":17152:17187   */\n              eq\n                /* \"#utility.yul\":17142:17205   */\n              tag_377\n              jumpi\n                /* \"#utility.yul\":17201:17202   */\n              0x00\n                /* \"#utility.yul\":17198:17199   */\n              dup1\n                /* \"#utility.yul\":17191:17203   */\n              revert\n                /* \"#utility.yul\":17142:17205   */\n            tag_377:\n                /* \"#utility.yul\":17089:17211   */\n              pop\n              jump\t// out\n\n            auxdata: 0xa26469706673582212202af90c556cbaa64fc01be8ab8e8e74daf26898e590461f68b8048cd8474e1f0f64736f6c63430008070033\n        }\n    }\n\n    auxdata: 0xa2646970667358221220891251c5cb555ae9d5a36195a6c922355be2f251fbd009577947c2c95aa1874264736f6c63430008070033\n}\n","bytecode":{"linkReferences":{},"object":"608060405234801561001057600080fd5b50612480806100206000396000f3fe60806040523480156200001157600080fd5b5060043610620000465760003560e01c8063339d50a5146200004b5780634acb9d4f14620000815780638ef0392814620000a3575b600080fd5b620000696004803603810190620000639190620002e5565b620000c3565b604051620000789190620004de565b60405180910390f35b6200008b62000103565b6040516200009a9190620004fb565b60405180910390f35b620000c16004803603810190620000bb919062000317565b62000193565b005b60008181548110620000d457600080fd5b906000526020600020016000915054906101000a900473ffffffffffffffffffffffffffffffffffffffff1681565b606060008054806020026020016040519081016040528092919081815260200182805480156200018957602002820191906000526020600020905b8160009054906101000a900473ffffffffffffffffffffffffffffffffffffffff1673ffffffffffffffffffffffffffffffffffffffff16815260200190600101908083116200013e575b5050505050905090565b60008433858585604051620001a89062000242565b620001b89594939291906200051f565b604051809103906000f080158015620001d5573d6000803e3d6000fd5b5090506000819080600181540180825580915050600190039060005260206000200160009091909190916101000a81548173ffffffffffffffffffffffffffffffffffffffff021916908373ffffffffffffffffffffffffffffffffffffffff1602179055505050505050565b611cde806200076d83390190565b6000620002676200026184620005ba565b62000591565b90508281526020810184848401111562000286576200028562000732565b5b6200029384828562000683565b509392505050565b600082601f830112620002b357620002b26200072d565b5b8135620002c584826020860162000250565b91505092915050565b600081359050620002df8162000752565b92915050565b600060208284031215620002fe57620002fd6200073c565b5b60006200030e84828501620002ce565b91505092915050565b600080600080608085870312156200033457620003336200073c565b5b60006200034487828801620002ce565b945050602085013567ffffffffffffffff81111562000368576200036762000737565b5b62000376878288016200029b565b935050604085013567ffffffffffffffff8111156200039a576200039962000737565b5b620003a8878288016200029b565b925050606085013567ffffffffffffffff811115620003cc57620003cb62000737565b5b620003da878288016200029b565b91505092959194509250565b6000620003f4838362000400565b60208301905092915050565b6200040b8162000645565b82525050565b6200041c8162000645565b82525050565b60006200042f8262000600565b6200043b818562000623565b93506200044883620005f0565b8060005b838110156200047f578151620004638882620003e6565b9750620004708362000616565b9250506001810190506200044c565b5085935050505092915050565b600062000499826200060b565b620004a5818562000634565b9350620004b781856020860162000692565b620004c28162000741565b840191505092915050565b620004d88162000679565b82525050565b6000602082019050620004f5600083018462000411565b92915050565b6000602082019050818103600083015262000517818462000422565b905092915050565b600060a082019050620005366000830188620004cd565b62000545602083018762000411565b81810360408301526200055981866200048c565b905081810360608301526200056f81856200048c565b905081810360808301526200058581846200048c565b90509695505050505050565b60006200059d620005b0565b9050620005ab8282620006c8565b919050565b6000604051905090565b600067ffffffffffffffff821115620005d857620005d7620006fe565b5b620005e38262000741565b9050602081019050919050565b6000819050602082019050919050565b600081519050919050565b600081519050919050565b6000602082019050919050565b600082825260208201905092915050565b600082825260208201905092915050565b6000620006528262000659565b9050919050565b600073ffffffffffffffffffffffffffffffffffffffff82169050919050565b6000819050919050565b82818337600083830152505050565b60005b83811015620006b257808201518184015260208101905062000695565b83811115620006c2576000848401525b50505050565b620006d38262000741565b810181811067ffffffffffffffff82111715620006f557620006f4620006fe565b5b80604052505050565b7f4e487b7100000000000000000000000000000000000000000000000000000000600052604160045260246000fd5b600080fd5b600080fd5b600080fd5b600080fd5b6000601f19601f8301169050919050565b6200075d8162000679565b81146200076957600080fd5b5056fe60806040523480156200001157600080fd5b5060405162001cde38038062001cde833981810160405281019062000037919062000230565b836000806101000a81548173ffffffffffffffffffffffffffffffffffffffff021916908373ffffffffffffffffffffffffffffffffffffffff16021790555084600181905550826002908051906020019062000096929190620000d4565b508160039080519060200190620000af929190620000d4565b508060049080519060200190620000c8929190620000d4565b5050505050506200050b565b828054620000e290620003e8565b90600052602060002090601f01602090048101928262000106576000855562000152565b82601f106200012157805160ff191683800117855562000152565b8280016001018555821562000152579182015b828111156200015157825182559160200191906001019062000134565b5b50905062000161919062000165565b5090565b5b808211156200018057600081600090555060010162000166565b5090565b60006200019b62000195846200033e565b62000315565b905082815260208101848484011115620001ba57620001b9620004b7565b5b620001c7848285620003b2565b509392505050565b600081519050620001e081620004d7565b92915050565b600082601f830112620001fe57620001fd620004b2565b5b81516200021084826020860162000184565b91505092915050565b6000815190506200022a81620004f1565b92915050565b600080600080600060a086880312156200024f576200024e620004c1565b5b60006200025f8882890162000219565b95505060206200027288828901620001cf565b945050604086015167ffffffffffffffff811115620002965762000295620004bc565b5b620002a488828901620001e6565b935050606086015167ffffffffffffffff811115620002c857620002c7620004bc565b5b620002d688828901620001e6565b925050608086015167ffffffffffffffff811115620002fa57620002f9620004bc565b5b6200030888828901620001e6565b9150509295509295909350565b60006200032162000334565b90506200032f82826200041e565b919050565b6000604051905090565b600067ffffffffffffffff8211156200035c576200035b62000483565b5b6200036782620004c6565b9050602081019050919050565b6000620003818262000388565b9050919050565b600073ffffffffffffffffffffffffffffffffffffffff82169050919050565b6000819050919050565b60005b83811015620003d2578082015181840152602081019050620003b5565b83811115620003e2576000848401525b50505050565b600060028204905060018216806200040157607f821691505b6020821081141562000418576200041762000454565b5b50919050565b6200042982620004c6565b810181811067ffffffffffffffff821117156200044b576200044a62000483565b5b80604052505050565b7f4e487b7100000000000000000000000000000000000000000000000000000000600052602260045260246000fd5b7f4e487b7100000000000000000000000000000000000000000000000000000000600052604160045260246000fd5b600080fd5b600080fd5b600080fd5b600080fd5b6000601f19601f8301169050919050565b620004e28162000374565b8114620004ee57600080fd5b50565b620004fc81620003a8565b81146200050857600080fd5b50565b6117c3806200051b6000396000f3fe6080604052600436106100dd5760003560e01c80637e5092201161007f5780638a9cfd55116100595780638a9cfd55146102bd578063937e09b1146102e6578063d7bb99ba14610311578063d7d1bbdb1461031b576100dd565b80637e5092201461022657806381d12c581461025157806382fde09314610292576100dd565b8063110842cb116100bb578063110842cb146101735780633410452a1461019e5780634051ddac146101c9578063481c6a75146101fb576100dd565b806303441006146100e25780630724fda91461010b5780630a14439114610136575b600080fd5b3480156100ee57600080fd5b5061010960048036038101906101049190610fa6565b610344565b005b34801561011757600080fd5b5061012061051f565b60405161012d9190611150565b60405180910390f35b34801561014257600080fd5b5061015d60048036038101906101589190610f0a565b6105ad565b60405161016a9190611135565b60405180910390f35b34801561017f57600080fd5b506101886105cd565b6040516101959190611150565b60405180910390f35b3480156101aa57600080fd5b506101b361065b565b6040516101c0919061128c565b60405180910390f35b3480156101d557600080fd5b506101de610665565b6040516101f29897969594939291906112a7565b60405180910390f35b34801561020757600080fd5b50610210610861565b60405161021d919061111a565b60405180910390f35b34801561023257600080fd5b5061023b610885565b6040516102489190611150565b60405180910390f35b34801561025d57600080fd5b5061027860048036038101906102739190610fa6565b610913565b604051610289959493929190611172565b60405180910390f35b34801561029e57600080fd5b506102a76109fe565b6040516102b4919061128c565b60405180910390f35b3480156102c957600080fd5b506102e460048036038101906102df9190610f37565b610a04565b005b3480156102f257600080fd5b506102fb610b51565b604051610308919061128c565b60405180910390f35b610319610b57565b005b34801561032757600080fd5b50610342600480360381019061033d9190610fa6565b610c0e565b005b60008054906101000a900473ffffffffffffffffffffffffffffffffffffffff1673ffffffffffffffffffffffffffffffffffffffff163373ffffffffffffffffffffffffffffffffffffffff16146103d2576040517f08c379a00000000000000000000000000000000000000000000000000000000081526004016103c99061120c565b60405180910390fd5b600060076000838152602001908152602001600020905060026008546103f891906113ac565b81600301541161043d576040517f08c379a0000000000000000000000000000000000000000000000000000000008152600401610434906111ec565b60405180910390fd5b8060020160149054906101000a900460ff161561048f576040517f08c379a0000000000000000000000000000000000000000000000000000000008152600401610486906111cc565b60405180910390fd5b8060020160009054906101000a900473ffffffffffffffffffffffffffffffffffffffff1673ffffffffffffffffffffffffffffffffffffffff166108fc82600101549081150290604051600060405180830381858888f193505050501580156104fd573d6000803e3d6000fd5b5060018160020160146101000a81548160ff0219169083151502179055505050565b6002805461052c90611479565b80601f016020809104026020016040519081016040528092919081815260200182805461055890611479565b80156105a55780601f1061057a576101008083540402835291602001916105a5565b820191906000526020600020905b81548152906001019060200180831161058857829003601f168201915b505050505081565b60056020528060005260406000206000915054906101000a900460ff1681565b600380546105da90611479565b80601f016020809104026020016040519081016040528092919081815260200182805461060690611479565b80156106535780601f1061062857610100808354040283529160200191610653565b820191906000526020600020905b81548152906001019060200180831161063657829003601f168201915b505050505081565b6000600654905090565b600080600080600060608060606001544760065460085460008054906101000a900473ffffffffffffffffffffffffffffffffffffffff166002600360048280546106af90611479565b80601f01602080910402602001604051908101604052809291908181526020018280546106db90611479565b80156107285780601f106106fd57610100808354040283529160200191610728565b820191906000526020600020905b81548152906001019060200180831161070b57829003601f168201915b5050505050925081805461073b90611479565b80601f016020809104026020016040519081016040528092919081815260200182805461076790611479565b80156107b45780601f10610789576101008083540402835291602001916107b4565b820191906000526020600020905b81548152906001019060200180831161079757829003601f168201915b505050505091508080546107c790611479565b80601f01602080910402602001604051908101604052809291908181526020018280546107f390611479565b80156108405780601f1061081557610100808354040283529160200191610840565b820191906000526020600020905b81548152906001019060200180831161082357829003601f168201915b50505050509050975097509750975097509750975097509091929394959697565b60008054906101000a900473ffffffffffffffffffffffffffffffffffffffff1681565b6004805461089290611479565b80601f01602080910402602001604051908101604052809291908181526020018280546108be90611479565b801561090b5780601f106108e05761010080835404028352916020019161090b565b820191906000526020600020905b8154815290600101906020018083116108ee57829003601f168201915b505050505081565b600760205280600052604060002060009150905080600001805461093690611479565b80601f016020809104026020016040519081016040528092919081815260200182805461096290611479565b80156109af5780601f10610984576101008083540402835291602001916109af565b820191906000526020600020905b81548152906001019060200180831161099257829003601f168201915b5050505050908060010154908060020160009054906101000a900473ffffffffffffffffffffffffffffffffffffffff16908060020160149054906101000a900460ff16908060030154905085565b60085481565b60008054906101000a900473ffffffffffffffffffffffffffffffffffffffff1673ffffffffffffffffffffffffffffffffffffffff163373ffffffffffffffffffffffffffffffffffffffff1614610a92576040517f08c379a0000000000000000000000000000000000000000000000000000000008152600401610a899061120c565b60405180910390fd5b60006007600060066000815480929190610aab906114dc565b919050558152602001908152602001600020905083816000019080519060200190610ad7929190610db8565b50828160010181905550818160020160006101000a81548173ffffffffffffffffffffffffffffffffffffffff021916908373ffffffffffffffffffffffffffffffffffffffff16021790555060008160020160146101000a81548160ff0219169083151502179055506000816003018190555050505050565b60015481565b600154341015610b9c576040517f08c379a0000000000000000000000000000000000000000000000000000000008152600401610b939061126c565b60405180910390fd5b6001600560003373ffffffffffffffffffffffffffffffffffffffff1673ffffffffffffffffffffffffffffffffffffffff16815260200190815260200160002060006101000a81548160ff02191690831515021790555060086000815480929190610c07906114dc565b9190505550565b6000600760008381526020019081526020016000209050600560003373ffffffffffffffffffffffffffffffffffffffff1673ffffffffffffffffffffffffffffffffffffffff16815260200190815260200160002060009054906101000a900460ff16610cb1576040517f08c379a0000000000000000000000000000000000000000000000000000000008152600401610ca89061124c565b60405180910390fd5b8060040160003373ffffffffffffffffffffffffffffffffffffffff1673ffffffffffffffffffffffffffffffffffffffff16815260200190815260200160002060009054906101000a900460ff1615610d40576040517f08c379a0000000000000000000000000000000000000000000000000000000008152600401610d379061122c565b60405180910390fd5b60018160040160003373ffffffffffffffffffffffffffffffffffffffff1673ffffffffffffffffffffffffffffffffffffffff16815260200190815260200160002060006101000a81548160ff021916908315150217905550806003016000815480929190610daf906114dc565b91905055505050565b828054610dc490611479565b90600052602060002090601f016020900481019282610de65760008555610e2d565b82601f10610dff57805160ff1916838001178555610e2d565b82800160010185558215610e2d579182015b82811115610e2c578251825591602001919060010190610e11565b5b509050610e3a9190610e3e565b5090565b5b80821115610e57576000816000905550600101610e3f565b5090565b6000610e6e610e698461135f565b61133a565b905082815260208101848484011115610e8a57610e896115e6565b5b610e95848285611437565b509392505050565b600081359050610eac81611748565b92915050565b600081359050610ec18161175f565b92915050565b600082601f830112610edc57610edb6115e1565b5b8135610eec848260208601610e5b565b91505092915050565b600081359050610f0481611776565b92915050565b600060208284031215610f2057610f1f6115f0565b5b6000610f2e84828501610e9d565b91505092915050565b600080600060608486031215610f5057610f4f6115f0565b5b600084013567ffffffffffffffff811115610f6e57610f6d6115eb565b5b610f7a86828701610ec7565b9350506020610f8b86828701610ef5565b9250506040610f9c86828701610eb2565b9150509250925092565b600060208284031215610fbc57610fbb6115f0565b5b6000610fca84828501610ef5565b91505092915050565b610fdc816113ef565b82525050565b610feb816113dd565b82525050565b610ffa81611401565b82525050565b600061100b82611390565b611015818561139b565b9350611025818560208601611446565b61102e816115f5565b840191505092915050565b600061104660188361139b565b915061105182611606565b602082019050919050565b6000611069602a8361139b565b91506110748261162f565b604082019050919050565b600061108c60288361139b565b91506110978261167e565b604082019050919050565b60006110af60168361139b565b91506110ba826116cd565b602082019050919050565b60006110d260198361139b565b91506110dd826116f6565b602082019050919050565b60006110f560178361139b565b91506111008261171f565b602082019050919050565b6111148161142d565b82525050565b600060208201905061112f6000830184610fe2565b92915050565b600060208201905061114a6000830184610ff1565b92915050565b6000602082019050818103600083015261116a8184611000565b905092915050565b600060a082019050818103600083015261118c8188611000565b905061119b602083018761110b565b6111a86040830186610fd3565b6111b56060830185610ff1565b6111c2608083018461110b565b9695505050505050565b600060208201905081810360008301526111e581611039565b9050919050565b600060208201905081810360008301526112058161105c565b9050919050565b600060208201905081810360008301526112258161107f565b9050919050565b60006020820190508181036000830152611245816110a2565b9050919050565b60006020820190508181036000830152611265816110c5565b9050919050565b60006020820190508181036000830152611285816110e8565b9050919050565b60006020820190506112a1600083018461110b565b92915050565b6000610100820190506112bd600083018b61110b565b6112ca602083018a61110b565b6112d7604083018961110b565b6112e4606083018861110b565b6112f16080830187610fe2565b81810360a08301526113038186611000565b905081810360c08301526113178185611000565b905081810360e083015261132b8184611000565b90509998505050505050505050565b6000611344611355565b905061135082826114ab565b919050565b6000604051905090565b600067ffffffffffffffff82111561137a576113796115b2565b5b611383826115f5565b9050602081019050919050565b600081519050919050565b600082825260208201905092915050565b60006113b78261142d565b91506113c28361142d565b9250826113d2576113d1611554565b5b828204905092915050565b60006113e88261140d565b9050919050565b60006113fa8261140d565b9050919050565b60008115159050919050565b600073ffffffffffffffffffffffffffffffffffffffff82169050919050565b6000819050919050565b82818337600083830152505050565b60005b83811015611464578082015181840152602081019050611449565b83811115611473576000848401525b50505050565b6000600282049050600182168061149157607f821691505b602082108114156114a5576114a4611583565b5b50919050565b6114b4826115f5565b810181811067ffffffffffffffff821117156114d3576114d26115b2565b5b80604052505050565b60006114e78261142d565b91507fffffffffffffffffffffffffffffffffffffffffffffffffffffffffffffffff82141561151a57611519611525565b5b600182019050919050565b7f4e487b7100000000000000000000000000000000000000000000000000000000600052601160045260246000fd5b7f4e487b7100000000000000000000000000000000000000000000000000000000600052601260045260246000fd5b7f4e487b7100000000000000000000000000000000000000000000000000000000600052602260045260246000fd5b7f4e487b7100000000000000000000000000000000000000000000000000000000600052604160045260246000fd5b600080fd5b600080fd5b600080fd5b600080fd5b6000601f19601f8301169050919050565b7f5265717565737420616c726561647920636f6d706c6574650000000000000000600082015250565b7f4c657373207468616e20353025206f6620636f6e7472696275746f727320617060008201527f70726f7665207468697300000000000000000000000000000000000000000000602082015250565b7f596f7520617265206e6f7420746865206d616e61676572206f6620746869732060008201527f636f6e7472616374000000000000000000000000000000000000000000000000602082015250565b7f596f7520616c726561647920617070726f766520697400000000000000000000600082015250565b7f596f7520617265206e6f742074686520617070726f7665727300000000000000600082015250565b7f436f6e747269627574696f6e20697320746f6f206c6f77000000000000000000600082015250565b611751816113dd565b811461175c57600080fd5b50565b611768816113ef565b811461177357600080fd5b50565b61177f8161142d565b811461178a57600080fd5b5056fea26469706673582212202af90c556cbaa64fc01be8ab8e8e74daf26898e590461f68b8048cd8474e1f0f64736f6c63430008070033a2646970667358221220891251c5cb555ae9d5a36195a6c922355be2f251fbd009577947c2c95aa1874264736f6c63430008070033","opcodes":"PUSH1 0x80 PUSH1 0x40 MSTORE CALLVALUE DUP1 ISZERO PUSH2 0x10 JUMPI PUSH1 0x0 DUP1 REVERT JUMPDEST POP PUSH2 0x2480 DUP1 PUSH2 0x20 PUSH1 0x0 CODECOPY PUSH1 0x0 RETURN INVALID PUSH1 0x80 PUSH1 0x40 MSTORE CALLVALUE DUP1 ISZERO PUSH3 0x11 JUMPI PUSH1 0x0 DUP1 REVERT JUMPDEST POP PUSH1 0x4 CALLDATASIZE LT PUSH3 0x46 JUMPI PUSH1 0x0 CALLDATALOAD PUSH1 0xE0 SHR DUP1 PUSH4 0x339D50A5 EQ PUSH3 0x4B JUMPI DUP1 PUSH4 0x4ACB9D4F EQ PUSH3 0x81 JUMPI DUP1 PUSH4 0x8EF03928 EQ PUSH3 0xA3 JUMPI JUMPDEST PUSH1 0x0 DUP1 REVERT JUMPDEST PUSH3 0x69 PUSH1 0x4 DUP1 CALLDATASIZE SUB DUP2 ADD SWAP1 PUSH3 0x63 SWAP2 SWAP1 PUSH3 0x2E5 JUMP JUMPDEST PUSH3 0xC3 JUMP JUMPDEST PUSH1 0x40 MLOAD PUSH3 0x78 SWAP2 SWAP1 PUSH3 0x4DE JUMP JUMPDEST PUSH1 0x40 MLOAD DUP1 SWAP2 SUB SWAP1 RETURN JUMPDEST PUSH3 0x8B PUSH3 0x103 JUMP JUMPDEST PUSH1 0x40 MLOAD PUSH3 0x9A SWAP2 SWAP1 PUSH3 0x4FB JUMP JUMPDEST PUSH1 0x40 MLOAD DUP1 SWAP2 SUB SWAP1 RETURN JUMPDEST PUSH3 0xC1 PUSH1 0x4 DUP1 CALLDATASIZE SUB DUP2 ADD SWAP1 PUSH3 0xBB SWAP2 SWAP1 PUSH3 0x317 JUMP JUMPDEST PUSH3 0x193 JUMP JUMPDEST STOP JUMPDEST PUSH1 0x0 DUP2 DUP2 SLOAD DUP2 LT PUSH3 0xD4 JUMPI PUSH1 0x0 DUP1 REVERT JUMPDEST SWAP1 PUSH1 0x0 MSTORE PUSH1 0x20 PUSH1 0x0 KECCAK256 ADD PUSH1 0x0 SWAP2 POP SLOAD SWAP1 PUSH2 0x100 EXP SWAP1 DIV PUSH20 0xFFFFFFFFFFFFFFFFFFFFFFFFFFFFFFFFFFFFFFFF AND DUP2 JUMP JUMPDEST PUSH1 0x60 PUSH1 0x0 DUP1 SLOAD DUP1 PUSH1 0x20 MUL PUSH1 0x20 ADD PUSH1 0x40 MLOAD SWAP1 DUP2 ADD PUSH1 0x40 MSTORE DUP1 SWAP3 SWAP2 SWAP1 DUP2 DUP2 MSTORE PUSH1 0x20 ADD DUP3 DUP1 SLOAD DUP1 ISZERO PUSH3 0x189 JUMPI PUSH1 0x20 MUL DUP3 ADD SWAP2 SWAP1 PUSH1 0x0 MSTORE PUSH1 0x20 PUSH1 0x0 KECCAK256 SWAP1 JUMPDEST DUP2 PUSH1 0x0 SWAP1 SLOAD SWAP1 PUSH2 0x100 EXP SWAP1 DIV PUSH20 0xFFFFFFFFFFFFFFFFFFFFFFFFFFFFFFFFFFFFFFFF AND PUSH20 0xFFFFFFFFFFFFFFFFFFFFFFFFFFFFFFFFFFFFFFFF AND DUP2 MSTORE PUSH1 0x20 ADD SWAP1 PUSH1 0x1 ADD SWAP1 DUP1 DUP4 GT PUSH3 0x13E JUMPI JUMPDEST POP POP POP POP POP SWAP1 POP SWAP1 JUMP JUMPDEST PUSH1 0x0 DUP5 CALLER DUP6 DUP6 DUP6 PUSH1 0x40 MLOAD PUSH3 0x1A8 SWAP1 PUSH3 0x242 JUMP JUMPDEST PUSH3 0x1B8 SWAP6 SWAP5 SWAP4 SWAP3 SWAP2 SWAP1 PUSH3 0x51F JUMP JUMPDEST PUSH1 0x40 MLOAD DUP1 SWAP2 SUB SWAP1 PUSH1 0x0 CREATE DUP1 ISZERO DUP1 ISZERO PUSH3 0x1D5 JUMPI RETURNDATASIZE PUSH1 0x0 DUP1 RETURNDATACOPY RETURNDATASIZE PUSH1 0x0 REVERT JUMPDEST POP SWAP1 POP PUSH1 0x0 DUP2 SWAP1 DUP1 PUSH1 0x1 DUP2 SLOAD ADD DUP1 DUP3 SSTORE DUP1 SWAP2 POP POP PUSH1 0x1 SWAP1 SUB SWAP1 PUSH1 0x0 MSTORE PUSH1 0x20 PUSH1 0x0 KECCAK256 ADD PUSH1 0x0 SWAP1 SWAP2 SWAP1 SWAP2 SWAP1 SWAP2 PUSH2 0x100 EXP DUP2 SLOAD DUP2 PUSH20 0xFFFFFFFFFFFFFFFFFFFFFFFFFFFFFFFFFFFFFFFF MUL NOT AND SWAP1 DUP4 PUSH20 0xFFFFFFFFFFFFFFFFFFFFFFFFFFFFFFFFFFFFFFFF AND MUL OR SWAP1 SSTORE POP POP POP POP POP POP JUMP JUMPDEST PUSH2 0x1CDE DUP1 PUSH3 0x76D DUP4 CODECOPY ADD SWAP1 JUMP JUMPDEST PUSH1 0x0 PUSH3 0x267 PUSH3 0x261 DUP5 PUSH3 0x5BA JUMP JUMPDEST PUSH3 0x591 JUMP JUMPDEST SWAP1 POP DUP3 DUP2 MSTORE PUSH1 0x20 DUP2 ADD DUP5 DUP5 DUP5 ADD GT ISZERO PUSH3 0x286 JUMPI PUSH3 0x285 PUSH3 0x732 JUMP JUMPDEST JUMPDEST PUSH3 0x293 DUP5 DUP3 DUP6 PUSH3 0x683 JUMP JUMPDEST POP SWAP4 SWAP3 POP POP POP JUMP JUMPDEST PUSH1 0x0 DUP3 PUSH1 0x1F DUP4 ADD SLT PUSH3 0x2B3 JUMPI PUSH3 0x2B2 PUSH3 0x72D JUMP JUMPDEST JUMPDEST DUP2 CALLDATALOAD PUSH3 0x2C5 DUP5 DUP3 PUSH1 0x20 DUP7 ADD PUSH3 0x250 JUMP JUMPDEST SWAP2 POP POP SWAP3 SWAP2 POP POP JUMP JUMPDEST PUSH1 0x0 DUP2 CALLDATALOAD SWAP1 POP PUSH3 0x2DF DUP2 PUSH3 0x752 JUMP JUMPDEST SWAP3 SWAP2 POP POP JUMP JUMPDEST PUSH1 0x0 PUSH1 0x20 DUP3 DUP5 SUB SLT ISZERO PUSH3 0x2FE JUMPI PUSH3 0x2FD PUSH3 0x73C JUMP JUMPDEST JUMPDEST PUSH1 0x0 PUSH3 0x30E DUP5 DUP3 DUP6 ADD PUSH3 0x2CE JUMP JUMPDEST SWAP2 POP POP SWAP3 SWAP2 POP POP JUMP JUMPDEST PUSH1 0x0 DUP1 PUSH1 0x0 DUP1 PUSH1 0x80 DUP6 DUP8 SUB SLT ISZERO PUSH3 0x334 JUMPI PUSH3 0x333 PUSH3 0x73C JUMP JUMPDEST JUMPDEST PUSH1 0x0 PUSH3 0x344 DUP8 DUP3 DUP9 ADD PUSH3 0x2CE JUMP JUMPDEST SWAP5 POP POP PUSH1 0x20 DUP6 ADD CALLDATALOAD PUSH8 0xFFFFFFFFFFFFFFFF DUP2 GT ISZERO PUSH3 0x368 JUMPI PUSH3 0x367 PUSH3 0x737 JUMP JUMPDEST JUMPDEST PUSH3 0x376 DUP8 DUP3 DUP9 ADD PUSH3 0x29B JUMP JUMPDEST SWAP4 POP POP PUSH1 0x40 DUP6 ADD CALLDATALOAD PUSH8 0xFFFFFFFFFFFFFFFF DUP2 GT ISZERO PUSH3 0x39A JUMPI PUSH3 0x399 PUSH3 0x737 JUMP JUMPDEST JUMPDEST PUSH3 0x3A8 DUP8 DUP3 DUP9 ADD PUSH3 0x29B JUMP JUMPDEST SWAP3 POP POP PUSH1 0x60 DUP6 ADD CALLDATALOAD PUSH8 0xFFFFFFFFFFFFFFFF DUP2 GT ISZERO PUSH3 0x3CC JUMPI PUSH3 0x3CB PUSH3 0x737 JUMP JUMPDEST JUMPDEST PUSH3 0x3DA DUP8 DUP3 DUP9 ADD PUSH3 0x29B JUMP JUMPDEST SWAP2 POP POP SWAP3 SWAP6 SWAP2 SWAP5 POP SWAP3 POP JUMP JUMPDEST PUSH1 0x0 PUSH3 0x3F4 DUP4 DUP4 PUSH3 0x400 JUMP JUMPDEST PUSH1 0x20 DUP4 ADD SWAP1 POP SWAP3 SWAP2 POP POP JUMP JUMPDEST PUSH3 0x40B DUP2 PUSH3 0x645 JUMP JUMPDEST DUP3 MSTORE POP POP JUMP JUMPDEST PUSH3 0x41C DUP2 PUSH3 0x645 JUMP JUMPDEST DUP3 MSTORE POP POP JUMP JUMPDEST PUSH1 0x0 PUSH3 0x42F DUP3 PUSH3 0x600 JUMP JUMPDEST PUSH3 0x43B DUP2 DUP6 PUSH3 0x623 JUMP JUMPDEST SWAP4 POP PUSH3 0x448 DUP4 PUSH3 0x5F0 JUMP JUMPDEST DUP1 PUSH1 0x0 JUMPDEST DUP4 DUP2 LT ISZERO PUSH3 0x47F JUMPI DUP2 MLOAD PUSH3 0x463 DUP9 DUP3 PUSH3 0x3E6 JUMP JUMPDEST SWAP8 POP PUSH3 0x470 DUP4 PUSH3 0x616 JUMP JUMPDEST SWAP3 POP POP PUSH1 0x1 DUP2 ADD SWAP1 POP PUSH3 0x44C JUMP JUMPDEST POP DUP6 SWAP4 POP POP POP POP SWAP3 SWAP2 POP POP JUMP JUMPDEST PUSH1 0x0 PUSH3 0x499 DUP3 PUSH3 0x60B JUMP JUMPDEST PUSH3 0x4A5 DUP2 DUP6 PUSH3 0x634 JUMP JUMPDEST SWAP4 POP PUSH3 0x4B7 DUP2 DUP6 PUSH1 0x20 DUP7 ADD PUSH3 0x692 JUMP JUMPDEST PUSH3 0x4C2 DUP2 PUSH3 0x741 JUMP JUMPDEST DUP5 ADD SWAP2 POP POP SWAP3 SWAP2 POP POP JUMP JUMPDEST PUSH3 0x4D8 DUP2 PUSH3 0x679 JUMP JUMPDEST DUP3 MSTORE POP POP JUMP JUMPDEST PUSH1 0x0 PUSH1 0x20 DUP3 ADD SWAP1 POP PUSH3 0x4F5 PUSH1 0x0 DUP4 ADD DUP5 PUSH3 0x411 JUMP JUMPDEST SWAP3 SWAP2 POP POP JUMP JUMPDEST PUSH1 0x0 PUSH1 0x20 DUP3 ADD SWAP1 POP DUP2 DUP2 SUB PUSH1 0x0 DUP4 ADD MSTORE PUSH3 0x517 DUP2 DUP5 PUSH3 0x422 JUMP JUMPDEST SWAP1 POP SWAP3 SWAP2 POP POP JUMP JUMPDEST PUSH1 0x0 PUSH1 0xA0 DUP3 ADD SWAP1 POP PUSH3 0x536 PUSH1 0x0 DUP4 ADD DUP9 PUSH3 0x4CD JUMP JUMPDEST PUSH3 0x545 PUSH1 0x20 DUP4 ADD DUP8 PUSH3 0x411 JUMP JUMPDEST DUP2 DUP2 SUB PUSH1 0x40 DUP4 ADD MSTORE PUSH3 0x559 DUP2 DUP7 PUSH3 0x48C JUMP JUMPDEST SWAP1 POP DUP2 DUP2 SUB PUSH1 0x60 DUP4 ADD MSTORE PUSH3 0x56F DUP2 DUP6 PUSH3 0x48C JUMP JUMPDEST SWAP1 POP DUP2 DUP2 SUB PUSH1 0x80 DUP4 ADD MSTORE PUSH3 0x585 DUP2 DUP5 PUSH3 0x48C JUMP JUMPDEST SWAP1 POP SWAP7 SWAP6 POP POP POP POP POP POP JUMP JUMPDEST PUSH1 0x0 PUSH3 0x59D PUSH3 0x5B0 JUMP JUMPDEST SWAP1 POP PUSH3 0x5AB DUP3 DUP3 PUSH3 0x6C8 JUMP JUMPDEST SWAP2 SWAP1 POP JUMP JUMPDEST PUSH1 0x0 PUSH1 0x40 MLOAD SWAP1 POP SWAP1 JUMP JUMPDEST PUSH1 0x0 PUSH8 0xFFFFFFFFFFFFFFFF DUP3 GT ISZERO PUSH3 0x5D8 JUMPI PUSH3 0x5D7 PUSH3 0x6FE JUMP JUMPDEST JUMPDEST PUSH3 0x5E3 DUP3 PUSH3 0x741 JUMP JUMPDEST SWAP1 POP PUSH1 0x20 DUP2 ADD SWAP1 POP SWAP2 SWAP1 POP JUMP JUMPDEST PUSH1 0x0 DUP2 SWAP1 POP PUSH1 0x20 DUP3 ADD SWAP1 POP SWAP2 SWAP1 POP JUMP JUMPDEST PUSH1 0x0 DUP2 MLOAD SWAP1 POP SWAP2 SWAP1 POP JUMP JUMPDEST PUSH1 0x0 DUP2 MLOAD SWAP1 POP SWAP2 SWAP1 POP JUMP JUMPDEST PUSH1 0x0 PUSH1 0x20 DUP3 ADD SWAP1 POP SWAP2 SWAP1 POP JUMP JUMPDEST PUSH1 0x0 DUP3 DUP3 MSTORE PUSH1 0x20 DUP3 ADD SWAP1 POP SWAP3 SWAP2 POP POP JUMP JUMPDEST PUSH1 0x0 DUP3 DUP3 MSTORE PUSH1 0x20 DUP3 ADD SWAP1 POP SWAP3 SWAP2 POP POP JUMP JUMPDEST PUSH1 0x0 PUSH3 0x652 DUP3 PUSH3 0x659 JUMP JUMPDEST SWAP1 POP SWAP2 SWAP1 POP JUMP JUMPDEST PUSH1 0x0 PUSH20 0xFFFFFFFFFFFFFFFFFFFFFFFFFFFFFFFFFFFFFFFF DUP3 AND SWAP1 POP SWAP2 SWAP1 POP JUMP JUMPDEST PUSH1 0x0 DUP2 SWAP1 POP SWAP2 SWAP1 POP JUMP JUMPDEST DUP3 DUP2 DUP4 CALLDATACOPY PUSH1 0x0 DUP4 DUP4 ADD MSTORE POP POP POP JUMP JUMPDEST PUSH1 0x0 JUMPDEST DUP4 DUP2 LT ISZERO PUSH3 0x6B2 JUMPI DUP1 DUP3 ADD MLOAD DUP2 DUP5 ADD MSTORE PUSH1 0x20 DUP2 ADD SWAP1 POP PUSH3 0x695 JUMP JUMPDEST DUP4 DUP2 GT ISZERO PUSH3 0x6C2 JUMPI PUSH1 0x0 DUP5 DUP5 ADD MSTORE JUMPDEST POP POP POP POP JUMP JUMPDEST PUSH3 0x6D3 DUP3 PUSH3 0x741 JUMP JUMPDEST DUP2 ADD DUP2 DUP2 LT PUSH8 0xFFFFFFFFFFFFFFFF DUP3 GT OR ISZERO PUSH3 0x6F5 JUMPI PUSH3 0x6F4 PUSH3 0x6FE JUMP JUMPDEST JUMPDEST DUP1 PUSH1 0x40 MSTORE POP POP POP JUMP JUMPDEST PUSH32 0x4E487B7100000000000000000000000000000000000000000000000000000000 PUSH1 0x0 MSTORE PUSH1 0x41 PUSH1 0x4 MSTORE PUSH1 0x24 PUSH1 0x0 REVERT JUMPDEST PUSH1 0x0 DUP1 REVERT JUMPDEST PUSH1 0x0 DUP1 REVERT JUMPDEST PUSH1 0x0 DUP1 REVERT JUMPDEST PUSH1 0x0 DUP1 REVERT JUMPDEST PUSH1 0x0 PUSH1 0x1F NOT PUSH1 0x1F DUP4 ADD AND SWAP1 POP SWAP2 SWAP1 POP JUMP JUMPDEST PUSH3 0x75D DUP2 PUSH3 0x679 JUMP JUMPDEST DUP2 EQ PUSH3 0x769 JUMPI PUSH1 0x0 DUP1 REVERT JUMPDEST POP JUMP INVALID PUSH1 0x80 PUSH1 0x40 MSTORE CALLVALUE DUP1 ISZERO PUSH3 0x11 JUMPI PUSH1 0x0 DUP1 REVERT JUMPDEST POP PUSH1 0x40 MLOAD PUSH3 0x1CDE CODESIZE SUB DUP1 PUSH3 0x1CDE DUP4 CODECOPY DUP2 DUP2 ADD PUSH1 0x40 MSTORE DUP2 ADD SWAP1 PUSH3 0x37 SWAP2 SWAP1 PUSH3 0x230 JUMP JUMPDEST DUP4 PUSH1 0x0 DUP1 PUSH2 0x100 EXP DUP2 SLOAD DUP2 PUSH20 0xFFFFFFFFFFFFFFFFFFFFFFFFFFFFFFFFFFFFFFFF MUL NOT AND SWAP1 DUP4 PUSH20 0xFFFFFFFFFFFFFFFFFFFFFFFFFFFFFFFFFFFFFFFF AND MUL OR SWAP1 SSTORE POP DUP5 PUSH1 0x1 DUP2 SWAP1 SSTORE POP DUP3 PUSH1 0x2 SWAP1 DUP1 MLOAD SWAP1 PUSH1 0x20 ADD SWAP1 PUSH3 0x96 SWAP3 SWAP2 SWAP1 PUSH3 0xD4 JUMP JUMPDEST POP DUP2 PUSH1 0x3 SWAP1 DUP1 MLOAD SWAP1 PUSH1 0x20 ADD SWAP1 PUSH3 0xAF SWAP3 SWAP2 SWAP1 PUSH3 0xD4 JUMP JUMPDEST POP DUP1 PUSH1 0x4 SWAP1 DUP1 MLOAD SWAP1 PUSH1 0x20 ADD SWAP1 PUSH3 0xC8 SWAP3 SWAP2 SWAP1 PUSH3 0xD4 JUMP JUMPDEST POP POP POP POP POP POP PUSH3 0x50B JUMP JUMPDEST DUP3 DUP1 SLOAD PUSH3 0xE2 SWAP1 PUSH3 0x3E8 JUMP JUMPDEST SWAP1 PUSH1 0x0 MSTORE PUSH1 0x20 PUSH1 0x0 KECCAK256 SWAP1 PUSH1 0x1F ADD PUSH1 0x20 SWAP1 DIV DUP2 ADD SWAP3 DUP3 PUSH3 0x106 JUMPI PUSH1 0x0 DUP6 SSTORE PUSH3 0x152 JUMP JUMPDEST DUP3 PUSH1 0x1F LT PUSH3 0x121 JUMPI DUP1 MLOAD PUSH1 0xFF NOT AND DUP4 DUP1 ADD OR DUP6 SSTORE PUSH3 0x152 JUMP JUMPDEST DUP3 DUP1 ADD PUSH1 0x1 ADD DUP6 SSTORE DUP3 ISZERO PUSH3 0x152 JUMPI SWAP2 DUP3 ADD JUMPDEST DUP3 DUP2 GT ISZERO PUSH3 0x151 JUMPI DUP3 MLOAD DUP3 SSTORE SWAP2 PUSH1 0x20 ADD SWAP2 SWAP1 PUSH1 0x1 ADD SWAP1 PUSH3 0x134 JUMP JUMPDEST JUMPDEST POP SWAP1 POP PUSH3 0x161 SWAP2 SWAP1 PUSH3 0x165 JUMP JUMPDEST POP SWAP1 JUMP JUMPDEST JUMPDEST DUP1 DUP3 GT ISZERO PUSH3 0x180 JUMPI PUSH1 0x0 DUP2 PUSH1 0x0 SWAP1 SSTORE POP PUSH1 0x1 ADD PUSH3 0x166 JUMP JUMPDEST POP SWAP1 JUMP JUMPDEST PUSH1 0x0 PUSH3 0x19B PUSH3 0x195 DUP5 PUSH3 0x33E JUMP JUMPDEST PUSH3 0x315 JUMP JUMPDEST SWAP1 POP DUP3 DUP2 MSTORE PUSH1 0x20 DUP2 ADD DUP5 DUP5 DUP5 ADD GT ISZERO PUSH3 0x1BA JUMPI PUSH3 0x1B9 PUSH3 0x4B7 JUMP JUMPDEST JUMPDEST PUSH3 0x1C7 DUP5 DUP3 DUP6 PUSH3 0x3B2 JUMP JUMPDEST POP SWAP4 SWAP3 POP POP POP JUMP JUMPDEST PUSH1 0x0 DUP2 MLOAD SWAP1 POP PUSH3 0x1E0 DUP2 PUSH3 0x4D7 JUMP JUMPDEST SWAP3 SWAP2 POP POP JUMP JUMPDEST PUSH1 0x0 DUP3 PUSH1 0x1F DUP4 ADD SLT PUSH3 0x1FE JUMPI PUSH3 0x1FD PUSH3 0x4B2 JUMP JUMPDEST JUMPDEST DUP2 MLOAD PUSH3 0x210 DUP5 DUP3 PUSH1 0x20 DUP7 ADD PUSH3 0x184 JUMP JUMPDEST SWAP2 POP POP SWAP3 SWAP2 POP POP JUMP JUMPDEST PUSH1 0x0 DUP2 MLOAD SWAP1 POP PUSH3 0x22A DUP2 PUSH3 0x4F1 JUMP JUMPDEST SWAP3 SWAP2 POP POP JUMP JUMPDEST PUSH1 0x0 DUP1 PUSH1 0x0 DUP1 PUSH1 0x0 PUSH1 0xA0 DUP7 DUP9 SUB SLT ISZERO PUSH3 0x24F JUMPI PUSH3 0x24E PUSH3 0x4C1 JUMP JUMPDEST JUMPDEST PUSH1 0x0 PUSH3 0x25F DUP9 DUP3 DUP10 ADD PUSH3 0x219 JUMP JUMPDEST SWAP6 POP POP PUSH1 0x20 PUSH3 0x272 DUP9 DUP3 DUP10 ADD PUSH3 0x1CF JUMP JUMPDEST SWAP5 POP POP PUSH1 0x40 DUP7 ADD MLOAD PUSH8 0xFFFFFFFFFFFFFFFF DUP2 GT ISZERO PUSH3 0x296 JUMPI PUSH3 0x295 PUSH3 0x4BC JUMP JUMPDEST JUMPDEST PUSH3 0x2A4 DUP9 DUP3 DUP10 ADD PUSH3 0x1E6 JUMP JUMPDEST SWAP4 POP POP PUSH1 0x60 DUP7 ADD MLOAD PUSH8 0xFFFFFFFFFFFFFFFF DUP2 GT ISZERO PUSH3 0x2C8 JUMPI PUSH3 0x2C7 PUSH3 0x4BC JUMP JUMPDEST JUMPDEST PUSH3 0x2D6 DUP9 DUP3 DUP10 ADD PUSH3 0x1E6 JUMP JUMPDEST SWAP3 POP POP PUSH1 0x80 DUP7 ADD MLOAD PUSH8 0xFFFFFFFFFFFFFFFF DUP2 GT ISZERO PUSH3 0x2FA JUMPI PUSH3 0x2F9 PUSH3 0x4BC JUMP JUMPDEST JUMPDEST PUSH3 0x308 DUP9 DUP3 DUP10 ADD PUSH3 0x1E6 JUMP JUMPDEST SWAP2 POP POP SWAP3 SWAP6 POP SWAP3 SWAP6 SWAP1 SWAP4 POP JUMP JUMPDEST PUSH1 0x0 PUSH3 0x321 PUSH3 0x334 JUMP JUMPDEST SWAP1 POP PUSH3 0x32F DUP3 DUP3 PUSH3 0x41E JUMP JUMPDEST SWAP2 SWAP1 POP JUMP JUMPDEST PUSH1 0x0 PUSH1 0x40 MLOAD SWAP1 POP SWAP1 JUMP JUMPDEST PUSH1 0x0 PUSH8 0xFFFFFFFFFFFFFFFF DUP3 GT ISZERO PUSH3 0x35C JUMPI PUSH3 0x35B PUSH3 0x483 JUMP JUMPDEST JUMPDEST PUSH3 0x367 DUP3 PUSH3 0x4C6 JUMP JUMPDEST SWAP1 POP PUSH1 0x20 DUP2 ADD SWAP1 POP SWAP2 SWAP1 POP JUMP JUMPDEST PUSH1 0x0 PUSH3 0x381 DUP3 PUSH3 0x388 JUMP JUMPDEST SWAP1 POP SWAP2 SWAP1 POP JUMP JUMPDEST PUSH1 0x0 PUSH20 0xFFFFFFFFFFFFFFFFFFFFFFFFFFFFFFFFFFFFFFFF DUP3 AND SWAP1 POP SWAP2 SWAP1 POP JUMP JUMPDEST PUSH1 0x0 DUP2 SWAP1 POP SWAP2 SWAP1 POP JUMP JUMPDEST PUSH1 0x0 JUMPDEST DUP4 DUP2 LT ISZERO PUSH3 0x3D2 JUMPI DUP1 DUP3 ADD MLOAD DUP2 DUP5 ADD MSTORE PUSH1 0x20 DUP2 ADD SWAP1 POP PUSH3 0x3B5 JUMP JUMPDEST DUP4 DUP2 GT ISZERO PUSH3 0x3E2 JUMPI PUSH1 0x0 DUP5 DUP5 ADD MSTORE JUMPDEST POP POP POP POP JUMP JUMPDEST PUSH1 0x0 PUSH1 0x2 DUP3 DIV SWAP1 POP PUSH1 0x1 DUP3 AND DUP1 PUSH3 0x401 JUMPI PUSH1 0x7F DUP3 AND SWAP2 POP JUMPDEST PUSH1 0x20 DUP3 LT DUP2 EQ ISZERO PUSH3 0x418 JUMPI PUSH3 0x417 PUSH3 0x454 JUMP JUMPDEST JUMPDEST POP SWAP2 SWAP1 POP JUMP JUMPDEST PUSH3 0x429 DUP3 PUSH3 0x4C6 JUMP JUMPDEST DUP2 ADD DUP2 DUP2 LT PUSH8 0xFFFFFFFFFFFFFFFF DUP3 GT OR ISZERO PUSH3 0x44B JUMPI PUSH3 0x44A PUSH3 0x483 JUMP JUMPDEST JUMPDEST DUP1 PUSH1 0x40 MSTORE POP POP POP JUMP JUMPDEST PUSH32 0x4E487B7100000000000000000000000000000000000000000000000000000000 PUSH1 0x0 MSTORE PUSH1 0x22 PUSH1 0x4 MSTORE PUSH1 0x24 PUSH1 0x0 REVERT JUMPDEST PUSH32 0x4E487B7100000000000000000000000000000000000000000000000000000000 PUSH1 0x0 MSTORE PUSH1 0x41 PUSH1 0x4 MSTORE PUSH1 0x24 PUSH1 0x0 REVERT JUMPDEST PUSH1 0x0 DUP1 REVERT JUMPDEST PUSH1 0x0 DUP1 REVERT JUMPDEST PUSH1 0x0 DUP1 REVERT JUMPDEST PUSH1 0x0 DUP1 REVERT JUMPDEST PUSH1 0x0 PUSH1 0x1F NOT PUSH1 0x1F DUP4 ADD AND SWAP1 POP SWAP2 SWAP1 POP JUMP JUMPDEST PUSH3 0x4E2 DUP2 PUSH3 0x374 JUMP JUMPDEST DUP2 EQ PUSH3 0x4EE JUMPI PUSH1 0x0 DUP1 REVERT JUMPDEST POP JUMP JUMPDEST PUSH3 0x4FC DUP2 PUSH3 0x3A8 JUMP JUMPDEST DUP2 EQ PUSH3 0x508 JUMPI PUSH1 0x0 DUP1 REVERT JUMPDEST POP JUMP JUMPDEST PUSH2 0x17C3 DUP1 PUSH3 0x51B PUSH1 0x0 CODECOPY PUSH1 0x0 RETURN INVALID PUSH1 0x80 PUSH1 0x40 MSTORE PUSH1 0x4 CALLDATASIZE LT PUSH2 0xDD JUMPI PUSH1 0x0 CALLDATALOAD PUSH1 0xE0 SHR DUP1 PUSH4 0x7E509220 GT PUSH2 0x7F JUMPI DUP1 PUSH4 0x8A9CFD55 GT PUSH2 0x59 JUMPI DUP1 PUSH4 0x8A9CFD55 EQ PUSH2 0x2BD JUMPI DUP1 PUSH4 0x937E09B1 EQ PUSH2 0x2E6 JUMPI DUP1 PUSH4 0xD7BB99BA EQ PUSH2 0x311 JUMPI DUP1 PUSH4 0xD7D1BBDB EQ PUSH2 0x31B JUMPI PUSH2 0xDD JUMP JUMPDEST DUP1 PUSH4 0x7E509220 EQ PUSH2 0x226 JUMPI DUP1 PUSH4 0x81D12C58 EQ PUSH2 0x251 JUMPI DUP1 PUSH4 0x82FDE093 EQ PUSH2 0x292 JUMPI PUSH2 0xDD JUMP JUMPDEST DUP1 PUSH4 0x110842CB GT PUSH2 0xBB JUMPI DUP1 PUSH4 0x110842CB EQ PUSH2 0x173 JUMPI DUP1 PUSH4 0x3410452A EQ PUSH2 0x19E JUMPI DUP1 PUSH4 0x4051DDAC EQ PUSH2 0x1C9 JUMPI DUP1 PUSH4 0x481C6A75 EQ PUSH2 0x1FB JUMPI PUSH2 0xDD JUMP JUMPDEST DUP1 PUSH4 0x3441006 EQ PUSH2 0xE2 JUMPI DUP1 PUSH4 0x724FDA9 EQ PUSH2 0x10B JUMPI DUP1 PUSH4 0xA144391 EQ PUSH2 0x136 JUMPI JUMPDEST PUSH1 0x0 DUP1 REVERT JUMPDEST CALLVALUE DUP1 ISZERO PUSH2 0xEE JUMPI PUSH1 0x0 DUP1 REVERT JUMPDEST POP PUSH2 0x109 PUSH1 0x4 DUP1 CALLDATASIZE SUB DUP2 ADD SWAP1 PUSH2 0x104 SWAP2 SWAP1 PUSH2 0xFA6 JUMP JUMPDEST PUSH2 0x344 JUMP JUMPDEST STOP JUMPDEST CALLVALUE DUP1 ISZERO PUSH2 0x117 JUMPI PUSH1 0x0 DUP1 REVERT JUMPDEST POP PUSH2 0x120 PUSH2 0x51F JUMP JUMPDEST PUSH1 0x40 MLOAD PUSH2 0x12D SWAP2 SWAP1 PUSH2 0x1150 JUMP JUMPDEST PUSH1 0x40 MLOAD DUP1 SWAP2 SUB SWAP1 RETURN JUMPDEST CALLVALUE DUP1 ISZERO PUSH2 0x142 JUMPI PUSH1 0x0 DUP1 REVERT JUMPDEST POP PUSH2 0x15D PUSH1 0x4 DUP1 CALLDATASIZE SUB DUP2 ADD SWAP1 PUSH2 0x158 SWAP2 SWAP1 PUSH2 0xF0A JUMP JUMPDEST PUSH2 0x5AD JUMP JUMPDEST PUSH1 0x40 MLOAD PUSH2 0x16A SWAP2 SWAP1 PUSH2 0x1135 JUMP JUMPDEST PUSH1 0x40 MLOAD DUP1 SWAP2 SUB SWAP1 RETURN JUMPDEST CALLVALUE DUP1 ISZERO PUSH2 0x17F JUMPI PUSH1 0x0 DUP1 REVERT JUMPDEST POP PUSH2 0x188 PUSH2 0x5CD JUMP JUMPDEST PUSH1 0x40 MLOAD PUSH2 0x195 SWAP2 SWAP1 PUSH2 0x1150 JUMP JUMPDEST PUSH1 0x40 MLOAD DUP1 SWAP2 SUB SWAP1 RETURN JUMPDEST CALLVALUE DUP1 ISZERO PUSH2 0x1AA JUMPI PUSH1 0x0 DUP1 REVERT JUMPDEST POP PUSH2 0x1B3 PUSH2 0x65B JUMP JUMPDEST PUSH1 0x40 MLOAD PUSH2 0x1C0 SWAP2 SWAP1 PUSH2 0x128C JUMP JUMPDEST PUSH1 0x40 MLOAD DUP1 SWAP2 SUB SWAP1 RETURN JUMPDEST CALLVALUE DUP1 ISZERO PUSH2 0x1D5 JUMPI PUSH1 0x0 DUP1 REVERT JUMPDEST POP PUSH2 0x1DE PUSH2 0x665 JUMP JUMPDEST PUSH1 0x40 MLOAD PUSH2 0x1F2 SWAP9 SWAP8 SWAP7 SWAP6 SWAP5 SWAP4 SWAP3 SWAP2 SWAP1 PUSH2 0x12A7 JUMP JUMPDEST PUSH1 0x40 MLOAD DUP1 SWAP2 SUB SWAP1 RETURN JUMPDEST CALLVALUE DUP1 ISZERO PUSH2 0x207 JUMPI PUSH1 0x0 DUP1 REVERT JUMPDEST POP PUSH2 0x210 PUSH2 0x861 JUMP JUMPDEST PUSH1 0x40 MLOAD PUSH2 0x21D SWAP2 SWAP1 PUSH2 0x111A JUMP JUMPDEST PUSH1 0x40 MLOAD DUP1 SWAP2 SUB SWAP1 RETURN JUMPDEST CALLVALUE DUP1 ISZERO PUSH2 0x232 JUMPI PUSH1 0x0 DUP1 REVERT JUMPDEST POP PUSH2 0x23B PUSH2 0x885 JUMP JUMPDEST PUSH1 0x40 MLOAD PUSH2 0x248 SWAP2 SWAP1 PUSH2 0x1150 JUMP JUMPDEST PUSH1 0x40 MLOAD DUP1 SWAP2 SUB SWAP1 RETURN JUMPDEST CALLVALUE DUP1 ISZERO PUSH2 0x25D JUMPI PUSH1 0x0 DUP1 REVERT JUMPDEST POP PUSH2 0x278 PUSH1 0x4 DUP1 CALLDATASIZE SUB DUP2 ADD SWAP1 PUSH2 0x273 SWAP2 SWAP1 PUSH2 0xFA6 JUMP JUMPDEST PUSH2 0x913 JUMP JUMPDEST PUSH1 0x40 MLOAD PUSH2 0x289 SWAP6 SWAP5 SWAP4 SWAP3 SWAP2 SWAP1 PUSH2 0x1172 JUMP JUMPDEST PUSH1 0x40 MLOAD DUP1 SWAP2 SUB SWAP1 RETURN JUMPDEST CALLVALUE DUP1 ISZERO PUSH2 0x29E JUMPI PUSH1 0x0 DUP1 REVERT JUMPDEST POP PUSH2 0x2A7 PUSH2 0x9FE JUMP JUMPDEST PUSH1 0x40 MLOAD PUSH2 0x2B4 SWAP2 SWAP1 PUSH2 0x128C JUMP JUMPDEST PUSH1 0x40 MLOAD DUP1 SWAP2 SUB SWAP1 RETURN JUMPDEST CALLVALUE DUP1 ISZERO PUSH2 0x2C9 JUMPI PUSH1 0x0 DUP1 REVERT JUMPDEST POP PUSH2 0x2E4 PUSH1 0x4 DUP1 CALLDATASIZE SUB DUP2 ADD SWAP1 PUSH2 0x2DF SWAP2 SWAP1 PUSH2 0xF37 JUMP JUMPDEST PUSH2 0xA04 JUMP JUMPDEST STOP JUMPDEST CALLVALUE DUP1 ISZERO PUSH2 0x2F2 JUMPI PUSH1 0x0 DUP1 REVERT JUMPDEST POP PUSH2 0x2FB PUSH2 0xB51 JUMP JUMPDEST PUSH1 0x40 MLOAD PUSH2 0x308 SWAP2 SWAP1 PUSH2 0x128C JUMP JUMPDEST PUSH1 0x40 MLOAD DUP1 SWAP2 SUB SWAP1 RETURN JUMPDEST PUSH2 0x319 PUSH2 0xB57 JUMP JUMPDEST STOP JUMPDEST CALLVALUE DUP1 ISZERO PUSH2 0x327 JUMPI PUSH1 0x0 DUP1 REVERT JUMPDEST POP PUSH2 0x342 PUSH1 0x4 DUP1 CALLDATASIZE SUB DUP2 ADD SWAP1 PUSH2 0x33D SWAP2 SWAP1 PUSH2 0xFA6 JUMP JUMPDEST PUSH2 0xC0E JUMP JUMPDEST STOP JUMPDEST PUSH1 0x0 DUP1 SLOAD SWAP1 PUSH2 0x100 EXP SWAP1 DIV PUSH20 0xFFFFFFFFFFFFFFFFFFFFFFFFFFFFFFFFFFFFFFFF AND PUSH20 0xFFFFFFFFFFFFFFFFFFFFFFFFFFFFFFFFFFFFFFFF AND CALLER PUSH20 0xFFFFFFFFFFFFFFFFFFFFFFFFFFFFFFFFFFFFFFFF AND EQ PUSH2 0x3D2 JUMPI PUSH1 0x40 MLOAD PUSH32 0x8C379A000000000000000000000000000000000000000000000000000000000 DUP2 MSTORE PUSH1 0x4 ADD PUSH2 0x3C9 SWAP1 PUSH2 0x120C JUMP JUMPDEST PUSH1 0x40 MLOAD DUP1 SWAP2 SUB SWAP1 REVERT JUMPDEST PUSH1 0x0 PUSH1 0x7 PUSH1 0x0 DUP4 DUP2 MSTORE PUSH1 0x20 ADD SWAP1 DUP2 MSTORE PUSH1 0x20 ADD PUSH1 0x0 KECCAK256 SWAP1 POP PUSH1 0x2 PUSH1 0x8 SLOAD PUSH2 0x3F8 SWAP2 SWAP1 PUSH2 0x13AC JUMP JUMPDEST DUP2 PUSH1 0x3 ADD SLOAD GT PUSH2 0x43D JUMPI PUSH1 0x40 MLOAD PUSH32 0x8C379A000000000000000000000000000000000000000000000000000000000 DUP2 MSTORE PUSH1 0x4 ADD PUSH2 0x434 SWAP1 PUSH2 0x11EC JUMP JUMPDEST PUSH1 0x40 MLOAD DUP1 SWAP2 SUB SWAP1 REVERT JUMPDEST DUP1 PUSH1 0x2 ADD PUSH1 0x14 SWAP1 SLOAD SWAP1 PUSH2 0x100 EXP SWAP1 DIV PUSH1 0xFF AND ISZERO PUSH2 0x48F JUMPI PUSH1 0x40 MLOAD PUSH32 0x8C379A000000000000000000000000000000000000000000000000000000000 DUP2 MSTORE PUSH1 0x4 ADD PUSH2 0x486 SWAP1 PUSH2 0x11CC JUMP JUMPDEST PUSH1 0x40 MLOAD DUP1 SWAP2 SUB SWAP1 REVERT JUMPDEST DUP1 PUSH1 0x2 ADD PUSH1 0x0 SWAP1 SLOAD SWAP1 PUSH2 0x100 EXP SWAP1 DIV PUSH20 0xFFFFFFFFFFFFFFFFFFFFFFFFFFFFFFFFFFFFFFFF AND PUSH20 0xFFFFFFFFFFFFFFFFFFFFFFFFFFFFFFFFFFFFFFFF AND PUSH2 0x8FC DUP3 PUSH1 0x1 ADD SLOAD SWAP1 DUP2 ISZERO MUL SWAP1 PUSH1 0x40 MLOAD PUSH1 0x0 PUSH1 0x40 MLOAD DUP1 DUP4 SUB DUP2 DUP6 DUP9 DUP9 CALL SWAP4 POP POP POP POP ISZERO DUP1 ISZERO PUSH2 0x4FD JUMPI RETURNDATASIZE PUSH1 0x0 DUP1 RETURNDATACOPY RETURNDATASIZE PUSH1 0x0 REVERT JUMPDEST POP PUSH1 0x1 DUP2 PUSH1 0x2 ADD PUSH1 0x14 PUSH2 0x100 EXP DUP2 SLOAD DUP2 PUSH1 0xFF MUL NOT AND SWAP1 DUP4 ISZERO ISZERO MUL OR SWAP1 SSTORE POP POP POP JUMP JUMPDEST PUSH1 0x2 DUP1 SLOAD PUSH2 0x52C SWAP1 PUSH2 0x1479 JUMP JUMPDEST DUP1 PUSH1 0x1F ADD PUSH1 0x20 DUP1 SWAP2 DIV MUL PUSH1 0x20 ADD PUSH1 0x40 MLOAD SWAP1 DUP2 ADD PUSH1 0x40 MSTORE DUP1 SWAP3 SWAP2 SWAP1 DUP2 DUP2 MSTORE PUSH1 0x20 ADD DUP3 DUP1 SLOAD PUSH2 0x558 SWAP1 PUSH2 0x1479 JUMP JUMPDEST DUP1 ISZERO PUSH2 0x5A5 JUMPI DUP1 PUSH1 0x1F LT PUSH2 0x57A JUMPI PUSH2 0x100 DUP1 DUP4 SLOAD DIV MUL DUP4 MSTORE SWAP2 PUSH1 0x20 ADD SWAP2 PUSH2 0x5A5 JUMP JUMPDEST DUP3 ADD SWAP2 SWAP1 PUSH1 0x0 MSTORE PUSH1 0x20 PUSH1 0x0 KECCAK256 SWAP1 JUMPDEST DUP2 SLOAD DUP2 MSTORE SWAP1 PUSH1 0x1 ADD SWAP1 PUSH1 0x20 ADD DUP1 DUP4 GT PUSH2 0x588 JUMPI DUP3 SWAP1 SUB PUSH1 0x1F AND DUP3 ADD SWAP2 JUMPDEST POP POP POP POP POP DUP2 JUMP JUMPDEST PUSH1 0x5 PUSH1 0x20 MSTORE DUP1 PUSH1 0x0 MSTORE PUSH1 0x40 PUSH1 0x0 KECCAK256 PUSH1 0x0 SWAP2 POP SLOAD SWAP1 PUSH2 0x100 EXP SWAP1 DIV PUSH1 0xFF AND DUP2 JUMP JUMPDEST PUSH1 0x3 DUP1 SLOAD PUSH2 0x5DA SWAP1 PUSH2 0x1479 JUMP JUMPDEST DUP1 PUSH1 0x1F ADD PUSH1 0x20 DUP1 SWAP2 DIV MUL PUSH1 0x20 ADD PUSH1 0x40 MLOAD SWAP1 DUP2 ADD PUSH1 0x40 MSTORE DUP1 SWAP3 SWAP2 SWAP1 DUP2 DUP2 MSTORE PUSH1 0x20 ADD DUP3 DUP1 SLOAD PUSH2 0x606 SWAP1 PUSH2 0x1479 JUMP JUMPDEST DUP1 ISZERO PUSH2 0x653 JUMPI DUP1 PUSH1 0x1F LT PUSH2 0x628 JUMPI PUSH2 0x100 DUP1 DUP4 SLOAD DIV MUL DUP4 MSTORE SWAP2 PUSH1 0x20 ADD SWAP2 PUSH2 0x653 JUMP JUMPDEST DUP3 ADD SWAP2 SWAP1 PUSH1 0x0 MSTORE PUSH1 0x20 PUSH1 0x0 KECCAK256 SWAP1 JUMPDEST DUP2 SLOAD DUP2 MSTORE SWAP1 PUSH1 0x1 ADD SWAP1 PUSH1 0x20 ADD DUP1 DUP4 GT PUSH2 0x636 JUMPI DUP3 SWAP1 SUB PUSH1 0x1F AND DUP3 ADD SWAP2 JUMPDEST POP POP POP POP POP DUP2 JUMP JUMPDEST PUSH1 0x0 PUSH1 0x6 SLOAD SWAP1 POP SWAP1 JUMP JUMPDEST PUSH1 0x0 DUP1 PUSH1 0x0 DUP1 PUSH1 0x0 PUSH1 0x60 DUP1 PUSH1 0x60 PUSH1 0x1 SLOAD SELFBALANCE PUSH1 0x6 SLOAD PUSH1 0x8 SLOAD PUSH1 0x0 DUP1 SLOAD SWAP1 PUSH2 0x100 EXP SWAP1 DIV PUSH20 0xFFFFFFFFFFFFFFFFFFFFFFFFFFFFFFFFFFFFFFFF AND PUSH1 0x2 PUSH1 0x3 PUSH1 0x4 DUP3 DUP1 SLOAD PUSH2 0x6AF SWAP1 PUSH2 0x1479 JUMP JUMPDEST DUP1 PUSH1 0x1F ADD PUSH1 0x20 DUP1 SWAP2 DIV MUL PUSH1 0x20 ADD PUSH1 0x40 MLOAD SWAP1 DUP2 ADD PUSH1 0x40 MSTORE DUP1 SWAP3 SWAP2 SWAP1 DUP2 DUP2 MSTORE PUSH1 0x20 ADD DUP3 DUP1 SLOAD PUSH2 0x6DB SWAP1 PUSH2 0x1479 JUMP JUMPDEST DUP1 ISZERO PUSH2 0x728 JUMPI DUP1 PUSH1 0x1F LT PUSH2 0x6FD JUMPI PUSH2 0x100 DUP1 DUP4 SLOAD DIV MUL DUP4 MSTORE SWAP2 PUSH1 0x20 ADD SWAP2 PUSH2 0x728 JUMP JUMPDEST DUP3 ADD SWAP2 SWAP1 PUSH1 0x0 MSTORE PUSH1 0x20 PUSH1 0x0 KECCAK256 SWAP1 JUMPDEST DUP2 SLOAD DUP2 MSTORE SWAP1 PUSH1 0x1 ADD SWAP1 PUSH1 0x20 ADD DUP1 DUP4 GT PUSH2 0x70B JUMPI DUP3 SWAP1 SUB PUSH1 0x1F AND DUP3 ADD SWAP2 JUMPDEST POP POP POP POP POP SWAP3 POP DUP2 DUP1 SLOAD PUSH2 0x73B SWAP1 PUSH2 0x1479 JUMP JUMPDEST DUP1 PUSH1 0x1F ADD PUSH1 0x20 DUP1 SWAP2 DIV MUL PUSH1 0x20 ADD PUSH1 0x40 MLOAD SWAP1 DUP2 ADD PUSH1 0x40 MSTORE DUP1 SWAP3 SWAP2 SWAP1 DUP2 DUP2 MSTORE PUSH1 0x20 ADD DUP3 DUP1 SLOAD PUSH2 0x767 SWAP1 PUSH2 0x1479 JUMP JUMPDEST DUP1 ISZERO PUSH2 0x7B4 JUMPI DUP1 PUSH1 0x1F LT PUSH2 0x789 JUMPI PUSH2 0x100 DUP1 DUP4 SLOAD DIV MUL DUP4 MSTORE SWAP2 PUSH1 0x20 ADD SWAP2 PUSH2 0x7B4 JUMP JUMPDEST DUP3 ADD SWAP2 SWAP1 PUSH1 0x0 MSTORE PUSH1 0x20 PUSH1 0x0 KECCAK256 SWAP1 JUMPDEST DUP2 SLOAD DUP2 MSTORE SWAP1 PUSH1 0x1 ADD SWAP1 PUSH1 0x20 ADD DUP1 DUP4 GT PUSH2 0x797 JUMPI DUP3 SWAP1 SUB PUSH1 0x1F AND DUP3 ADD SWAP2 JUMPDEST POP POP POP POP POP SWAP2 POP DUP1 DUP1 SLOAD PUSH2 0x7C7 SWAP1 PUSH2 0x1479 JUMP JUMPDEST DUP1 PUSH1 0x1F ADD PUSH1 0x20 DUP1 SWAP2 DIV MUL PUSH1 0x20 ADD PUSH1 0x40 MLOAD SWAP1 DUP2 ADD PUSH1 0x40 MSTORE DUP1 SWAP3 SWAP2 SWAP1 DUP2 DUP2 MSTORE PUSH1 0x20 ADD DUP3 DUP1 SLOAD PUSH2 0x7F3 SWAP1 PUSH2 0x1479 JUMP JUMPDEST DUP1 ISZERO PUSH2 0x840 JUMPI DUP1 PUSH1 0x1F LT PUSH2 0x815 JUMPI PUSH2 0x100 DUP1 DUP4 SLOAD DIV MUL DUP4 MSTORE SWAP2 PUSH1 0x20 ADD SWAP2 PUSH2 0x840 JUMP JUMPDEST DUP3 ADD SWAP2 SWAP1 PUSH1 0x0 MSTORE PUSH1 0x20 PUSH1 0x0 KECCAK256 SWAP1 JUMPDEST DUP2 SLOAD DUP2 MSTORE SWAP1 PUSH1 0x1 ADD SWAP1 PUSH1 0x20 ADD DUP1 DUP4 GT PUSH2 0x823 JUMPI DUP3 SWAP1 SUB PUSH1 0x1F AND DUP3 ADD SWAP2 JUMPDEST POP POP POP POP POP SWAP1 POP SWAP8 POP SWAP8 POP SWAP8 POP SWAP8 POP SWAP8 POP SWAP8 POP SWAP8 POP SWAP8 POP SWAP1 SWAP2 SWAP3 SWAP4 SWAP5 SWAP6 SWAP7 SWAP8 JUMP JUMPDEST PUSH1 0x0 DUP1 SLOAD SWAP1 PUSH2 0x100 EXP SWAP1 DIV PUSH20 0xFFFFFFFFFFFFFFFFFFFFFFFFFFFFFFFFFFFFFFFF AND DUP2 JUMP JUMPDEST PUSH1 0x4 DUP1 SLOAD PUSH2 0x892 SWAP1 PUSH2 0x1479 JUMP JUMPDEST DUP1 PUSH1 0x1F ADD PUSH1 0x20 DUP1 SWAP2 DIV MUL PUSH1 0x20 ADD PUSH1 0x40 MLOAD SWAP1 DUP2 ADD PUSH1 0x40 MSTORE DUP1 SWAP3 SWAP2 SWAP1 DUP2 DUP2 MSTORE PUSH1 0x20 ADD DUP3 DUP1 SLOAD PUSH2 0x8BE SWAP1 PUSH2 0x1479 JUMP JUMPDEST DUP1 ISZERO PUSH2 0x90B JUMPI DUP1 PUSH1 0x1F LT PUSH2 0x8E0 JUMPI PUSH2 0x100 DUP1 DUP4 SLOAD DIV MUL DUP4 MSTORE SWAP2 PUSH1 0x20 ADD SWAP2 PUSH2 0x90B JUMP JUMPDEST DUP3 ADD SWAP2 SWAP1 PUSH1 0x0 MSTORE PUSH1 0x20 PUSH1 0x0 KECCAK256 SWAP1 JUMPDEST DUP2 SLOAD DUP2 MSTORE SWAP1 PUSH1 0x1 ADD SWAP1 PUSH1 0x20 ADD DUP1 DUP4 GT PUSH2 0x8EE JUMPI DUP3 SWAP1 SUB PUSH1 0x1F AND DUP3 ADD SWAP2 JUMPDEST POP POP POP POP POP DUP2 JUMP JUMPDEST PUSH1 0x7 PUSH1 0x20 MSTORE DUP1 PUSH1 0x0 MSTORE PUSH1 0x40 PUSH1 0x0 KECCAK256 PUSH1 0x0 SWAP2 POP SWAP1 POP DUP1 PUSH1 0x0 ADD DUP1 SLOAD PUSH2 0x936 SWAP1 PUSH2 0x1479 JUMP JUMPDEST DUP1 PUSH1 0x1F ADD PUSH1 0x20 DUP1 SWAP2 DIV MUL PUSH1 0x20 ADD PUSH1 0x40 MLOAD SWAP1 DUP2 ADD PUSH1 0x40 MSTORE DUP1 SWAP3 SWAP2 SWAP1 DUP2 DUP2 MSTORE PUSH1 0x20 ADD DUP3 DUP1 SLOAD PUSH2 0x962 SWAP1 PUSH2 0x1479 JUMP JUMPDEST DUP1 ISZERO PUSH2 0x9AF JUMPI DUP1 PUSH1 0x1F LT PUSH2 0x984 JUMPI PUSH2 0x100 DUP1 DUP4 SLOAD DIV MUL DUP4 MSTORE SWAP2 PUSH1 0x20 ADD SWAP2 PUSH2 0x9AF JUMP JUMPDEST DUP3 ADD SWAP2 SWAP1 PUSH1 0x0 MSTORE PUSH1 0x20 PUSH1 0x0 KECCAK256 SWAP1 JUMPDEST DUP2 SLOAD DUP2 MSTORE SWAP1 PUSH1 0x1 ADD SWAP1 PUSH1 0x20 ADD DUP1 DUP4 GT PUSH2 0x992 JUMPI DUP3 SWAP1 SUB PUSH1 0x1F AND DUP3 ADD SWAP2 JUMPDEST POP POP POP POP POP SWAP1 DUP1 PUSH1 0x1 ADD SLOAD SWAP1 DUP1 PUSH1 0x2 ADD PUSH1 0x0 SWAP1 SLOAD SWAP1 PUSH2 0x100 EXP SWAP1 DIV PUSH20 0xFFFFFFFFFFFFFFFFFFFFFFFFFFFFFFFFFFFFFFFF AND SWAP1 DUP1 PUSH1 0x2 ADD PUSH1 0x14 SWAP1 SLOAD SWAP1 PUSH2 0x100 EXP SWAP1 DIV PUSH1 0xFF AND SWAP1 DUP1 PUSH1 0x3 ADD SLOAD SWAP1 POP DUP6 JUMP JUMPDEST PUSH1 0x8 SLOAD DUP2 JUMP JUMPDEST PUSH1 0x0 DUP1 SLOAD SWAP1 PUSH2 0x100 EXP SWAP1 DIV PUSH20 0xFFFFFFFFFFFFFFFFFFFFFFFFFFFFFFFFFFFFFFFF AND PUSH20 0xFFFFFFFFFFFFFFFFFFFFFFFFFFFFFFFFFFFFFFFF AND CALLER PUSH20 0xFFFFFFFFFFFFFFFFFFFFFFFFFFFFFFFFFFFFFFFF AND EQ PUSH2 0xA92 JUMPI PUSH1 0x40 MLOAD PUSH32 0x8C379A000000000000000000000000000000000000000000000000000000000 DUP2 MSTORE PUSH1 0x4 ADD PUSH2 0xA89 SWAP1 PUSH2 0x120C JUMP JUMPDEST PUSH1 0x40 MLOAD DUP1 SWAP2 SUB SWAP1 REVERT JUMPDEST PUSH1 0x0 PUSH1 0x7 PUSH1 0x0 PUSH1 0x6 PUSH1 0x0 DUP2 SLOAD DUP1 SWAP3 SWAP2 SWAP1 PUSH2 0xAAB SWAP1 PUSH2 0x14DC JUMP JUMPDEST SWAP2 SWAP1 POP SSTORE DUP2 MSTORE PUSH1 0x20 ADD SWAP1 DUP2 MSTORE PUSH1 0x20 ADD PUSH1 0x0 KECCAK256 SWAP1 POP DUP4 DUP2 PUSH1 0x0 ADD SWAP1 DUP1 MLOAD SWAP1 PUSH1 0x20 ADD SWAP1 PUSH2 0xAD7 SWAP3 SWAP2 SWAP1 PUSH2 0xDB8 JUMP JUMPDEST POP DUP3 DUP2 PUSH1 0x1 ADD DUP2 SWAP1 SSTORE POP DUP2 DUP2 PUSH1 0x2 ADD PUSH1 0x0 PUSH2 0x100 EXP DUP2 SLOAD DUP2 PUSH20 0xFFFFFFFFFFFFFFFFFFFFFFFFFFFFFFFFFFFFFFFF MUL NOT AND SWAP1 DUP4 PUSH20 0xFFFFFFFFFFFFFFFFFFFFFFFFFFFFFFFFFFFFFFFF AND MUL OR SWAP1 SSTORE POP PUSH1 0x0 DUP2 PUSH1 0x2 ADD PUSH1 0x14 PUSH2 0x100 EXP DUP2 SLOAD DUP2 PUSH1 0xFF MUL NOT AND SWAP1 DUP4 ISZERO ISZERO MUL OR SWAP1 SSTORE POP PUSH1 0x0 DUP2 PUSH1 0x3 ADD DUP2 SWAP1 SSTORE POP POP POP POP POP JUMP JUMPDEST PUSH1 0x1 SLOAD DUP2 JUMP JUMPDEST PUSH1 0x1 SLOAD CALLVALUE LT ISZERO PUSH2 0xB9C JUMPI PUSH1 0x40 MLOAD PUSH32 0x8C379A000000000000000000000000000000000000000000000000000000000 DUP2 MSTORE PUSH1 0x4 ADD PUSH2 0xB93 SWAP1 PUSH2 0x126C JUMP JUMPDEST PUSH1 0x40 MLOAD DUP1 SWAP2 SUB SWAP1 REVERT JUMPDEST PUSH1 0x1 PUSH1 0x5 PUSH1 0x0 CALLER PUSH20 0xFFFFFFFFFFFFFFFFFFFFFFFFFFFFFFFFFFFFFFFF AND PUSH20 0xFFFFFFFFFFFFFFFFFFFFFFFFFFFFFFFFFFFFFFFF AND DUP2 MSTORE PUSH1 0x20 ADD SWAP1 DUP2 MSTORE PUSH1 0x20 ADD PUSH1 0x0 KECCAK256 PUSH1 0x0 PUSH2 0x100 EXP DUP2 SLOAD DUP2 PUSH1 0xFF MUL NOT AND SWAP1 DUP4 ISZERO ISZERO MUL OR SWAP1 SSTORE POP PUSH1 0x8 PUSH1 0x0 DUP2 SLOAD DUP1 SWAP3 SWAP2 SWAP1 PUSH2 0xC07 SWAP1 PUSH2 0x14DC JUMP JUMPDEST SWAP2 SWAP1 POP SSTORE POP JUMP JUMPDEST PUSH1 0x0 PUSH1 0x7 PUSH1 0x0 DUP4 DUP2 MSTORE PUSH1 0x20 ADD SWAP1 DUP2 MSTORE PUSH1 0x20 ADD PUSH1 0x0 KECCAK256 SWAP1 POP PUSH1 0x5 PUSH1 0x0 CALLER PUSH20 0xFFFFFFFFFFFFFFFFFFFFFFFFFFFFFFFFFFFFFFFF AND PUSH20 0xFFFFFFFFFFFFFFFFFFFFFFFFFFFFFFFFFFFFFFFF AND DUP2 MSTORE PUSH1 0x20 ADD SWAP1 DUP2 MSTORE PUSH1 0x20 ADD PUSH1 0x0 KECCAK256 PUSH1 0x0 SWAP1 SLOAD SWAP1 PUSH2 0x100 EXP SWAP1 DIV PUSH1 0xFF AND PUSH2 0xCB1 JUMPI PUSH1 0x40 MLOAD PUSH32 0x8C379A000000000000000000000000000000000000000000000000000000000 DUP2 MSTORE PUSH1 0x4 ADD PUSH2 0xCA8 SWAP1 PUSH2 0x124C JUMP JUMPDEST PUSH1 0x40 MLOAD DUP1 SWAP2 SUB SWAP1 REVERT JUMPDEST DUP1 PUSH1 0x4 ADD PUSH1 0x0 CALLER PUSH20 0xFFFFFFFFFFFFFFFFFFFFFFFFFFFFFFFFFFFFFFFF AND PUSH20 0xFFFFFFFFFFFFFFFFFFFFFFFFFFFFFFFFFFFFFFFF AND DUP2 MSTORE PUSH1 0x20 ADD SWAP1 DUP2 MSTORE PUSH1 0x20 ADD PUSH1 0x0 KECCAK256 PUSH1 0x0 SWAP1 SLOAD SWAP1 PUSH2 0x100 EXP SWAP1 DIV PUSH1 0xFF AND ISZERO PUSH2 0xD40 JUMPI PUSH1 0x40 MLOAD PUSH32 0x8C379A000000000000000000000000000000000000000000000000000000000 DUP2 MSTORE PUSH1 0x4 ADD PUSH2 0xD37 SWAP1 PUSH2 0x122C JUMP JUMPDEST PUSH1 0x40 MLOAD DUP1 SWAP2 SUB SWAP1 REVERT JUMPDEST PUSH1 0x1 DUP2 PUSH1 0x4 ADD PUSH1 0x0 CALLER PUSH20 0xFFFFFFFFFFFFFFFFFFFFFFFFFFFFFFFFFFFFFFFF AND PUSH20 0xFFFFFFFFFFFFFFFFFFFFFFFFFFFFFFFFFFFFFFFF AND DUP2 MSTORE PUSH1 0x20 ADD SWAP1 DUP2 MSTORE PUSH1 0x20 ADD PUSH1 0x0 KECCAK256 PUSH1 0x0 PUSH2 0x100 EXP DUP2 SLOAD DUP2 PUSH1 0xFF MUL NOT AND SWAP1 DUP4 ISZERO ISZERO MUL OR SWAP1 SSTORE POP DUP1 PUSH1 0x3 ADD PUSH1 0x0 DUP2 SLOAD DUP1 SWAP3 SWAP2 SWAP1 PUSH2 0xDAF SWAP1 PUSH2 0x14DC JUMP JUMPDEST SWAP2 SWAP1 POP SSTORE POP POP POP JUMP JUMPDEST DUP3 DUP1 SLOAD PUSH2 0xDC4 SWAP1 PUSH2 0x1479 JUMP JUMPDEST SWAP1 PUSH1 0x0 MSTORE PUSH1 0x20 PUSH1 0x0 KECCAK256 SWAP1 PUSH1 0x1F ADD PUSH1 0x20 SWAP1 DIV DUP2 ADD SWAP3 DUP3 PUSH2 0xDE6 JUMPI PUSH1 0x0 DUP6 SSTORE PUSH2 0xE2D JUMP JUMPDEST DUP3 PUSH1 0x1F LT PUSH2 0xDFF JUMPI DUP1 MLOAD PUSH1 0xFF NOT AND DUP4 DUP1 ADD OR DUP6 SSTORE PUSH2 0xE2D JUMP JUMPDEST DUP3 DUP1 ADD PUSH1 0x1 ADD DUP6 SSTORE DUP3 ISZERO PUSH2 0xE2D JUMPI SWAP2 DUP3 ADD JUMPDEST DUP3 DUP2 GT ISZERO PUSH2 0xE2C JUMPI DUP3 MLOAD DUP3 SSTORE SWAP2 PUSH1 0x20 ADD SWAP2 SWAP1 PUSH1 0x1 ADD SWAP1 PUSH2 0xE11 JUMP JUMPDEST JUMPDEST POP SWAP1 POP PUSH2 0xE3A SWAP2 SWAP1 PUSH2 0xE3E JUMP JUMPDEST POP SWAP1 JUMP JUMPDEST JUMPDEST DUP1 DUP3 GT ISZERO PUSH2 0xE57 JUMPI PUSH1 0x0 DUP2 PUSH1 0x0 SWAP1 SSTORE POP PUSH1 0x1 ADD PUSH2 0xE3F JUMP JUMPDEST POP SWAP1 JUMP JUMPDEST PUSH1 0x0 PUSH2 0xE6E PUSH2 0xE69 DUP5 PUSH2 0x135F JUMP JUMPDEST PUSH2 0x133A JUMP JUMPDEST SWAP1 POP DUP3 DUP2 MSTORE PUSH1 0x20 DUP2 ADD DUP5 DUP5 DUP5 ADD GT ISZERO PUSH2 0xE8A JUMPI PUSH2 0xE89 PUSH2 0x15E6 JUMP JUMPDEST JUMPDEST PUSH2 0xE95 DUP5 DUP3 DUP6 PUSH2 0x1437 JUMP JUMPDEST POP SWAP4 SWAP3 POP POP POP JUMP JUMPDEST PUSH1 0x0 DUP2 CALLDATALOAD SWAP1 POP PUSH2 0xEAC DUP2 PUSH2 0x1748 JUMP JUMPDEST SWAP3 SWAP2 POP POP JUMP JUMPDEST PUSH1 0x0 DUP2 CALLDATALOAD SWAP1 POP PUSH2 0xEC1 DUP2 PUSH2 0x175F JUMP JUMPDEST SWAP3 SWAP2 POP POP JUMP JUMPDEST PUSH1 0x0 DUP3 PUSH1 0x1F DUP4 ADD SLT PUSH2 0xEDC JUMPI PUSH2 0xEDB PUSH2 0x15E1 JUMP JUMPDEST JUMPDEST DUP2 CALLDATALOAD PUSH2 0xEEC DUP5 DUP3 PUSH1 0x20 DUP7 ADD PUSH2 0xE5B JUMP JUMPDEST SWAP2 POP POP SWAP3 SWAP2 POP POP JUMP JUMPDEST PUSH1 0x0 DUP2 CALLDATALOAD SWAP1 POP PUSH2 0xF04 DUP2 PUSH2 0x1776 JUMP JUMPDEST SWAP3 SWAP2 POP POP JUMP JUMPDEST PUSH1 0x0 PUSH1 0x20 DUP3 DUP5 SUB SLT ISZERO PUSH2 0xF20 JUMPI PUSH2 0xF1F PUSH2 0x15F0 JUMP JUMPDEST JUMPDEST PUSH1 0x0 PUSH2 0xF2E DUP5 DUP3 DUP6 ADD PUSH2 0xE9D JUMP JUMPDEST SWAP2 POP POP SWAP3 SWAP2 POP POP JUMP JUMPDEST PUSH1 0x0 DUP1 PUSH1 0x0 PUSH1 0x60 DUP5 DUP7 SUB SLT ISZERO PUSH2 0xF50 JUMPI PUSH2 0xF4F PUSH2 0x15F0 JUMP JUMPDEST JUMPDEST PUSH1 0x0 DUP5 ADD CALLDATALOAD PUSH8 0xFFFFFFFFFFFFFFFF DUP2 GT ISZERO PUSH2 0xF6E JUMPI PUSH2 0xF6D PUSH2 0x15EB JUMP JUMPDEST JUMPDEST PUSH2 0xF7A DUP7 DUP3 DUP8 ADD PUSH2 0xEC7 JUMP JUMPDEST SWAP4 POP POP PUSH1 0x20 PUSH2 0xF8B DUP7 DUP3 DUP8 ADD PUSH2 0xEF5 JUMP JUMPDEST SWAP3 POP POP PUSH1 0x40 PUSH2 0xF9C DUP7 DUP3 DUP8 ADD PUSH2 0xEB2 JUMP JUMPDEST SWAP2 POP POP SWAP3 POP SWAP3 POP SWAP3 JUMP JUMPDEST PUSH1 0x0 PUSH1 0x20 DUP3 DUP5 SUB SLT ISZERO PUSH2 0xFBC JUMPI PUSH2 0xFBB PUSH2 0x15F0 JUMP JUMPDEST JUMPDEST PUSH1 0x0 PUSH2 0xFCA DUP5 DUP3 DUP6 ADD PUSH2 0xEF5 JUMP JUMPDEST SWAP2 POP POP SWAP3 SWAP2 POP POP JUMP JUMPDEST PUSH2 0xFDC DUP2 PUSH2 0x13EF JUMP JUMPDEST DUP3 MSTORE POP POP JUMP JUMPDEST PUSH2 0xFEB DUP2 PUSH2 0x13DD JUMP JUMPDEST DUP3 MSTORE POP POP JUMP JUMPDEST PUSH2 0xFFA DUP2 PUSH2 0x1401 JUMP JUMPDEST DUP3 MSTORE POP POP JUMP JUMPDEST PUSH1 0x0 PUSH2 0x100B DUP3 PUSH2 0x1390 JUMP JUMPDEST PUSH2 0x1015 DUP2 DUP6 PUSH2 0x139B JUMP JUMPDEST SWAP4 POP PUSH2 0x1025 DUP2 DUP6 PUSH1 0x20 DUP7 ADD PUSH2 0x1446 JUMP JUMPDEST PUSH2 0x102E DUP2 PUSH2 0x15F5 JUMP JUMPDEST DUP5 ADD SWAP2 POP POP SWAP3 SWAP2 POP POP JUMP JUMPDEST PUSH1 0x0 PUSH2 0x1046 PUSH1 0x18 DUP4 PUSH2 0x139B JUMP JUMPDEST SWAP2 POP PUSH2 0x1051 DUP3 PUSH2 0x1606 JUMP JUMPDEST PUSH1 0x20 DUP3 ADD SWAP1 POP SWAP2 SWAP1 POP JUMP JUMPDEST PUSH1 0x0 PUSH2 0x1069 PUSH1 0x2A DUP4 PUSH2 0x139B JUMP JUMPDEST SWAP2 POP PUSH2 0x1074 DUP3 PUSH2 0x162F JUMP JUMPDEST PUSH1 0x40 DUP3 ADD SWAP1 POP SWAP2 SWAP1 POP JUMP JUMPDEST PUSH1 0x0 PUSH2 0x108C PUSH1 0x28 DUP4 PUSH2 0x139B JUMP JUMPDEST SWAP2 POP PUSH2 0x1097 DUP3 PUSH2 0x167E JUMP JUMPDEST PUSH1 0x40 DUP3 ADD SWAP1 POP SWAP2 SWAP1 POP JUMP JUMPDEST PUSH1 0x0 PUSH2 0x10AF PUSH1 0x16 DUP4 PUSH2 0x139B JUMP JUMPDEST SWAP2 POP PUSH2 0x10BA DUP3 PUSH2 0x16CD JUMP JUMPDEST PUSH1 0x20 DUP3 ADD SWAP1 POP SWAP2 SWAP1 POP JUMP JUMPDEST PUSH1 0x0 PUSH2 0x10D2 PUSH1 0x19 DUP4 PUSH2 0x139B JUMP JUMPDEST SWAP2 POP PUSH2 0x10DD DUP3 PUSH2 0x16F6 JUMP JUMPDEST PUSH1 0x20 DUP3 ADD SWAP1 POP SWAP2 SWAP1 POP JUMP JUMPDEST PUSH1 0x0 PUSH2 0x10F5 PUSH1 0x17 DUP4 PUSH2 0x139B JUMP JUMPDEST SWAP2 POP PUSH2 0x1100 DUP3 PUSH2 0x171F JUMP JUMPDEST PUSH1 0x20 DUP3 ADD SWAP1 POP SWAP2 SWAP1 POP JUMP JUMPDEST PUSH2 0x1114 DUP2 PUSH2 0x142D JUMP JUMPDEST DUP3 MSTORE POP POP JUMP JUMPDEST PUSH1 0x0 PUSH1 0x20 DUP3 ADD SWAP1 POP PUSH2 0x112F PUSH1 0x0 DUP4 ADD DUP5 PUSH2 0xFE2 JUMP JUMPDEST SWAP3 SWAP2 POP POP JUMP JUMPDEST PUSH1 0x0 PUSH1 0x20 DUP3 ADD SWAP1 POP PUSH2 0x114A PUSH1 0x0 DUP4 ADD DUP5 PUSH2 0xFF1 JUMP JUMPDEST SWAP3 SWAP2 POP POP JUMP JUMPDEST PUSH1 0x0 PUSH1 0x20 DUP3 ADD SWAP1 POP DUP2 DUP2 SUB PUSH1 0x0 DUP4 ADD MSTORE PUSH2 0x116A DUP2 DUP5 PUSH2 0x1000 JUMP JUMPDEST SWAP1 POP SWAP3 SWAP2 POP POP JUMP JUMPDEST PUSH1 0x0 PUSH1 0xA0 DUP3 ADD SWAP1 POP DUP2 DUP2 SUB PUSH1 0x0 DUP4 ADD MSTORE PUSH2 0x118C DUP2 DUP9 PUSH2 0x1000 JUMP JUMPDEST SWAP1 POP PUSH2 0x119B PUSH1 0x20 DUP4 ADD DUP8 PUSH2 0x110B JUMP JUMPDEST PUSH2 0x11A8 PUSH1 0x40 DUP4 ADD DUP7 PUSH2 0xFD3 JUMP JUMPDEST PUSH2 0x11B5 PUSH1 0x60 DUP4 ADD DUP6 PUSH2 0xFF1 JUMP JUMPDEST PUSH2 0x11C2 PUSH1 0x80 DUP4 ADD DUP5 PUSH2 0x110B JUMP JUMPDEST SWAP7 SWAP6 POP POP POP POP POP POP JUMP JUMPDEST PUSH1 0x0 PUSH1 0x20 DUP3 ADD SWAP1 POP DUP2 DUP2 SUB PUSH1 0x0 DUP4 ADD MSTORE PUSH2 0x11E5 DUP2 PUSH2 0x1039 JUMP JUMPDEST SWAP1 POP SWAP2 SWAP1 POP JUMP JUMPDEST PUSH1 0x0 PUSH1 0x20 DUP3 ADD SWAP1 POP DUP2 DUP2 SUB PUSH1 0x0 DUP4 ADD MSTORE PUSH2 0x1205 DUP2 PUSH2 0x105C JUMP JUMPDEST SWAP1 POP SWAP2 SWAP1 POP JUMP JUMPDEST PUSH1 0x0 PUSH1 0x20 DUP3 ADD SWAP1 POP DUP2 DUP2 SUB PUSH1 0x0 DUP4 ADD MSTORE PUSH2 0x1225 DUP2 PUSH2 0x107F JUMP JUMPDEST SWAP1 POP SWAP2 SWAP1 POP JUMP JUMPDEST PUSH1 0x0 PUSH1 0x20 DUP3 ADD SWAP1 POP DUP2 DUP2 SUB PUSH1 0x0 DUP4 ADD MSTORE PUSH2 0x1245 DUP2 PUSH2 0x10A2 JUMP JUMPDEST SWAP1 POP SWAP2 SWAP1 POP JUMP JUMPDEST PUSH1 0x0 PUSH1 0x20 DUP3 ADD SWAP1 POP DUP2 DUP2 SUB PUSH1 0x0 DUP4 ADD MSTORE PUSH2 0x1265 DUP2 PUSH2 0x10C5 JUMP JUMPDEST SWAP1 POP SWAP2 SWAP1 POP JUMP JUMPDEST PUSH1 0x0 PUSH1 0x20 DUP3 ADD SWAP1 POP DUP2 DUP2 SUB PUSH1 0x0 DUP4 ADD MSTORE PUSH2 0x1285 DUP2 PUSH2 0x10E8 JUMP JUMPDEST SWAP1 POP SWAP2 SWAP1 POP JUMP JUMPDEST PUSH1 0x0 PUSH1 0x20 DUP3 ADD SWAP1 POP PUSH2 0x12A1 PUSH1 0x0 DUP4 ADD DUP5 PUSH2 0x110B JUMP JUMPDEST SWAP3 SWAP2 POP POP JUMP JUMPDEST PUSH1 0x0 PUSH2 0x100 DUP3 ADD SWAP1 POP PUSH2 0x12BD PUSH1 0x0 DUP4 ADD DUP12 PUSH2 0x110B JUMP JUMPDEST PUSH2 0x12CA PUSH1 0x20 DUP4 ADD DUP11 PUSH2 0x110B JUMP JUMPDEST PUSH2 0x12D7 PUSH1 0x40 DUP4 ADD DUP10 PUSH2 0x110B JUMP JUMPDEST PUSH2 0x12E4 PUSH1 0x60 DUP4 ADD DUP9 PUSH2 0x110B JUMP JUMPDEST PUSH2 0x12F1 PUSH1 0x80 DUP4 ADD DUP8 PUSH2 0xFE2 JUMP JUMPDEST DUP2 DUP2 SUB PUSH1 0xA0 DUP4 ADD MSTORE PUSH2 0x1303 DUP2 DUP7 PUSH2 0x1000 JUMP JUMPDEST SWAP1 POP DUP2 DUP2 SUB PUSH1 0xC0 DUP4 ADD MSTORE PUSH2 0x1317 DUP2 DUP6 PUSH2 0x1000 JUMP JUMPDEST SWAP1 POP DUP2 DUP2 SUB PUSH1 0xE0 DUP4 ADD MSTORE PUSH2 0x132B DUP2 DUP5 PUSH2 0x1000 JUMP JUMPDEST SWAP1 POP SWAP10 SWAP9 POP POP POP POP POP POP POP POP POP JUMP JUMPDEST PUSH1 0x0 PUSH2 0x1344 PUSH2 0x1355 JUMP JUMPDEST SWAP1 POP PUSH2 0x1350 DUP3 DUP3 PUSH2 0x14AB JUMP JUMPDEST SWAP2 SWAP1 POP JUMP JUMPDEST PUSH1 0x0 PUSH1 0x40 MLOAD SWAP1 POP SWAP1 JUMP JUMPDEST PUSH1 0x0 PUSH8 0xFFFFFFFFFFFFFFFF DUP3 GT ISZERO PUSH2 0x137A JUMPI PUSH2 0x1379 PUSH2 0x15B2 JUMP JUMPDEST JUMPDEST PUSH2 0x1383 DUP3 PUSH2 0x15F5 JUMP JUMPDEST SWAP1 POP PUSH1 0x20 DUP2 ADD SWAP1 POP SWAP2 SWAP1 POP JUMP JUMPDEST PUSH1 0x0 DUP2 MLOAD SWAP1 POP SWAP2 SWAP1 POP JUMP JUMPDEST PUSH1 0x0 DUP3 DUP3 MSTORE PUSH1 0x20 DUP3 ADD SWAP1 POP SWAP3 SWAP2 POP POP JUMP JUMPDEST PUSH1 0x0 PUSH2 0x13B7 DUP3 PUSH2 0x142D JUMP JUMPDEST SWAP2 POP PUSH2 0x13C2 DUP4 PUSH2 0x142D JUMP JUMPDEST SWAP3 POP DUP3 PUSH2 0x13D2 JUMPI PUSH2 0x13D1 PUSH2 0x1554 JUMP JUMPDEST JUMPDEST DUP3 DUP3 DIV SWAP1 POP SWAP3 SWAP2 POP POP JUMP JUMPDEST PUSH1 0x0 PUSH2 0x13E8 DUP3 PUSH2 0x140D JUMP JUMPDEST SWAP1 POP SWAP2 SWAP1 POP JUMP JUMPDEST PUSH1 0x0 PUSH2 0x13FA DUP3 PUSH2 0x140D JUMP JUMPDEST SWAP1 POP SWAP2 SWAP1 POP JUMP JUMPDEST PUSH1 0x0 DUP2 ISZERO ISZERO SWAP1 POP SWAP2 SWAP1 POP JUMP JUMPDEST PUSH1 0x0 PUSH20 0xFFFFFFFFFFFFFFFFFFFFFFFFFFFFFFFFFFFFFFFF DUP3 AND SWAP1 POP SWAP2 SWAP1 POP JUMP JUMPDEST PUSH1 0x0 DUP2 SWAP1 POP SWAP2 SWAP1 POP JUMP JUMPDEST DUP3 DUP2 DUP4 CALLDATACOPY PUSH1 0x0 DUP4 DUP4 ADD MSTORE POP POP POP JUMP JUMPDEST PUSH1 0x0 JUMPDEST DUP4 DUP2 LT ISZERO PUSH2 0x1464 JUMPI DUP1 DUP3 ADD MLOAD DUP2 DUP5 ADD MSTORE PUSH1 0x20 DUP2 ADD SWAP1 POP PUSH2 0x1449 JUMP JUMPDEST DUP4 DUP2 GT ISZERO PUSH2 0x1473 JUMPI PUSH1 0x0 DUP5 DUP5 ADD MSTORE JUMPDEST POP POP POP POP JUMP JUMPDEST PUSH1 0x0 PUSH1 0x2 DUP3 DIV SWAP1 POP PUSH1 0x1 DUP3 AND DUP1 PUSH2 0x1491 JUMPI PUSH1 0x7F DUP3 AND SWAP2 POP JUMPDEST PUSH1 0x20 DUP3 LT DUP2 EQ ISZERO PUSH2 0x14A5 JUMPI PUSH2 0x14A4 PUSH2 0x1583 JUMP JUMPDEST JUMPDEST POP SWAP2 SWAP1 POP JUMP JUMPDEST PUSH2 0x14B4 DUP3 PUSH2 0x15F5 JUMP JUMPDEST DUP2 ADD DUP2 DUP2 LT PUSH8 0xFFFFFFFFFFFFFFFF DUP3 GT OR ISZERO PUSH2 0x14D3 JUMPI PUSH2 0x14D2 PUSH2 0x15B2 JUMP JUMPDEST JUMPDEST DUP1 PUSH1 0x40 MSTORE POP POP POP JUMP JUMPDEST PUSH1 0x0 PUSH2 0x14E7 DUP3 PUSH2 0x142D JUMP JUMPDEST SWAP2 POP PUSH32 0xFFFFFFFFFFFFFFFFFFFFFFFFFFFFFFFFFFFFFFFFFFFFFFFFFFFFFFFFFFFFFFFF DUP3 EQ ISZERO PUSH2 0x151A JUMPI PUSH2 0x1519 PUSH2 0x1525 JUMP JUMPDEST JUMPDEST PUSH1 0x1 DUP3 ADD SWAP1 POP SWAP2 SWAP1 POP JUMP JUMPDEST PUSH32 0x4E487B7100000000000000000000000000000000000000000000000000000000 PUSH1 0x0 MSTORE PUSH1 0x11 PUSH1 0x4 MSTORE PUSH1 0x24 PUSH1 0x0 REVERT JUMPDEST PUSH32 0x4E487B7100000000000000000000000000000000000000000000000000000000 PUSH1 0x0 MSTORE PUSH1 0x12 PUSH1 0x4 MSTORE PUSH1 0x24 PUSH1 0x0 REVERT JUMPDEST PUSH32 0x4E487B7100000000000000000000000000000000000000000000000000000000 PUSH1 0x0 MSTORE PUSH1 0x22 PUSH1 0x4 MSTORE PUSH1 0x24 PUSH1 0x0 REVERT JUMPDEST PUSH32 0x4E487B7100000000000000000000000000000000000000000000000000000000 PUSH1 0x0 MSTORE PUSH1 0x41 PUSH1 0x4 MSTORE PUSH1 0x24 PUSH1 0x0 REVERT JUMPDEST PUSH1 0x0 DUP1 REVERT JUMPDEST PUSH1 0x0 DUP1 REVERT JUMPDEST PUSH1 0x0 DUP1 REVERT JUMPDEST PUSH1 0x0 DUP1 REVERT JUMPDEST PUSH1 0x0 PUSH1 0x1F NOT PUSH1 0x1F DUP4 ADD AND SWAP1 POP SWAP2 SWAP1 POP JUMP JUMPDEST PUSH32 0x5265717565737420616C726561647920636F6D706C6574650000000000000000 PUSH1 0x0 DUP3 ADD MSTORE POP JUMP JUMPDEST PUSH32 0x4C657373207468616E20353025206F6620636F6E7472696275746F7273206170 PUSH1 0x0 DUP3 ADD MSTORE PUSH32 0x70726F7665207468697300000000000000000000000000000000000000000000 PUSH1 0x20 DUP3 ADD MSTORE POP JUMP JUMPDEST PUSH32 0x596F7520617265206E6F7420746865206D616E61676572206F66207468697320 PUSH1 0x0 DUP3 ADD MSTORE PUSH32 0x636F6E7472616374000000000000000000000000000000000000000000000000 PUSH1 0x20 DUP3 ADD MSTORE POP JUMP JUMPDEST PUSH32 0x596F7520616C726561647920617070726F766520697400000000000000000000 PUSH1 0x0 DUP3 ADD MSTORE POP JUMP JUMPDEST PUSH32 0x596F7520617265206E6F742074686520617070726F7665727300000000000000 PUSH1 0x0 DUP3 ADD MSTORE POP JUMP JUMPDEST PUSH32 0x436F6E747269627574696F6E20697320746F6F206C6F77000000000000000000 PUSH1 0x0 DUP3 ADD MSTORE POP JUMP JUMPDEST PUSH2 0x1751 DUP2 PUSH2 0x13DD JUMP JUMPDEST DUP2 EQ PUSH2 0x175C JUMPI PUSH1 0x0 DUP1 REVERT JUMPDEST POP JUMP JUMPDEST PUSH2 0x1768 DUP2 PUSH2 0x13EF JUMP JUMPDEST DUP2 EQ PUSH2 0x1773 JUMPI PUSH1 0x0 DUP1 REVERT JUMPDEST POP JUMP JUMPDEST PUSH2 0x177F DUP2 PUSH2 0x142D JUMP JUMPDEST DUP2 EQ PUSH2 0x178A JUMPI PUSH1 0x0 DUP1 REVERT JUMPDEST POP JUMP INVALID LOG2 PUSH5 0x6970667358 0x22 SLT KECCAK256 0x2A 0xF9 0xC SSTORE PUSH13 0xBAA64FC01BE8AB8E8E74DAF268 SWAP9 0xE5 SWAP1 CHAINID 0x1F PUSH9 0xB8048CD8474E1F0F64 PUSH20 0x6F6C63430008070033A264697066735822122089 SLT MLOAD 0xC5 0xCB SSTORE GAS 0xE9 0xD5 LOG3 PUSH2 0x95A6 0xC9 0x22 CALLDATALOAD JUMPDEST 0xE2 CALLCODE MLOAD 0xFB 0xD0 MULMOD JUMPI PUSH26 0x47C2C95AA1874264736F6C634300080700330000000000000000 "},"gasEstimates":{"creation":{"codeDepositCost":"1868800","executionCost":"1969","totalCost":"1870769"},"external":{"createCampaign(uint256,string,string,string)":"infinite","deployedCampaigns(uint256)":"4934","getDeployedCampaigns()":"infinite"}},"methodIdentifiers":{"createCampaign(uint256,string,string,string)":"8ef03928","deployedCampaigns(uint256)":"339d50a5","getDeployedCampaigns()":"4acb9d4f"}},"storageLayout":{"storage":[{"astId":4,"contract":"Campaign.sol:CampaignFactory","label":"deployedCampaigns","offset":0,"slot":"0","type":"t_array(t_address)dyn_storage"}],"types":{"t_address":{"encoding":"inplace","label":"address","numberOfBytes":"20"},"t_array(t_address)dyn_storage":{"base":"t_address","encoding":"dynamic_array","label":"address[]","numberOfBytes":"32"}}},"userdoc":{"kind":"user","methods":{},"version":1}}